:020000040800F2
:1000000000000824D1180008752900087929000883
:100010007D290008812900088529000800000000CA
:100020000000000000000000000000008929000816
:100030008D2900080000000091290008952900087A
:1000400021190008211900082119000821190008A8
:100050002119000821190008211900082119000898
:100060002119000821190008211900082119000888
:100070002119000821190008211900082119000878
:100080002119000821190008211900082119000868
:100090002119000821190008211900082119000858
:1000A0002119000821190008211900082119000848
:1000B0002119000821190008211900082119000838
:1000C0002119000821190008211900082119000828
:1000D0002119000821190008211900082119000818
:1000E000211900082119000800000000211900084A
:1000F00021190008211900082119000821190008F8
:1001000021190008211900082119000821190008E7
:1001100021190008211900082119000821190008D7
:10012000211900082119000821190008992900083F
:1001300021190008211900082119000821190008B7
:10014000211900082119000800000000000000002B
:100150002119000821190008211900082119000897
:100160002119000821190008211900082119000887
:100170002119000821190008A12900080000000029
:100180002119000821190008211900082119000867
:100190002119000821190008211900082119000857
:1001A000CD29000821190008C129000821190008DB
:1001B0002119000821190008211900082119000837
:1001C0002119000821190008211900082119000827
:1001D0002119000821190008211900082119000817
:1001E0002119000821190008211900082119000807
:1001F00021190008211900082119000821190008F7
:1002000021190008211900082119000821190008E6
:1002100021190008211900082119000821190008D6
:100220002119000821190008A9290008B52900088A
:1002300021190008211900082119000821190008B6
:1002400021190008211900082119000821190008A6
:100250002119000821190008211900082119000896
:100260002119000821190008211900082119000886
:100270002119000821190008211900082119000876
:1002800021190008211900082119000800000000A8
:080290002119000821190008E2
:1002A00010B5054C237833B9044B13B10448AFF3B0
:1002B00000800123237010BD008400240000000092
:1002C00050B6010808B5034B1BB103490348AFF30F
:1002D000008008BD000000000484002450B601081E
:1002E00001F0FF01102A2BDB10F0070F08D010F8E7
:1002F000013B013A8B422DD010F0070F42B3F6D1EB
:10030000F0B441EA012141EA014122F007047FF003
:1003100000070023F0E80256083C85EA010586EA5A
:10032000010685FA47F5A3FA87F586FA47F6A5FA96
:1003300087F68EB9EED1F0BC01F0FF0102F00702A2
:1003400032B110F8013B013A83EA010313B1F8D14D
:100350000020704701387047002D06BF354603382E
:10036000073815F0010F07D1013015F4807F02BF67
:10037000013015F4C03F0130F0BC0138704700BFB8
:10038000034613F8012B002AFBD1181A01387047D5
:1003900007EE900AF5EEC07AF1EE10FA01D400F003
:1003A0000BB8F1EE677A08B517EE900A00F004F882
:1003B000404261EB410108BD9FED0B6B07EE100A57
:1003C0009FED0B5BB7EEC77A27EE066BBCEEC66BF4
:1003D000B8EE464BA4EE457BFCEEC77B16EE101A3A
:1003E00017EE900A704700BF000000000000F03DCB
:1003F000000000000000F04170B5B84E0A46054606
:10040000012130460EF004FC0446002800F07F84F1
:10041000B349B44A0868336840F0804003F5FC559E
:100420000860106840F08040C1E90233106003F5B5
:100430000060AD49C2E902000868AC4A40F0804063
:10044000086003F51060C1E902001068A84940F097
:100450008040106003F53460C2E902000868A54AD4
:1004600040F08040086003F54460C1E90200106874
:10047000A14940F08040106003F5E250C2E902005B
:1004800008689E4A40F080409560086003F5EA5095
:10049000C1E9020010689A4940F080401060D560C0
:1004A0000868984A40F08040086003F50250C1E9AE
:1004B00002001068944940F08040106003F58140CC
:1004C000C2E902000868914A40F08040086003F5E4
:1004D0008540C1E9020010688D4940F080401060FD
:1004E00003F58E40C2E9020008688A4A40F0804065
:1004F000086003F59240C1E902001068864940F0A7
:100500008040106003F50940C2E902000868834A90
:1005100040F08040086003F50B40C1E9020010681C
:1005200048F6807140F080401944106049F2801014
:10053000C2E9021118447A497A4A0D68C1E90200F9
:10054000106845F0804540F080400D6076491060AD
:100550004DF280101844C2E902000868734A40F066
:10056000804008604DF280301844C1E902001068F4
:100570006F4940F08040106003F55840C2E9020026
:1005800008686C4A40F08040086003F55A40C1E9B1
:1005900002001068684940F08040106003F58D301B
:1005A000C2E902000868654A40F08040086003F52F
:1005B0008E30C1E902001068614940F08040194462
:1005C00010606048C2E9021118445F495F4A0D6833
:1005D000C1E90200106845F0804540F080400D60A0
:1005E0005B4910605B481844C2E9020008685A4A37
:1005F00040F08040086059481844C1E90200106882
:10060000574940F08040106056481844C2E9020043
:100610000868554A40F08040086054481844C1E9D1
:1006200002001068524940F0804010605148184460
:10063000C2E902000868504A40F0804008604F4814
:100640001844C1E9020010684D4940F08040194447
:1006500010604C48C2E9021118444B494B4A0D68DE
:10066000C1E90200106845F0804540F080400D600F
:100670004749106047481844C2E902000868464AE2
:1006800040F08040086045481844C1E90200106805
:10069000434940F08040106042481844C2E90200DB
:1006A0000868414A40F08040086040481844C1E969
:1006B000020010683E4940F0804010603D481844F8
:1006C000C2E9020008683C4A40F0804008603B48AC
:1006D0001844C1E90200106872E000BF5489002488
:1006E000808000246080002440800024208000243A
:1006F00000800024D07F0024B07F0024907F00245D
:10070000707F0024507F0024307F0024107F00245D
:10071000F07E0024D07E0024C07E0024907E002441
:10072000707E0024507E0024307E0024207E002431
:10073000007E0024E07D0024C07D0024A07D0024F4
:100740008020010080220100907D0024707D002423
:10075000507D002480620100307D0024806401000F
:10076000107D002400690100007D0024006B010061
:10077000F07C002400AB0100E07C002400AD01000F
:1007800080B1010080B30100D07C0024C07C002433
:10079000B07C002480330200A07C0024803702005B
:1007A000707C002480400200407C002480440200D1
:1007B000107C002480440300E07B00248048030078
:1007C000AF4940F0804019441060AE48C2E90211C0
:1007D0001844AD49AD4A0D68C1E90200106845F002
:1007E000804540F080400D60A9491060A948184438
:1007F000C2E902000868A84A40F080400860A748A3
:100800001844C1E902001068A54940F0804010601A
:10081000A4481844C2E902000868A34A40F0804096
:100820000860A2481844C1E902001068A04940F0DD
:10083000804010609F481844C2E9020008689E4A40
:1008400040F0804008609D481844C1E902001068EB
:100850009B4940F08040194410609A48C2E9021157
:1008600018449949994A0D68C1E90200106845F099
:10087000804540F080400D609549106095481844CF
:10088000C2E902000868944A40F08040086093483A
:100890001844C1E902001068914940F0804010609E
:1008A00090481844C2E9020008688F4A40F080402E
:1008B00008608E481844C1E9020010688C4940F075
:1008C000804010608B481844C2E9020008688A4AD8
:1008D00040F08040086089481844C1E9020010686F
:1008E000874940F08040194410608648C2E90211EF
:1008F00018448549854A0D68C1E90200106845F031
:10090000804540F080400D60814910608148184466
:10091000C2E902000868804A40F0804008607F48D1
:100920001844C1E9020010687D4940F08040106021
:100930007C481844C2E9020008687B4A40F08040C5
:1009400008607A481844C1E902001068784940F00C
:100950008040106077481844C2E902000868764A6F
:1009600040F08040086075481844C1E902001068F2
:10097000734940F08040194410607248C2E9021186
:1009800018447149714A0D68C1E90200106845F0C8
:10099000804540F080400D606D4910606D481844FE
:1009A000C2E9020008686C4A40F0804008606B4869
:1009B0001844C1E902001068694940F080401060A5
:1009C00068481844C2E902000868674A40F080405D
:1009D000086066481844C1E902001068644940F0A4
:1009E0008040106063481844C2E902000868624A07
:1009F00040F08040086061481844C1E90200106876
:100A00005F4940F08040194410605E48C2E902111D
:100A100018445D495D4A0D68C1E90200106845F05F
:100A2000804540F080400D60594910605948184495
:100A3000C2E902000868584A40F080400860574800
:100A40001844C1E902001068554940F08040106028
:100A500054481844C2E902000868534A40F08040F4
:100A6000086052481844C1E902001068504940F03B
:100A7000804010604F481844C2E9020008689BE0BB
:100A80008051030080550300B07B0024807B00244C
:100A9000507B002480550400207B002480590400F2
:100AA000F07A002480620400C07A0024806604008A
:100AB000907A002480660500607A0024806A050030
:100AC000808A0500008B0500307A0024007A00241B
:100AD000D079002440960500A0790024689605008E
:100AE00070790024E8AC05004079002438AD050099
:100AF0001079002438CD0500E0780024B8CD050039
:100B000038E4050088E40500B078002480780024EB
:100B100050780024C8EF050020780024F0EF05008D
:100B2000F0770024F00F0600C07700247010060054
:100B300090770024B01B060060770024D81B0600C5
:100B400058320600A83206003077002400770024CF
:100B5000D0760024A8420600A07600242843060090
:100B600070760024684E060040760024904E060001
:100B70001076002410650600E0750024606506000C
:100B8000606D0600E06D0600B075002480750024DD
:100B9000507500242079060020750024487906004D
:100BA00010720024C88F06000072002418900600FE
:100BB000D07100242C900600584A40F08040086014
:100BC00057481844C1E902001068564940F0804077
:100BD000194410605448C2E9021118445349544A58
:100BE0000D68C1E90200106845F0804540F0804082
:100BF0000D605049106050481844C2E9020008686E
:100C00004E4A40F0804008604D481844C1E9020057
:100C100010684C4940F0804010604B481844C2E9CD
:100C200002000868494A40F080400860484818447B
:100C3000C1E902001068474940F080401060464812
:100C40001844C2E902000868444A40F08040086045
:100C500043481844C1E902001068424940F080400E
:100C6000194410604048C2E9021118443F49404A03
:100C70000D68C1E90200106845F0804540F08040F1
:100C80000D603C4910603C481844C2E90200086805
:100C90003A4A40F08040086039481844C1E90200EF
:100CA0001068384940F08040106037481844C2E965
:100CB00002000868354A40F0804008603448184413
:100CC000C1E902001068334940F0804010603248AA
:100CD0001844C2E902000868304A40F080400860C9
:100CE0002F481844C1E9020010682E4940F08040A6
:100CF00019441060C2E902112B4A2C4910681944AA
:100D000040F08040C2E902111060204670BD1222FE
:100D1000302128460EF052F9204670BDC0710024E3
:100D2000E0900600B0930600F09E0600907100244B
:100D30008071002460710024F0CB06004071002413
:100D4000C8CC060020710024E8CC06000071002405
:100D500030CD0600E070002450CD0600C0700024A5
:100D6000D0CD060010CE0600A0CE0600A070002454
:100D70008070002460700024E0CE060040700024E3
:100D8000E0D006002070002460D10600007000242E
:100D900080D20600E06F002400D30600D06F00244C
:100DA00000D7060080D70600B06F0024A0D8060048
:100DB0002DE9F04FB84DABB00A4604460121284654
:100DC0000DF07EFF0190002800F0A9842A684EF6FD
:100DD0006073B2494FF6603CB14813441144B14FBF
:100DE000B14C4FF2E026D719B04D14194FF2A008BC
:100DF00055194FF6E03ADFF800B44FF2D84EDFF85D
:100E0000FC93164496449344914490449244C0E920
:100E10000211A748C0E90233A648C0E90222A64849
:100E2000C0E90211A548A649C0E902331144A5480A
:100E3000C0E90211A448C0E90211A449A448114420
:100E4000C0E90211A349A4481144C0E90211A34911
:100E5000A3481144C0E90211A248C0E90211A24806
:100E6000A249C0E902331144A148C0E90211A148D6
:100E7000C0E90211A049A1481144C0E90211A048EB
:100E8000A049C0E9023311449F48C0E902119F48BC
:100E9000C0E902119E489F49C0E9023311449E48AF
:100EA000C0E902119D48C0E902119D499D481144C5
:100EB000C0E902119C489D49C0E9023311449C4895
:100EC000C0E902119B48C0E902119B489B49C0E957
:100ED000023311449A48C0E902119A48C0E902114C
:100EE00099499A481144C0E9021199484FF20441C6
:100EF000C0E9023311449748C0E902119649974866
:100F00001144C0E9021196484FF26021C0E9023352
:100F100010971144934F9448D7190E940F954FF2A0
:100F200060642897914F1444914DD719154429971F
:100F3000904FC0E902119049D71990481144119778
:100F400067464FF6605CC0E902118D49D7198D489C
:100F5000114403978C4FC0E902114FF6A401D71931
:100F600008468A4912971018894FC1E90233894906
:100F7000D71927908860C860874909971144874F1F
:100F80008748D719009161461044139757180CF5FC
:100F900048514FF6600C04975118824F0291D719AF
:100FA000814914975118814F1691D7198049159787
:100FB0005118804F0691D71918977F4FD719059769
:100FC00067464FF2600CD719179767464FF2A05C3F
:100FD000D71961464FF2C05C079767464FF2800C05
:100FE0005118D7191991089767464FF28C0CD719E9
:100FF0001A9767464FF2C01CD71961464FF6802CEE
:101000001B97571861464FF2140C51181C974FF25A
:1010100060770A9161464FF6A04C174451181D9114
:1010200061464FF2082C51181E91644951180B91DA
:101030006146DFF8CCC1511894441F9160495118A2
:1010400020916049511821915F49511822915F49BF
:10105000511823915E4951180C915E4951180D9118
:101060005D49511824915D49511825915C490A4404
:101070000E9926925B4AC2E902115B4A0F99C2E9B6
:1010800002335A4AC2E90266594AC2E9021100997A
:10109000584AC2E90211B5E058890024382B0100F2
:1010A000607C0024A41C010060BB0200E0820100FF
:1010B000907C0024807C0024507C0024F074002468
:1010C00030280100C0740024307C0024101C010072
:1010D000207C0024E41A01009074002430480200AF
:1010E00060740024007C002430740024302201004D
:1010F00000740024F07B002420160100D07B002423
:10110000D073002420130100A0730024C07B0024AE
:101110009073002420A3010080730024A07B00248E
:10112000A08A0100907B002470730024A084010039
:1011300060730024707B002450730024A07E0100A3
:1011400040730024607B002480720100407B0024F7
:101150003073002420730024A09E0200307B002402
:1011600010730024E0430100007300246456010062
:10117000605101006468010060820100107B00245E
:1011800060120200007B0024601F0100F072002446
:1011900064140100E0720024E012020064380100CF
:1011A000E05A0200645C010060060100E063020096
:1011B00060010100600F010060280100E0150100DE
:1011C000E01F0100E0310100580D0100E07901004D
:1011D000E0C10100886C0100D0850100D0B201009F
:1011E000A8EE0100E07A0024D0720024C07200242E
:1011F000D07A0024B07A0024E00D0100F81201003A
:10120000201E0200B44AC2E902332799B34AC2E958
:1012100002111099B24AC2E90211B24A0099C2E918
:101220000233B14AC2E90211B04AC2E90200B04A2F
:10123000C2E90233AF4AC2E90255AF4AC2E902111C
:10124000AE4AC2E90200AE4AC2E90233AD4AC2E97F
:101250000244AD4AC2E90211AC4AC2E90233AC4AC7
:10126000C2E90255AB4AC2E90211AB4AC2E9020027
:10127000AA4AC2E90233AA4AC2E90244A94AC2E917
:101280000211A94AC2E90233A84AC2E90255A84A92
:10129000C2E90211A74AC2E90200A74AC2E9023321
:1012A000A64AC2E90244A64AC2E90211A54AC2E915
:1012B0000233A54AC2E90255A44AC2E90211A44A6E
:1012C000C2E90200A34AC2E90233A34AC2E90244C6
:1012D000A24AC2E90211A24AC2E90233A14AC2E902
:1012E0000255A14A0D469160D160A04AC2E90200B0
:1012F0009F4AC2E902339F4AC2E902449E4A289C9F
:10130000C2E902119D4AC2E902339D4AC2E9024480
:10131000299C9C4AC2E90244119C9B4AC2E90244AE
:101320009A4A039CC2E90233994AC2E90244129CD8
:10133000984A0499C2E90244974A099CC2E902000A
:10134000964AC2E90233964AC2E90244139C954A7E
:10135000C2E90244944A149CC2E90233934AC2E9A6
:101360000211934AC2E90244924A029CC2E9023342
:10137000914AC2E90244914AC2E902001598904A92
:10138000C2E902008F4AC2E902338F4A1698C2E9C5
:1013900002118E4A1899C2E902008D4A0598C2E9E5
:1013A00002118C4AC2E902008B4A1798C2E9023343
:1013B0008A4AC2E902000698894AC2E90200894ABB
:1013C0000798C2E90233884AC2E90211874AC2E992
:1013D0000233874AC2E902001998864AC2E902002C
:1013E000854AC2E902330899844A1A98C2E902116F
:1013F000834AC2E90200834A1B98C2E90233824A47
:10140000C2E90211814A1C99C2E90200804AC2E97C
:101410000233804AC2E902887F4AC2E902117F4A48
:10142000C2E902337E4AC2E902117E4AC2E902667B
:101430007D4AC2E902777D4AC2E902667C4AC2E976
:1014400002770A997B4A1D98C2E902117A4AC2E9D9
:1014500002337A4B0B9AC3E90277794BC3E9021145
:10146000784BC3E90200784B1E98C3E90277774BAB
:10147000C3E90200764BC3E90277764BC3E902AABF
:10148000754BC3E902BB754BC3E902AA744BC3E9B0
:1014900002BB744BC3E90222734BC3E90288734B4E
:1014A000C3E902BB724B1F982299C3E90222714B18
:1014B000219AC3E90200704B2098C3E902EE6F4BFA
:1014C000C3E902BB6E4BC3E902006E4BC3E90222C3
:1014D0006D4BC3E90255D9E0B0720024A07200241C
:1014E000A07A00249072002480720024807A002464
:1014F000707A00247072002460720024507A0024F4
:101500005072002440720024407A0024207A002483
:101510003072002420720024107A0024F07100241C
:10152000E0710024F0790024E0790024B0710024F7
:10153000A0710024C079002470710024507100242F
:10154000B0790024907900243071002410710024B7
:1015500080790024F0700024D07000246079002489
:1015600050790024B0700024907000243079002459
:101570007070002450700024207900240079002429
:101580003070002410700024F0780024F06F0024E4
:10159000F07F0024D0780024C0780024C06F00249D
:1015A000B07E0024A07800247080002450800024A5
:1015B000907800247078002430800024108000246B
:1015C00060780024E07F0024C07F0024407800245D
:1015D00030780024A07F0024807F0024107800242D
:1015E000607F0024407F002400780024E0770024FE
:1015F000207F0024D0770024B0770024007F0024CF
:10160000A077002480770024E07E002470770024F7
:101610005077002440770024A07E00242077002407
:1016200010770024F0760024E0760024C0760024B1
:10163000B0760024807E00249076002480760024FA
:10164000607E002460760024407E002450760024D2
:10165000307600242076002400760024F0750024E3
:10166000D0750024107E0024C0750024A0750024CD
:10167000F07D002490750024D07D00247075002436
:10168000607500244075002430750024284BC3E9A0
:101690000222284B284AC3E902EE284BC3E902552F
:1016A000274BC3E90211274BC3E902EE264BC3E9DE
:1016B0000299264BC3E90255254B2399C3E902EE53
:1016C000244BC3E902CC244BC3E90211234B0C99F0
:1016D000C3E90299224BC3E90211224B0D99C3E9D8
:1016E00002EE214BC3E90299204BC3E902CC204B07
:1016F000C3E902EE1F4BC3E902CC1F4BC3E9021141
:1017000024991E4BC3E9021125991D4BC2E9021110
:10171000269AC3E9022201982BB0BDE8F08F13226C
:10172000302120460DF04AFC01982BB0BDE8F08F27
:101730001075002400750024C0730024B07D0024BF
:10174000E0740024D0740024807D0024B074002450
:10175000607D0024A0740024807400247074002430
:10176000407D002450740024407400242074002420
:1017700010740024F0730024207D0024E073002402
:10178000B07300242DE9F043002391B005240F46E7
:10179000019319460094164601232F4A80460DF006
:1017A00027FF10F0FF09044603D0204611B0BDE822
:1017B000F08302A800F070F8002846D07FB1BDF891
:1017C000163063B1043F4D46294657F8042F05A84B
:1017D00001350DF009FABDF81630AB42F4DC7EB1EC
:1017E000BDF80E3063B1043E0025294656F8042F9B
:1017F00003A801350DF0F8F9BDF80E30AB42F4DC6A
:10180000D8F8007002A938460EF0CCF80646A0B110
:1018100002A9FEF7F1FD054602A93046FFF7C8FA16
:1018200005403846EDB20EF059FA35B128B169F3EA
:101830000704204611B0BDE8F083D8F800000DF091
:10184000B1FA04465FFA80F9F1E7D8F800000DF02C
:10185000A9FA0446A9E700BF0000002408B10DF072
:10186000B3BB034B034A18461A600DF0ADBB00BF73
:10187000000000240001C0A108B10DF031BD034BF0
:10188000034A18461A600DF02BBD00BF000000246B
:101890000001C0A10EF04CBB0346A0B110B50A4C2C
:1018A00084B094E803006A4608340DF1080C82E81D
:1018B000030094E803008CE80300614618460DF02D
:1018C00057FA04B010BD704768B60108FEE7000083
:1018D000DFF834D0002103E00C4B5B584350043157
:1018E0000B480C4B42189A42F6D30B4A02E00023F5
:1018F00042F8043B094B9A42F9D301F0A9F817F0DA
:1019000067FD00F0D1FE70470000082420D20308D4
:1019100000000024A883002400840024509A00249E
:10192000FEE70000024B1B681868C0F34340704795
:101930005C8900240E4B1A689368B3B1186810F0E4
:10194000010013D0586888B1436873B1408868B10A
:101950001B681068D3ED007AC0F3C050F5EE407AF2
:10196000F1EE10FA01D0013070470020704700BF3F
:101970005C890024084A0123F7EE007A1268126895
:1019800002F07F02403A934000EE103AB8EE400A6F
:1019900087EE800A704700BF5C890024094B1B68F2
:1019A0009B6863B11A68D20709D55B683BB15A6876
:1019B0002AB15B881BB1136893ED000A70479FED55
:1019C000020A70475C89002400000000104B1B686D
:1019D0009A688AB1136813F001000CD0506850B1B6
:1019E00002884368920709D523B1408818B15B6823
:1019F000187870471846704710467047002BF9D08A
:101A000040880028F7D05B6893F90000704700BF5A
:101A10005C890024F0B5144D002683B014462E6076
:101A2000324603680F46284601A90193FFF7AAFE34
:101A300031462868ADF80260FFF710FF0B4E0346F1
:101A40000DF1020128683360FFF716FF3368084A7A
:101A50005B6810603B6043682360036A6360C36B2C
:101A6000A36003B0F0BD00BF648900246089002436
:101A70005C89002410B50A4C0B460A4A216812689A
:101A800048601C68084854605C68006814629B6881
:101A9000D363FFF7FFFE012800D0FEE710BD00BFB3
:101AA000608900245C890024648900240268D3686A
:101AB00023F00103D36000F0E5BD00BF836B9A6C97
:101AC000526D022A06D0012283F83520DA6C42F0EA
:101AD0004002DA6400F0D6BD03460B490B4870B5EE
:101AE0009C6B82B00126E36B626CA56B9B00009639
:101AF00003FB052209F0DCFA08B902B070BD02B0A0
:101B0000BDE8704000F0BEBD0000003068890024D0
:101B100001680E4BCA68186C22F00102CA609A6B09
:101B200001329A639A6B824200D070471A68D1687A
:101B300041F00101D160126812F0020203D00122CB
:101B400083F8352070479A63704700BF7096002471
:101B5000037B002BFCD070470022034610461A730B
:101B600004F014BD5F4A0023D2F8D4102DE9F041EF
:101B700041F001015C4CD0F8846082B023610546DD
:101B8000E3622046C4E90D33C2F8D410D2F8D43051
:101B9000564A03F0010322604FF0804201938023F4
:101BA0000199E3602362A3624FF08053C4E90123EB
:101BB00040F2022240F60803C4E905234FF0007307
:101BC000202263624FF40033E261236309F0F6F9E7
:101BD00000287ED100220F217A2005F089FD7A208D
:101BE00005F0C2FD002004F007FDC82005F04EFD01
:101BF00000220121104604F093FA002866D13C4AE5
:101C0000936D43F440339365936D23F0C07343F4B5
:101C10000003936545F24063364A12689A4245D004
:101C20002969002004F0C2FC074600283DD1324D4E
:101C3000642005F02BFD95F83430012B50D0296835
:101C400002234FF00108A86C85F8353085F8348000
:101C50000B682A4A43F480430B600B6823F00203AD
:101C60000B600B6841F8283B254BAF63C363A0238F
:101C70006264EB63234A244B0765C3646265F02208
:101C8000EB6B2A64214A6E6406F094FA034618BB93
:101C90002968C8200A6842F001020A6085F83430D9
:101CA00002B0BDE8F04105F0F1BCFEE7184AC023E0
:101CB00043F2360110680DF103028DF80330012361
:101CC000183003F0D9F80028AAD0FEE700F0DAFCBB
:101CD00095E700F0D7FC7DE74023EB6485F835807D
:101CE000FEE700BF0044025868890024400000520B
:101CF000000402403C96002470960024111B00084A
:101D0000D91A0008AD1A0008BD1A000800000030FA
:101D1000C096002408B572B6034B012200201A7346
:101D200004F024FC62B608BD102F9BD072B662B6D8
:101D3000704700BF00F0A6BC1F4A0121136830B5F0
:101D400023F00103002587B004461360284605F000
:101D5000FFF900204FF44871D4F88C306A46CDE981
:101D6000000100204FF4F071CDE902012946284618
:101D7000CDE9045305F0F8F910480CF08BFC284627
:101D80000CF0B8FC4FF07F400CF0CCFC4FF0FF3073
:101D90000CF0C0FC0A480CF0CDFC0A4B0A48342574
:101DA0009B680221D4F8902005FB0303DA6509F053
:101DB000E9F807B030BD00BF004000522CB1030865
:101DC000D8810024E49600240097002410B504462E
:101DD00088B04FF07F400CF011FD424B4D22322174
:101DE000002004F01DFD404B55224FF41B710020D4
:101DF00004F016FD0CF0A6FC014601233B4AC988FD
:101E0000002001EB81010CF0D5FD0CF09BFC01469C
:101E10000123374AC988002001EB410199400CF0A9
:101E2000C9FD0CF08FFC01460123324AC98800200D
:101E300001EB810199400CF0BDFD0CF083FCC188E1
:101E400001232D4A01EB410001EB800100200CF041
:101E5000B1FD0CF077FC01460123284AC988002017
:101E6000C1EBC10199400CF0A5FD0CF06BFC0146E3
:101E70000123234AC9880020C1EB01110CF09AFD0F
:101E80000CF060FC014601231E4AC98800200901AC
:101E90000CF090FD00232362236A002BFCD0D4F8C1
:101EA00090000222184900F0B7FB00234FF448715C
:101EB0004FF4F0701A460091CDE90533CDE90333B4
:101EC000CDE90101D4E9231000F044FB4FF47A601E
:101ED00005F0DCFB4FF07F4008B0BDE810400CF08F
:101EE0008DBC00BF9C260308981B0208041A020838
:101EF000181A02082C1A02084C1A0208781A02084A
:101F0000A41A0208C01A0208007017002DE9F84F41
:101F1000D0F88440054601224FF41631204600F0E7
:101F20007BFB4FF07F400CF069FCD5F890001D4D15
:101F30004FF4487E4FF0000C0544AEEB0C01064612
:101F400004F52077890034F8022B02F01F08C2F351
:101F5000451BC2F34129C2F382034FEAD22ABC4295
:101F600043EAC80306EB010849EA8B094FEA5232FB
:101F700043EA092342EACA0243EA024343F07F43A9
:101F8000C6E90033735006F10806C8F80430DAD108
:101F900000F5C8500CF5C86C0EF5C86E8542CCD162
:101FA000BDE8F88F007017002DE9F04FD0E9185305
:101FB0002DED048B002BA1B0824640F336810EAB91
:101FC00018354FF0000B9FEDA69ADFEDA68A0D9312
:101FD00056E0A54850F821603946404600960CF07E
:101FE00041FD334621460B980A220CF0B3FB3346E1
:101FF0000C990A2209980CF0D7FB30460CF092FBA2
:10200000C6F30722C6F30743134453FA86F6B6F520
:10201000BF7FB4BF4FF0FF304FF07F400CF07AFB32
:10202000B7EEC87A0D9E0521904A30468DED007BB3
:1020300017F0B4F80CF086FB4A46044639460323F1
:1020400040460CF0B7FC4846FEF79AF93246A488A1
:1020500003230A9E39460BF1010B183500FB04607F
:102060000CF0A8FC4FF07F400CF05CFB022003F06A
:1020700087FB002003F072FBDAF864305B4564DD17
:1020800015ED066A55ED047A26EE096A55ED056AE6
:1020900067EE897A55F8041CDAF8400066EEA86A03
:1020A000BCEEC66A15ED037AFCEEE77A50F8219093
:1020B00027EE287A232916EE100A15ED028A17EE6C
:1020C000902AFCEEE67A8DED096AA0EB520817EE35
:1020D000904AFCEEC77A08F101060A96A0F10506BF
:1020E00017EE903A0B96A4F10506A4EB53070C9655
:1020F0007FF76FAF5E494046009139460CF0B2FC65
:1021000021460B980A225A4B0CF024FB584B0C9991
:102110000A2209980CF048FB55480CF003FB4FF0DD
:102120007F400CF0F7FAB7EEC87A0D9E05214F4AB2
:1021300030468DED007B17F031F80CF003FB0323E4
:1021400004464A46404639467BE70024494B0F2265
:102150004FF420719C652046474B04F061FB474BD0
:10216000C8224FF42071204604F05AFB4FF0FF3094
:102170000CF0D0FABBF1010F6FD05A4640490D9CCC
:10218000204617F03FF80CF0DDFAC1882246012303
:1021900009014FF4A0700CF00DFC4FF0FF300CF073
:1021A000B9FADFED386A0D9C37492046DAE90B238E
:1021B0009B1A07EE903AF8EE677A86EEA77AB7EEAA
:1021C000C77A53EC172B17F01DF80CF0BBFA014639
:1021D00001232246C9884FF4A07001EBC101994048
:1021E0000CF0E8FB0023CAF82030DAF82030002B8E
:1021F000FBD0DAF890000222244900F00DFA002307
:102200004FF448714FF4F0701A460091CDE9053350
:10221000CDE90333CDE90101DAE9231000F09AF9A1
:1022200021B0BDEC048BBDE8F08F00241149124BA6
:102230000F228C6520464FF42071A34604F0F0FA7B
:102240000E4BC8224FF42071204604F0E9FA0EAB81
:102250004FF0FF300D930CF05DFA5A460C498EE7B3
:10226000000020440000F043081B0208DC1A0208AA
:1022700000A5FFFFA89700249C260308D06602084B
:10228000E41A020800007A44FC1A020800701700E1
:10229000F01A0208024B012202211A6208F072BEF3
:1022A000102F9BD02DE9F041044690B000F050F97A
:1022B0004FF4A072D4F884304FF00208C026C02733
:1022C0000B930CA9D4F88030E06208A80F93F02398
:1022D000CDF82880CDF83880CDE908230022CDE95B
:1022E0000C670BF0F9FF48BBE369012B28D00422EF
:1022F000D4F88000A16F0E92A269CDF828800B90CF
:102300000F91CDE90867CDE90C67022B17D172B1A7
:102310002C4A8B180244157882429178A3F103036A
:102320005D71A2F10302D97015791D71F3D10022FC
:102330000CA908A80BF0DCF940B3FEE7FEE7FEE7C6
:1023400042464FF490310546D4F8800000F064F91D
:102350000423D4F880000E93A16FCDF828800B9051
:102360000F91D4E90623CDE90867012BCDE90C676D
:10237000CBD106922A46CDF80C80CDE90433C02398
:10238000CDE9013300932B4600F0E4F8E269012A1D
:1023900012D0A36B012B0CD0022B00D0FEE7A36F51
:1023A00003F5D8311A6882F0803243F8042B994241
:1023B000F8D110B0BDE8F081E36F0349186800F070
:1023C0002BF9E6E7FDAF01004068030010B50446B5
:1023D00000F0BEF8034604F16C01A06F6362FFF7E2
:1023E00049FB00F0B5F8A06210BD00BF38B5044647
:1023F0002DED028B237B002BFCD0FFF793FA0228F4
:102400000ED0636C03B1FEE704F1480204F16001F1
:1024100004F16C0000F08EF86064002856D0FEE7EE
:10242000FFF788FA012836D0022819D00028E8D111
:10243000FFF7A0FAE16E41F6EC5347F2B072B0EE4E
:10244000407A0B440A4413F9010D07EE900A9942B1
:10245000F8EEE77A67EE877A62ED017AF3D1D0E79A
:10246000FFF79CFAB0EE408AFFF7B0FAE56E41F64E
:10247000EC5247F2B0712A44294412F9013D1B1A6B
:10248000954207EE903AF8EEE77A67EE887A61EDCA
:10249000017AF2D1B5E7FFF781FAB0EE408AFFF793
:1024A00095FAE56E41F6EC5247F2B0712A442944A0
:1024B00012F8013D1B1A954207EE903AF8EEE77AC2
:1024C00067EE887A61ED017AF2D19AE700F040F880
:1024D0002063BDEC028B38BD10B584B00446C06FDC
:1024E00001AA6946FFF796FA009B5BB1019AA367C0
:1024F0004AB1029BE26633B1039A23671AB162675D
:1025000004B010BDFEE7FEE70346022140F6F66286
:102510000A204FF07C5C186503F14800C3F858C0EE
:10252000C3E91212024901225965DA6515F0C0BFEC
:102530009A99193F10B5036884B00393D0E9013428
:1025400001A80294019315F0B9FF04B010BD00BFBB
:1025500005F096B82DE9F04F87B0DDF85090BDF842
:1025600040B0B9F1040FCDE903011846BDF844307D
:10257000DDE91278DDE9155605932CD807FB00221A
:10258000234850F8290000FB02F30293214C4FF03E
:10259000010AA7EB0B07204606F056FE003D4FF060
:1025A0000003204618BF0125311E236218BF0121F8
:1025B0002D046364FF23C4F80890C4F84880E760E2
:1025C0006560A165C4F84CA0236506F0FBFD28B149
:1025D00007B0BDE8F08F00230293D7E751462046AD
:1025E00007F044F80028F3D1029B2046049A03998F
:1025F0001A44059B00935B4606F0ACFE0028E7D129
:102600001E21204607B0BDE8F04F06F0FFBE00BF18
:10261000E4A80308A897002440EA0103DB0606D1DA
:10262000012A05D0002901DD022A1AD07047FEE7F1
:102630000029FBDD10B40446BFF34F8F4B1E00F1A1
:1026400020010F4A23F01F030B44C2F85C422034E0
:102650009C42FAD1BFF34F8FBFF36F8F5DF8044BED
:102660007047BFF34F8F064A0144C2F8680220301A
:102670000B1A002BF9DCBFF34F8FBFF36F8F70473E
:1026800000ED00E008B5002003F07AF8012003F027
:1026900077F8022003F074F8032003F071F80220A9
:1026A00003F05CF8FEE700BF80B59EB005F080F84F
:1026B0004FF050409D4A01219D4B0C900BA8ADF866
:1026C0002C10CDE90D2305F091F8042005F07EF8DB
:1026D000984A536913F4003311D1BFF34F8FBFF3FE
:1026E0006F8FC2F85032BFF34F8FBFF36F8F5369B4
:1026F00043F400335361BFF34F8FBFF36F8F8D48A7
:10270000436913F4803324D1C0F88430BFF34F8F72
:10271000D0F8805043F6E076C5F34E34C5F3C905D2
:10272000640104EA06012B4641EA8372013BC0F8CA
:1027300060225A1CF8D1203C14F1200FF1D1BFF3D4
:102740004F8F436943F480334361BFF34F8FBFF32F
:102750006F8F04F059FF042008F0DAFD764B00215A
:10276000764A0191D96A21F00101D962DB6A03F04E
:1027700001030193936943F440439361936903F424
:1027800040430193019B93699B04FCD54FF4803235
:102790004FF001080227002308240BA80E93129380
:1027A0001D931A971C931B94CDE90B820522169258
:1027B000A022CDE917270422CDE91477199209F058
:1027C000CBF9002840F0B0803F234FF040094FF094
:1027D000030A059003934FF48063394603A80694D7
:1027E000CDF810A0CDF828900993CDE9079909F00C
:1027F00039FD0646002840F09780514D514C2B681A
:1028000043F080032B60D5F8F43043F00203C5F8A1
:10281000F430D5F8F43003F002030293029B04F085
:102820004DFFC4F8108020466664C4E90E8AC4E9EE
:102830000688D5F8E03043F40023C5F8E030D5F839
:10284000E03003F400230B930B9B3F4B2673636331
:102850003E4B266223643E4B2366FFF755FE05463A
:10286000606400B1FEE73B4A01463B4BC4F88C2054
:1028700002F500021846C4F88430C4F89020374AA4
:102880001268A267364A1268E26603F5C842C4F8C5
:102890008820344AC4F88020334AE2674FF4163265
:1028A00016F02DFD4FF416313A46FFF7B5FE2846D7
:1028B00002F026FF404602F023FF384602F020FFD8
:1028C000504602F01DFF2046FFF736FA2046FFF77C
:1028D00049F92046FFF700FE244940F20313284639
:1028E00081F802900B8004F069FC00B1FEE704F06F
:1028F00049FE00B1FEE72046FFF768FA2046FFF7E1
:1029000027F92046FFF702FB2046FFF7CBFC2046C5
:10291000FFF722F92046FFF759FD2046FFF766FD35
:102920002046FFF741FBE9E7FFF7ACFE1800010383
:102930000000010100ED00E00004005800480258CA
:1029400000440258102F9BD0D8890024EC8000242A
:1029500000C899D0000000D0007097D0E083002418
:10296000C0830024609A0024E8800024D4890024D5
:10297000704700BF704700BFFEE700BFFEE700BF23
:10298000FEE700BFFEE700BF704700BF704700BF13
:10299000704700BF04F068BE002003F06BBE00BFAC
:1029A000002003F061BE00BF014808F0F3BB00BF88
:1029B00068890024014806F087BF00BF10980024F2
:1029C000014806F0BFBD00BFA8970024014808F0E9
:1029D000A3B900BF009700240120704708B516F086
:1029E000F1FC162203464FF0FF301A6008BD00BF0D
:1029F00008B516F0E7FC16230360FEE770B5161E57
:102A000007DD0C468D19AFF3008004F8010BA542D9
:102A1000F9D1304670BD00BF70B5161E07DD0C46FB
:102A20008D1914F8010BAFF30080AC42F9D1304698
:102A300070BD00BF4FF0FF30704700BF4FF4005330
:102A400000204B60704700BF012070470020704796
:102A500093490022934B9448F0B4D1F8884082B057
:102A6000924D44F47004C1F888400C6944F00404A9
:102A70000C614FF0B044196841F0010119601A610E
:102A80001968084018609A61DA611A629A62DA621B
:102A90001A635A639A63DA631A645A64196821F4F0
:102AA000802119601A66D4F8E420814B42F48042F8
:102AB000C4F8E4202A681340B3F1005F03D27D4BD1
:102AC0000122C3F808210023764D7B494FF0CC3614
:102AD0000093D5F8E000794A40F4FC70784C794FC7
:102AE000C5F8E000D5F8E000DFF83CC200F01000C7
:102AF0000090CC20086274484862744808607448AA
:102B0000886074484B60C8607349744811627449A6
:102B1000566211607349916073495360D16002F548
:102B200080522762C4F824C0DFF800C26F49C4F89D
:102B300000C0DFF8FCC1C4F808C0DFF8F8C163606A
:102B4000C4F80CC06A4C07624462A4F58234A4F550
:102B5000B174046004F5822404F255548460654C19
:102B60004360C46040F265146348086263484E6283
:102B700008606348886063484B60C8604FF44C61EC
:102B8000614816625162106060496148916053600B
:102B9000D0604FF4C052D5F8D4305E4943F480532E
:102BA0005D48C5F8D43009230A645C4A4C648864E3
:102BB000CA640B658B6D13F0200361D04FF6FF7272
:102BC00001E0013A54D08B6D13F02003F9D1019349
:102BD000019BB3F57A7F5DD20023019A0132019205
:102BE000019AB2F57A7FF8D34A4A0A211165002B7F
:102BF00052D04FF6FF73474901E0013B1ED08A6D6A
:102C00009006FAD4EB230B65424B454A1A65414BBB
:102C100040F6064243495C6D214822434FF0006470
:102C20005A655A6C22F400725A640B6843F00043F0
:102C30000B60009B846002B0F0BC7047EB224FF643
:102C4000FF7334480A6501E0013B05D0826D9106AF
:102C5000FAD4334B0365DAE7314A4FF6FF732D4957
:102C6000026501E0013BD2D08A6D9206CFD5F9E72B
:102C70000192019AB2F57A7FAFD30A230B65B8E7C8
:102C80000193019BB3F57A7FA6D30A22EB230A6551
:102C90000B65B9E70A230B651E4BEB221A65B3E7F8
:102CA00000ED00E0004402587FEDF6EA0010005C01
:102CB0000000FFFF00800051000C02580010025875
:102CC00000140258CCCCCC00CC0C00CCFAFFEAAFFC
:102CD0000F003FF005001550CC0000C0001802584E
:102CE000FABFAAAA0FC0FFFF05405555001C0258A5
:102CF0000C0000C0550501400000C0CCFFABAAAAE3
:102D000000FCFFFF00545555AAAAEBFFFFFF3C0053
:102D100055551400004100520050100051030101AC
:102D20000C4004000040005200C0CCCCAAFABFAA5C
:102D3000FF0FC0FF5505405530B44FF400524FF01F
:102D400000654FF4804403464FF48071C0E900529F
:102D50004FF40022C0E9024100201A6130BC7047E4
:102D600010B54FF4407494B0052100220C944FF03C
:102D700040740223069110210F9440F201140B932A
:102D8000039341F2883313920092029106A90194B1
:102D90009FED097BCDE90D22CDE911226A468DED2B
:102DA000047B08F08BFD002814BF6FF004000020A6
:102DB00014B010BDAFF30080000000000000400020
:102DC00030B5002395B003290C460D9341F28832AB
:102DD0000B9306A913930546CDE90E33CDE91133C4
:102DE0000CBF4FF440734FF480730C93062306938B
:102DF00008F0E8FB20BB40F202230222032C284605
:102E000003924FF0000214BF4FF080754FF04075F1
:102E1000102406A90F950294CDE900334FF48003E6
:102E2000CDE90423052241F2883306926A4608F070
:102E300045FD002814BF6FF00400002015B030BD20
:102E40006FF00100FAE700BF03294FF0000330B52F
:102E500008BF4FF44072A3B018BF4FF4807205460C
:102E60000D930C92B7220E930F930B93119306922E
:102E7000CDE91233FFF7A4FF60BB044641F288326C
:102E800006A9284608F09EFB20BB4FF4407105229E
:102E90000223284614924FF040721993039341F293
:102EA000883321940094CDE91A1410219FED0C7BF6
:102EB000029140F20111CDE91C4201916A4614A928
:102EC000CDE91F448DED047B08F0F8FC10B92046D5
:102ED00023B030BD6FF00104F9E700BFAFF300800D
:102EE000000000000000400010B535218EB0002326
:102EF0004FF48074009141F28832694605930D9336
:102F0000CDE90643CDE90833CDE90B3308F05AFB90
:102F1000002814BF6FF0010000200EB010BD00BFEC
:102F200010B5F5218EB000234FF48074009141F26A
:102F30008832694605930D93CDE90643CDE9083300
:102F4000CDE90B3308F03EFB002814BF6FF0010001
:102F500000200EB010BD00BF10B590B003290CD8F2
:102F6000DFE801F03C3202289FED217BEE224FF09A
:102F7000407302920B938DED087B4FF44051082271
:102F800000234FF0004405914FF0804107926A46BC
:102F90000E9102A90A930D940F939FED177B8DED6F
:102FA000007B08F003FD002814BF6FF0050000202F
:102FB00010B010BD9FED127BED224FF040730292D6
:102FC0000B938DED087BD8E79FED0F7B3D224FF0F3
:102FD000007302920B938DED087BCEE79FED0A7B89
:102FE0000E224FF0807302920B938DED087BC4E7A5
:102FF00000010000000C00000000000000000000C4
:1030000000030000000C00000001000000040000AC
:1030100000B591B003290CD8DFE801F0392F022563
:103020009FED217BEC224FF0407302920B938DEDCC
:10303000087B9FED1F7B08214FF44052002307912E
:10304000694405926A460A930F93CDE90D338DEDDD
:10305000007B08F0ABFC002814BF6FF005000020D7
:1030600011B05DF804FB9FED147BEB224FF0407331
:1030700002920B938DED087BDBE79FED117BBC2269
:103080004FF0007302920B938DED087BD1E79FED1B
:103090000E7B0C224FF0807302920B938DED087B18
:1030A000C7E700BFAFF3008000010000000C000084
:1030B000000000000000000000030000000C000001
:1030C00000010000000800000001000000040000F2
:1030D00010B503298EB04FF066044FF0000341F2A3
:1030E00088326946009414BF4FF480744FF44074E2
:1030F00007930D93CDE90833CDE90534CDE90B33C2
:1031000008F060FA002814BF6FF0010000200EB034
:1031100010BD00BF10B503298EB04FF099044FF0D9
:10312000000341F288326946009414BF4FF4807462
:103130004FF4407407930D93CDE90833CDE905347E
:10314000CDE90B3308F03EFA002814BF6FF0010000
:1031500000200EB010BD00BF4FF0FF30704700BF21
:10316000024B00209B680B60704700BFD88A002488
:10317000024B00201B680B60704700BFD88A0024F8
:10318000054B00201B6883420CBF4FF4F0734FF4D3
:1031900048730B60704700BFD88A0024054B00209D
:1031A0001B6883420CBF4FF448734FF4F0730B60FD
:1031B000704700BFD88A00244FF0FF30704700BF2F
:1031C0004FF0FF30704700BF4FF0FF30704700BF37
:1031D0004FF0FF30704700BF4FF0FF30704700BF27
:1031E0004FF0FF30704700BF10B484680088A446D9
:1031F0005DF8044B604700BF10B444680088A446E3
:103200005DF8044B604700BF2DE9F043002300F157
:10321000100583B006460F4690461946DA4A2846FE
:1032200000F062FC03230446D84AFF21284600F040
:103230005BFC00230444D64A1946284600F054FC9F
:1032400002230444D34AFF21284600F04DFC00230A
:103250000444CF4A1946284600F046FC00230444A3
:10326000CD4AC421284600F03FFCF3680444984747
:103270008146F3689847A0EB09000928F9D9002393
:10328000C64A2846194600F02FFC00230444C44ACD
:10329000C421284600F028FCF3680444984781467E
:1032A000F3689847A0EB09000928F9D90023BD4A23
:1032B0002846194600F018FC00230444BA4AC521E8
:1032C000284600F011FC00230444B84A1946284659
:1032D00000F00AFC00230444B54AC521284600F04A
:1032E00003FC00230444B34A1946284600F0FCFBC3
:1032F00000230444B04AC021284600F0F5FB002317
:103300000444A14A1946284600F0EEFB0023044479
:10331000AA4AD921284600F0E7FB00230444A84A22
:103320001946284600F0E0FB00230444A54AC121C9
:10333000284600F0D9FB00230444A34A1946284636
:1033400000F0D2FB00230444A04AC121284600F02B
:10335000CBFB002304449E4A1946284600F0C4FBD8
:10336000002304449B4AC521284600F0BDFB0023EE
:103370000444994A1946284600F0B6FB0023044449
:103380008B4AC521284600F0AFFB002304447E4A47
:103390001946284600F0A8FB022304448F4AD8218E
:1033A000284600F0A1FB002304448D4A1946284614
:1033B00000F09AFB002304448A4AC521284600F005
:1033C00093FB00230444884A1946284600F08CFBEE
:1033D00000230444854AC021284600F085FB0023D1
:1033E0000444834A1946284600F07EFB0023044427
:1033F000804AC521284600F077FB00230444704A28
:103400001946284600F070FB002304447A4AC42180
:10341000284600F069FB002304446B4A19462846FD
:1034200000F062FB00230444744AC121284600F0E6
:103430005BFB00230444724A1946284600F054FB03
:10344000022304446F4AB321284600F04DFB0023B9
:1034500004444F4A1946284600F046FB062304441C
:10346000694ACE21284600F03FFB00230444674A06
:103470001946284600F038FB0E230444644ACE2146
:10348000284600F031FB00230444624A19462846CE
:1034900000F02AFB0E2304445F4ACE21284600F0A8
:1034A00023FB002304445D4A1946284600F01CFB18
:1034B0000A2304445A4ACF21284600F015FB002372
:1034C0000444584A1946284600F00EFB00230444E1
:1034D000554ACF21284600F007FB002304442C4A1C
:1034E0001946284600F000FB0A2304444F4ACB212A
:1034F000284600F0F9FA002304444D4A19462846AC
:1035000000F0F2FA0F2304444A4ACB21284600F087
:10351000EBFA002304443D4A1946284600F0E4FA39
:103520000F230444444ACB21284600F0DDFA00234F
:103530000444384A1946284600F0D6FA0A230444BF
:103540003E4ACB21284600F0CFFA00230444334AF8
:103550001946284600F0C8FA0F230444384ACB2104
:10356000284600F0C1FA002304442E4A1946284692
:1035700000F0BAFA0F230444324ACB21284600F067
:10358000B3FA002360E000BF4DAA030848AA03086D
:103590004EAA030844AA03084FAA030850AA030826
:1035A00051AA030852AA030853AA030854AA0308FD
:1035B00055AA030856AA030857AA030858AA0308DD
:1035C00059AA03085AAA03085BAA03085CAA0308BD
:1035D0005DAA03085EAA03085FAA030840AA0308BD
:1035E00060AA030861AA030862AA030863AA030881
:1035F00064AA030865AA030866AA030867AA030861
:1036000068AA03083CAA030834AA030869AA0308A5
:1036100024AA03086AAA030814AA03086BAA0308C9
:1036200008AA03086CAA030879AA0308FCA90308DE
:103630006DAA0308ECA90308DCA90308D0A90308B4
:10364000C0A90308B0A903080444A74A194628469C
:1036500000F04AFA0A230444A44ACB21284600F089
:1036600043FA00230444A24A1946284600F03CFAD3
:103670000A2304449F4ACB21284600F035FA002350
:1036800004449D4A1946284600F02EFA0A230444B1
:103690009A4ACC21284600F027FA00230444984A8D
:1036A0001946284600F020FA0F230444954ACC21FD
:1036B000284600F019FA00230444934A1946284684
:1036C00000F012FA0F230444904ACC21284600F05F
:1036D0000BFA002304448E4A1946284600F004FAE7
:1036E0000A2304448B4ACC21284600F0FDF900232C
:1036F0000444894A1946284600F0F6F90F23044489
:10370000864ACC21284600F0EFF900230444844A7D
:103710001946284600F0E8F90F230444814ACC21D9
:10372000284600F0E1F9002304447F4A1946284660
:1037300000F0DAF9002304447C4AC521284600F051
:10374000D3F9002304447A4A1946284600F0CCF9FC
:1037500000230444774AF521284600F0C5F90023E8
:103760000444754A1946284600F0BEF90023044473
:10377000724AC621284600F0B7F900230444704A73
:103780001946284600F0B0F9032304446D4AFF218E
:10379000284600F0A9F900230444694A194628463E
:1037A00000F0A2F900230444654A1946284600F0B7
:1037B0009BF910230444644AE121284600F094F95F
:1037C000002304445E4A1946284600F08DF904445B
:1037D00010235E4AE221284600F086F900230444C3
:1037E0005B4A1121284600F07FF9F36804449847AA
:1037F0008146F3689847A0EB09007728F9D9002F94
:103800006FD0022F4CD10023524A3A21284600F0B3
:103810006BF9DFF86891B8F1010F0444C9F804703E
:1038200043D00023C9F8003000234B4A51212846D9
:103830001E4600F059F90444484A334653212846AD
:10384000C9F8086000F050F904443346444A552151
:10385000284600F049F904443346424A5E2128468E
:1038600000F042F9044433463F4A2921284600F03B
:103870003BF9334631460444314A284600F034F9D6
:1038800001463346394A0C4428462C2100F02CF9D5
:10389000C44214BF4FF0FF30304603B0BDE8F083A0
:1038A000B8F1010FDFF8D490BBD160230DF107020E
:1038B000362128468DF80730002300F015F9261828
:1038C00004232B4A2A21284600F00EF9064404233B
:1038D000284A2B21284600F007F9C9F8008034183F
:1038E000A2E73B46244A90E76EAA0308A4A903086E
:1038F0006FAA030898A903084EAA03088CA9030815
:103900006DAA03087CA9030869AA03086CA9030827
:103910006AAA030860A903086BAA030850A9030850
:103920006CAA030840A9030859AA03087AAA030845
:103930007BAA03087CAA03087DAA03087EAA0308C1
:103940004DAA03083CA903082CA903081CA90308D5
:1039500070AA030871AA030873AA030874AA0308CB
:1039600075AA030876AA030877AA030878AA0308A9
:1039700084AA030880AA030872AA0308D88A00242C
:1039800030B5C1EB012C0C4D83B00C46A5FB0C5C93
:1039900000230DF1070210304FEA5C1C51218DF815
:1039A00007C000F0A1F818B9044B9C6003B030BD0B
:1039B0004FF0FF30FAE700BF1F85EB51D88A002493
:1039C00000B583B00023292110300DF107028DF8D6
:1039D000073000F089F8003818BF0120404203B0DA
:1039E0005DF804FB00B583B00023282110300DF1F1
:1039F00007028DF8073000F077F8003818BF012073
:103A0000404203B05DF804FB70B5602282B0002331
:103A100001298DF806208DF8073026D800F1100610
:103A20001ED00DF1070236211D46304600F05CF82D
:103A300004230F4A04462A21304600F055F8024676
:103A40000423304614442B210A4A00F04DF8204448
:103A5000094B00381D6018BF0120404202B070BD04
:103A60000D460DF106023621DFE74FF0FF30F5E796
:103A700084AA030880AA0308D88A00240A461030C2
:103A8000DA2108B5002300F027F8003818BF01201C
:103A9000404208BD4FF0FF30704700BF4FF0FF308D
:103AA000704700BF80B1034610B4D1E90124C86853
:103AB0005A600749074A9B61C3E90240C3E90421F0
:103AC00000205DF8044B70474FF0FF30704700BF97
:103AD000E9310008F931000810B4D0E90140A446EA
:103AE0005DF8044B604700BF10B404688068A446CA
:103AF0005DF8044B604700BF90F82430012B02D1E1
:103B0000002380F824300020704700BF4FF0FF30C2
:103B1000704700BF60B101230020CB604B60CB61D8
:103B20000B600B618B60C1E90533C1E90833704755
:103B30004FF0FF30704700BF10B404690089A446FD
:103B40005DF8044B604700BF10B4C4680089A44608
:103B50005DF8044B604700BF042900F2B3800139CF
:103B600030B583B0032900F2B080DFE801F01650D1
:103B70007B02032100F1180401230DF107028DF8E7
:103B80000710204643F6080101F076F9002800F0FE
:103B900097804FF0FF3003B030BD012500F11804CD
:103BA0000DF1070243F608012B4620468DF8075019
:103BB00001F062F90028ECD140222B4643F60901BE
:103BC00020468DF807200DF1070201F055F9002875
:103BD000DFD18DF807002B460DF1070243F60A01ED
:103BE000204601F049F90028D3D14FF0F00C2B46C4
:103BF0000DF1070243F60B0120468DF807C001F0D6
:103C00003BF9003818BF0120404203B030BD012508
:103C100000F118040DF1070243F608012B46204677
:103C20008DF8075001F028F90028B2D1E0222B4688
:103C300043F6090120468DF807200DF1070201F037
:103C40001BF90028A5D12B460DF1070243F60A0106
:103C500020468DF8075001F00FF9002899D14FF058
:103C6000100CC4E7022100F1180401230DF1070232
:103C70008DF80710204643F6080101F0FDF80028F2
:103C800087D180218DF8071001230DF1070243F63B
:103C90000901204601F0F0F800287FF47AAF0125F1
:103CA0000DF1070243F60A0120462B468DF8075016
:103CB00001F0E2F800287FF46CAF4FF0E00C96E7DB
:103CC0002021DFE74FF0FF307047002100F118049A
:103CD00001230DF107028DF80710204643F6080175
:103CE00001F0CAF800287FF454AFA02101230DF1A0
:103CF000070220468DF8071043F6090101F0BCF8D1
:103D000000287FF446AF8DF8070001230DF107026C
:103D100043F60A01204601F0AFF800287FF439AFDE
:103D2000782501230DF1070243F60B0120468DF89B
:103D3000075001F0A1F8003818BF012040422AE7DF
:103D400070B5002282B000F118040D468DF80720EE
:103D500001230DF1070243F20641204601F08CF8E1
:103D600008B102B070BD4622012345F290112046F1
:103D70008DF807200DF1070201F07EF80028F0D140
:103D8000F822012345F2911120468DF807200DF10C
:103D9000070201F071F80028E3D10422012345F263
:103DA000921120468DF807200DF1070201F064F80A
:103DB0000028D6D1691E072909D8DFE811F01E01B5
:103DC000CA0008006D010800080008006800002112
:103DD00001230DF1070220468DF8071043F206413A
:103DE00001F04AF8002840F09F81042501230DF1DD
:103DF00007024FF4505120468DF8075001F03CF86F
:103E0000002840F091818DF8070001230DF1070291
:103E100043F20141204601F02FF8002840F0848150
:103E200001230DF1070243F2024120468DF80750AD
:103E300001F022F8002840F077818DF80700012377
:103E40000DF1070243F20341204601F015F8002866
:103E500040F06A8101230DF1070243F2044120463C
:103E60008DF8075001F008F80546002840F05C8105
:103E700001230DF1070243F2054120468DF807505A
:103E800000F0FAFF003818BF0120404269E7012521
:103E90000DF1070243F2064120462B468DF80750EC
:103EA00000F0EAFF002840F03F8106222B464FF445
:103EB000505120468DF807200DF1070200F0DCFF7D
:103EC000002840F0318148222B4643F20141204630
:103ED0008DF807200DF1070200F0CEFF002840F01A
:103EE000238104262B460DF1070243F202412046AE
:103EF0008DF8076000F0C0FF002840F015818DF8B4
:103F000007002B460DF1070243F20341204600F063
:103F1000B3FF002840F008812B460DF1070243F261
:103F2000044120468DF8076000F0A6FF002840F00D
:103F3000FB80D3262B460DF1070243F205412046B4
:103F40008DF8076000F098FF003818BF012040424C
:103F500007E701250DF1070243F2064120462B46F3
:103F60008DF8075000F088FF002840F0DD80052222
:103F70002B464FF4505120468DF807200DF10702D3
:103F800000F07AFF002840F0CF8048222B4643F211
:103F9000014120468DF807200DF1070200F06CFF6B
:103FA000002840F0C18004222B4643F20241204603
:103FB0008DF807200DF1070200F05EFF002840F0A9
:103FC000B3808DF807002B460DF1070243F2034141
:103FD000204600F051FF002840F0A68007222B4623
:103FE00043F2044120468DF807206A4400F044FF64
:103FF000002840F09980CF269CE701250DF10702AB
:1040000043F2064120462B468DF8075000F034FF5E
:10401000002840F0898006222B464FF4505120465C
:104020008DF807200DF1070200F026FF00287BD154
:104030001C222B4643F2014120468DF807200DF14A
:10404000070200F019FF00286ED104262B460DF15F
:10405000070243F2024120468DF8076000F00CFF92
:10406000002861D18DF807002B460DF1070243F2BD
:104070000341204600F000FF002855D12B460DF1EA
:10408000070243F2044120468DF8076000F0F4FE79
:10409000002849D1F3264DE701250DF1070243F22F
:1040A000064120462B468DF8075000F0E5FED8BBB0
:1040B00004262B460DF107024FF4505120468DF88F
:1040C000076000F0D9FE78BB10230DF1070243F220
:1040D000014120468DF807302B4600F0CDFE18BB7D
:1040E0002B460DF1070243F2024120468DF807608E
:1040F00000F0C2FEC0B98DF807002B460DF1070293
:1041000043F20341204600F0B7FE68B908222B466F
:1041100043F2044120468DF807200DF1070200F01C
:10412000ABFE08B9B62605E74FF0FF3019E600BF31
:10413000013930B500F1180483B01F2921D8DFE818
:1041400011F03D004F0020008700200020002000DB
:10415000B4002000200020002000200020002000CB
:10416000D10020002000200020002000200020009E
:10417000200020002000200020002000200020003F
:10418000FD007F2101230DF1070220468DF8071065
:1041900045F2010100F070FE8446E8B901230DF1FB
:1041A00007024FF4AB4120468DF807C000F064FED3
:1041B000003818BF0120404203B030BDFF21012369
:1041C0000DF1070220468DF8071045F2010100F0BD
:1041D00053FE002800F0C7804FF0FF3003B030BD21
:1041E000FF2101230DF1070220468DF8071045F24B
:1041F000010100F041FE0028EED1182101230DF14C
:10420000070220468DF807104FF4AB4100F034FE52
:104210000028E1D1802101230DF1070220468DF80D
:10422000071045F2835100F027FE0028D4D1C025A5
:1042300001230DF1070245F2845120468DF8075005
:1042400000F01AFE003818BF0120404203B030BD14
:10425000FF2101230DF1070220468DF8071045F2DA
:10426000010100F009FE0028B6D1182101230DF14B
:10427000070220468DF807104FF4AB4100F0FCFD1B
:104280000028A9D1602501230DF1070245F28351D1
:1042900020468DF8075000F0EFFD00289CD1012347
:1042A0000DF1070245F28451C7E7FF2101230DF10B
:1042B000070220468DF8071045F2010100F0DCFDF1
:1042C000002889D1182101230DF1070220468DF81D
:1042D00007104FF4AB4100F0CFFD00287FF47CAF16
:1042E0008025D0E7FF2101230DF1070220468DF83C
:1042F000071045F2010100F0BFFD00287FF46CAF0C
:10430000182101230DF1070220468DF807104FF404
:10431000AB4100F0B1FD00287FF45EAF40210123E6
:104320000DF1070220468DF8071045F2835100F089
:10433000A3FD00287FF450AFA025B0E7FF210123A3
:104340000DF1070220468DF8071045F2010100F03B
:1043500093FD00287FF440AF402501230DF10702B3
:104360004FF4AB4169E7182101230DF10702204604
:104370008DF807104FF4AB4100F07EFD00287FF46C
:104380002BAFA02101230DF1070220468DF8071065
:1043900045F2835100F070FD00287FF41DAF4025E9
:1043A00001230DF1070245F2845146E730B52C4A4E
:1043B00085B000F118040D4601AB07CA03C3FF2105
:1043C0001A70204601238DF803100DF1030245F207
:1043D000010100F051FD08B105B030BD05F110023A
:1043E000012345F2875120466A4412F8082C8DF8C3
:1043F00003200DF1030200F03FFD0028ECD1042260
:1044000001234FF4AB4120468DF803200DF1030248
:1044100000F032FD0028DFD1002D10DB092501233B
:104420000DF1030245F2885120468DF8035000F04B
:1044300023FD003818BF0120404205B030BD0123E4
:104440000DF1030245F2885120468DF8033000F04B
:1044500013FD003818BF0120404205B030BD00BF39
:1044600078B6010830B5294A85B000F118040D4628
:1044700001AB07CA03C3FF211A70204601238DF840
:1044800003100DF1030245F2010100F0F5FC18B133
:104490004FF0FF3005B030BD05F110030DF1030200
:1044A00020460DEB0301012311F8081C8DF80310C1
:1044B00045F2835100F0E0FC0028E9D101230DF121
:1044C000030245F28451204600F0D6FC0028DFD1DB
:1044D000022101230DF1030220468DF803104FF451
:1044E000AB4100F0C9FC0028D2D1412501230DF1D8
:1044F000030245F2885120468DF8035000F0BCFCC1
:10450000003818BF0120404205B030BD84B6010814
:1045100030B5294A85B000F118040D4601AB07CA31
:1045200003C3FF211A70204601238DF803100DF1FB
:10453000030245F2010100F09FFC18B14FF0FF307B
:1045400005B030BD042201234FF4AB4120468DF865
:1045500003200DF1030200F08FFC0028EED105F1DD
:1045600010030DF1030220460DEB0301012311F8A6
:10457000081C8DF8031045F2865100F07DFC0028E0
:10458000DCD101230DF1030245F28551204600F0F4
:1045900073FC0028D2D1412501230DF1030245F21D
:1045A000885120468DF8035000F066FC003818BF93
:1045B0000120404205B030BD88AA030870B5334BD6
:1045C0008AB000F118040D4603F10C0C0DF1040E35
:1045D00093E8070004AB8EE807009CE8070083E837
:1045E00007002B4B93E807000AAB03E90700FF2203
:1045F000012345F2010120468DF803200DF103024D
:1046000000F03AFC18B14FF0FF300AB070BD01263F
:104610000DF103024FF4AB41204633468DF80360A1
:1046200000F02AFC0028EED105F12E030DF1030263
:1046300045F2815120460DEB030515F8243C8DF819
:104640000330334600F018FC0028DCD115F8183C84
:104650000DF1030245F2825120468DF803303346B6
:1046600000F00AFC0028CED115F80C5C33460DF1A1
:10467000030245F2885120468DF8035000F0FCFB00
:10468000003818BF012040420AB070BD90B6010842
:1046900094AA030802292DE9F041044682B05FD9AB
:1046A000072900F0BB80082954D1302200F11807F7
:1046B0000DF1070601238DF807204FF4864132469D
:1046C000384600F0D9FB002800F0D5804FF0FF35C8
:1046D0000123324643F62101384600F0C5FBC8BB32
:1046E0009DF80720012343F62101384642F02002BD
:1046F0008DF80720324600F0BFFB58BB012332463D
:1047000043F20201384600F0AFFB18BB9DF80720CA
:10471000012343F20201384622F01C028DF80720E3
:10472000324600F0A9FBA8B90123324643F2060144
:10473000384600F099FB68B99DF80710012332460E
:10474000384641F028018DF8071043F2060100F0C9
:1047500093FB08B14FF0FF35284602B0BDE8F08169
:104760000139012900F2A480DFE801F02D01302297
:1047700000F118050DF1070601238DF807204FF40D
:1047800086413246284600F077FB0028E2D1636973
:1047900098470746636998478742FBD0002128461F
:1047A000012332468DF8071045F21F0100F064FB2B
:1047B00005460028CED16369984706466369984745
:1047C0008642FBD0C8E7232200F118050DF1070649
:1047D00001238DF807204FF486413246284600F029
:1047E0004BFB0028B6D16369984707466369984731
:1047F0008742FBD001232846324645F21F018DF83F
:10480000073000F039FB05460028A3D163699847BB
:104810000646636998478642FBD09DE7102200F167
:1048200018050DF1070601238DF807204FF4864186
:104830003246284600F020FB00288BD16369984758
:104840000746636998478742FBD000212846012329
:1048500032468DF8071045F21F0100F00DFB0546AA
:1048600000287FF477AF63699847064663699847E5
:104870008642FBD070E763699847054663699847AD
:104880008542FBD00022012345F21F0138468DF8F6
:104890000720324600F0F0FA054600287FF416AFF4
:1048A000636998478046636998478045FBD00FE766
:1048B0006F2200F118070DF1070601238DF807207C
:1048C0004FF486413246384600F0D6FA00287FF48D
:1048D00041AF636998470546636998478542FBD0B5
:1048E00001233246384645F21F018DF8073000F0AB
:1048F000C3FA054600287FF42DAF63699847064642
:10490000636998478642FBD026E700BF90F82430C1
:104910000BB10020704704292DE9F043894683B08C
:1049200023D832F002030746904604D0D31F012B50
:1049300001D9012A19D1204C002107F1180504F5ED
:104940007E7601230DF10602284651B9B4F802C063
:1049500021888DF806C000F08FFA011E18BF0121D2
:1049600049420434A642ECD121B14FF0FF3003B0EC
:10497000BDE8F08349463846FFF7EEF80028F4D149
:1049800041463846FFF786FE0028EED1222001235B
:104990000DF1070244F240718DF8070007F118008D
:1049A00000F06AFA0028E0D10123002087F82430C3
:1049B00003B0BDE8F08300BFA4AA030870B500F1FE
:1049C000180482B00E4601230DF1070243F60801D8
:1049D000204600F049FA00284BD19DF807500123EA
:1049E0000DF1070243F6090120462D0200F03CFAC2
:1049F00000283ED19DF807300DF1070243F60A0169
:104A000020461D43012300F02FFA90BB9DF807308C
:104A100020460DF1070243F60B011C02012300F0B2
:104A200023FA30BB9DF80730B5F5487F43EA04030D
:104A3000A3F5F072B2FA82F24FEA521204D11AB11F
:104A40000423336002B070BDB5F5207F02D10AB1F6
:104A50000323F6E7B5F5F07F04D1B3F5887F01D1E4
:104A60000223EEE7B5F5A07F07D1F02B05D1012396
:104A7000E7E74FF0FF3002B070BDA02DF9D1782BE1
:104A8000F7D10023DDE700BF30B583B00D46044603
:104A900001A9FFF793FF80BB442D04F1180425D032
:104AA000019B022B1ED9032B00D1AD08002201234C
:104AB0004FF4AC4120468DF803200DF1030200F0C5
:104AC000DBF9D0B901230DF1030245F20161204663
:104AD0008DF8035000F0D0F9003818BF0120404293
:104AE00003B030BD002BE1D06D08DFE710250123B6
:104AF0000DF103024FF4AC41E9E74FF0FF30EFE76F
:104B0000F0B5064683B00F46044656F8183B984762
:104B100080230DF1070243F208018DF8073030467B
:104B2000012300F0A9F928BB63699847054663692A
:104B30009847401BB0F5FA7FF9D301230DF1070226
:104B400043F20A01304600F08FF998B99DF807103A
:104B500001230DF1070230460902396043F20B01CF
:104B600000F082F930B93B689DF8072013433B60A1
:104B700003B0F0BD4FF0FF30FAE700BF30B50022C0
:104B800083B000F118040D468DF8062001230DF1C5
:104B9000060243F62001204600F066F9002860D1A5
:104BA0009DF806300DF1070243F62101204623F05F
:104BB00006038DF80630012300F056F9002850D185
:104BC0009DF80730022D23F006038DF807301BD027
:104BD000032D49D0012D34D001230DF1060243F6F7
:104BE0002001204600F048F900283AD101230DF1B8
:104BF000070243F62101204600F03EF9003818BFB5
:104C00000120404203B030BD01230DF1060243F6FE
:104C10002001204600F030F918BB9DF80750012311
:104C20000DF1070243F6210145F0060520468DF8F7
:104C3000075000F021F9003818BF0120404203B0AE
:104C400030BD9DF806300DF1060243F620012046E6
:104C500043F006038DF806302B4600F00DF90028CE
:104C6000C4D04FF0FF30CDE79DF8061001230DF1C1
:104C70000602204641F006018DF8061043F6200199
:104C800000F0FAF80028C8D0EBE700BF70B50023A9
:104C900082B0012900F118048DF807301CD00123DF
:104CA0004FF4685120460DF1070200F0DDF8E8B935
:104CB0009DF8075001230DF107024FF4685125F0CC
:104CC000040520468DF8075000F0D6F8003818BFCC
:104CD0000120404202B070BD0D460B460DF10702A7
:104CE00043F23801204600F0C7F818B14FF0FF300A
:104CF00002B070BD2B460DF1070243F23901204688
:104D000000F0BAF80028F1D17C222B464FF468510C
:104D100020468DF807200DF1070200F0ADF80028BD
:104D2000E4D12B460DF1070243F6082120468DF809
:104D3000075000F0A1F80028D8D127222B4643F6CF
:104D4000092120468DF807200DF1070200F094F8A4
:104D50000028CBD18DF807002B460DF1070243F652
:104D60000A21204600F088F80028BFD1F6222B4601
:104D700043F60B2120468DF807200DF1070200F0C5
:104D80007BF80028B2D104222B4643F60D212046A1
:104D90008DF807200DF1070200F06EF80028A5D16C
:104DA0002B460DF1070243F60E21204600F064F871
:104DB00000289BD10B2501230DF1070243F60221A8
:104DC00020468DF8075000F057F800288ED188262D
:104DD00001230DF1070243F6032120468DF80760F9
:104DE00000F04AF8002881D101230DF1070243F6B3
:104DF000142120468DF8075000F03EF800287FF47B
:104E000075AF01230DF1070243F6152120468DF8F9
:104E1000076000F031F8003818BF0120404202B0AE
:104E200070BD00BFC0B10A8930B4D1E9003402813D
:104E3000C0E900344A69D1E903540949C560C0E9B1
:104E40000442084AC0E9071082610BB130BC184720
:104E50004FF0FF3030BC70474FF0FF30704700BF5D
:104E6000393B0008493B000810B4D0E90140A44692
:104E70005DF8044B604700BF10B404688068A44626
:104E80005DF8044B604700BF90F82430012B02D13D
:104E9000002380F824300020704700BF4FF0FF301F
:104EA000704700BF68B101230022CB6010464A6002
:104EB000CB610B600A618B60C1E90532C1E908234F
:104EC00070474FF0FF3070474FF0FF30704700BF22
:104ED0004FF0FF30704700BF10B404690089A4464A
:104EE0005DF8044B604700BF10B4C4680089A44655
:104EF0005DF8044B604700BF03292DE9F04383B000
:104F000000F2B1800129044627D00239012967D86F
:104F1000564E002500F1180906F5937835B1023692
:104F2000B045FBD1284603B0BDE8F0837578012376
:104F30000DF10702317848468DF8075000F0D8FB94
:104F4000051E636918BF0125984707466D426369CE
:104F50009847C01B0128FAD9E1E7454E002500F12A
:104F6000180906F5917825B302364645FBD1414E26
:104F700004F1180906F10A0825B102364645D1D0D8
:104F8000002DFAD173780DF10702317848468DF87B
:104F90000730012300F0ACFB051E636918BF012533
:104FA000984707466D4263699847C01B0128FAD9A4
:104FB000E3E7757801230DF10702317848468DF853
:104FC000075000F095FB051E636918BF012598473F
:104FD00007466D4263699847C01B0128FAD9C3E7A9
:104FE000234E002500F1180906F5917825B3023605
:104FF000B045FBD1204E04F1180906F10A0825B18D
:10500000023646458ED0002DFAD173780DF1070295
:10501000317848468DF80730012300F069FB051E02
:10502000636918BF0125984707466D426369984731
:10503000C01B0128FAD9E3E7757801230DF10702B7
:10504000317848468DF8075000F052FB051E636921
:1050500018BF0125984707466D4263699847C01BF2
:105060000128FAD9C3E74FF0FF355BE7A8AE030884
:10507000E8AF0308D0AF0308DCAF0308013970B50F
:1050800000F1180582B01F2921D8DFE811F06A006D
:10509000AD002000DE0020002000200023012000C1
:1050A0002000200020002000200020003B012000E4
:1050B00020002000200020002000200020002000F0
:1050C0002000200020002000200020006801CC21CA
:1050D00001230DF107028DF8071028463A2180269A
:1050E00000F006FB044601230DF107024F2128467C
:1050F0008DF8076000F0FCFA012304440DF107026B
:105100005021284600F0F4FA002304440DF1070270
:105110008DF8073051210123284600F0E9FA0444B4
:1051200001230DF107025221284600F0E1FA8DF823
:105130000760012304440DF107025321284600F0C3
:10514000D7FA014601230DF107020C4428465421E9
:1051500000F0CEFA2044003818BF0120404202B0CF
:1051600070BDCC2101230DF1070228468DF80710F0
:105170003A2100F0BDFA0022044601234F218DF8A8
:10518000072028460DF1070200F0B2FA044401237B
:105190000DF107025021284600F0AAFA0444012329
:1051A0000DF107025121284600F0A2FA0444012320
:1051B0000DF107025221284600F09AFA0123044417
:1051C0000DF107025321284600F092FA01466023B0
:1051D0000DF107020C4428468DF8073054210123B5
:1051E00000F086FA2044B6E7CC2101230DF1070236
:1051F00028468DF807103A2100F07AFA6022012340
:1052000004468DF807204F210DF10702284600F0D3
:105210006FFA002304448DF8073001230DF10702D3
:105220005021284600F064FA04440DF107020123DE
:105230005121284600F05CFA012304440DF10702D5
:105240005221284600F054FA73E7CC2101230DF1D6
:10525000070228468DF807103A2100F049FA002687
:10526000044601230DF107024F2128468DF80760FF
:1052700000F03EFA044401230DF1070250212846B4
:1052800000F036FA044401230DF1070251212846AB
:1052900000F02EFA012304440DF1070252212846A2
:1052A00000F026FA802304440DF1070253218DF803
:1052B00007302846012300F01BFA03460DF10702D0
:1052C00028461C44542101238DF8076000F010FA91
:1052D000204440E7CC2101230DF1070228468DF838
:1052E00007103A2100F004FA0022044601238DF849
:1052F00007204F210DF10702284600F0F9F901239C
:1053000004448BE7CC2101230DF1070228468DF8D8
:1053100007103A2100F0ECF90026044601230DF1B4
:1053200007024F2128468DF8076000F0E1F90123BC
:1053300004440DF107025021284600F0D9F920233A
:1053400004440DF107028DF807305121012328464E
:1053500000F0CEF9F02304448DF80730E0E6EC21AC
:10536000B6E600BF00B5103185B00D4A86460DEB9C
:10537000010C01AB07CA03C31A7055211CF808CCF5
:1053800001230DF103020EF118008DF803C000F0A7
:10539000AFF9003818BF0120404205B05DF804FBAA
:1053A000A8B6010800B5103185B00D4A86460DEB50
:1053B000010C01AB07CA03C31A7056211CF808CCB4
:1053C00001230DF103020EF118008DF803C000F067
:1053D0008FF9003818BF0120404205B05DF804FB8A
:1053E0009CAE030831F0020330B583B077D100F1F1
:1053F00018040D4601230DF107021221204600F08A
:105400006FF900286BD19DF80730022D03F0FC03E3
:1054100029D043F003010DF10702012320468DF846
:105420000710122100F064F9002858D101230DF172
:1054300007024021204600F053F900284FD19DF883
:10544000075001230DF10702402145F010052046C9
:105450008DF8075000F04CF9051E18BF01256D426C
:10546000284603B030BD43F002010DF107020123CD
:1054700020468DF80710122100F03AF978BB01237D
:105480000DF107023A21204600F02AF938BB9DF8B9
:10549000071001230DF10702204621F02C018DF8A1
:1054A00007103A2100F024F9C8B901230DF10702D1
:1054B0004021204600F014F90546A8B99DF80730B0
:1054C00023F0300363F03F038DF8073001230DF123
:1054D00007024021204600F00BF90028C0D04FF011
:1054E000FF35284603B030BD4FF0FF35EEE700BF73
:1054F00090F824300BB1002070470329F0B50E4618
:1055000083B027D832F00203174623D18022044605
:10551000012312218DF8072018300DF1070200F049
:10552000E7F8B8B963699847054663699847431B2C
:10553000C72BFAD931462046FFF7DEFC50B9394671
:105540002046FFF74FFF28B90123002084F82430BC
:1055500003B0F0BD4FF0FF30FAE700BF10B582B0E6
:105560000C46012332210DF10702183000F0B8F883
:1055700038B99DF80730A42B0DD0FF2B05D0122B86
:1055800007D04FF0FF3002B010BD0323236002B0FC
:1055900010BD0123FAE70346F8E700BF30B5044623
:1055A00083B00D4654F8183B984701230DF10702CC
:1055B0000A21204600F094F890B99DF807100123C5
:1055C0000DF107022046090229600B2100F088F83E
:1055D00030B92B689DF8072013432B6003B030BD12
:1055E0004FF0FF30FAE700BF032924D8012330B57C
:1055F00000F1180483B00D461E210DF1070220466C
:1056000000F06EF8A0B99DF807C0204601230DF107
:1056100007022CF0300444EA05118DF807101E2112
:1056200000F066F8003818BF0120404203B030BDDA
:105630004FF0FF30FAE74FF0FF30704730B500F120
:10564000180483B00D4601230DF107023B212046CB
:1056500000F046F8B8B99DF80730012D0DF10702AA
:105660004FF03B010CBF43F0800503F07F0520465F
:1056700001238DF8075000F03BF8003818BF0120D7
:10568000404203B030BD4FF0FF30FAE74FF0FF303B
:10569000704700BF4FF0FF30704700BFC0B10A89AC
:1056A00030B4D1E900340281C0E900344A69D1E95B
:1056B00003540949C560C0E90442084AC0E907101B
:1056C00082610BB130BC18474FF0FF3030BC7047DF
:1056D0004FF0FF30704700BFD94E0008E94E000878
:1056E00010B4D0E90140A4465DF8044B604700BF08
:1056F00010B404688068A4465DF8044B604700BF9E
:10570000134B1449D3F8E02042F4807270B5C3F80B
:10571000E02086B0D3F8E03001240F4A03F4807310
:1057200051F8205052F8206000930323009930462E
:1057300001A904930394CDE9015404F0C1FB304660
:105740002246A9B204F0C8FD002006B070BD00BF1B
:10575000004402580CB103081CB103080346064973
:10576000002231F8231010B5044C54F8200004F046
:10577000B3FD002010BD00BF0CB103081CB103082D
:1057800003460649012231F8231010B5044C54F8A1
:10579000200004F0A1FD002010BD00BF0CB10308E3
:1057A0001CB10308104A08B51368013B13600BB124
:1057B000002008BD4FF480510C4804F0C3FC0B4896
:1057C0004FF4005104F0BEFC094A0A48D2F8F43004
:1057D00023F08003C2F8F43004F046FF0028E7D03D
:1057E0006FF0070008BD00BF3C950024000C025874
:1057F00000440258E48A00240023012210B5C0E9C5
:105800000113C0E90323C0E90533C0E907330446A7
:1058100004F0D2FE08B1012010BD0146204605F07B
:10582000B1F90028F7D10146204605F0D5F9003836
:1058300018BF012010BD00BF9B4B9C489C4A2DE91E
:10584000F04F1C689DB002601CB100201DB0BDE887
:10585000F08F01221A6005F08FF90028F5D1954DDF
:105860004FF4805012210426D5F8E0304FF00008A4
:105870004FF0020943F00803C5F8E030D5F8E030F6
:1058800003F008031393139BD5F8E03043F00803AB
:10589000C5F8E030D5F8E0301A9603F00803CDE9FA
:1058A0001601149316A98448149BCDE9188904F0B5
:1058B00007FB12234FF4005216A97F481A96CDE930
:1058C0001623CDE9188904F0FBFAD5F8F43043F03B
:1058D0008003C5F8F430D5F8F43003F08003159355
:1058E000159BD5F89C3043F08003C5F89C30D5F863
:1058F0009C3023F08003C5F89C3006F0DDFD0028C5
:1059000000F0FF816D4B6FF01D0125464FF0100A2E
:1059100003EB50036A4E0194B3FBF0F740F6F61325
:1059200007EB47020097A3EB870C664BA1EB020E37
:105930007A0019682CEAEC7C02922EEAEE7E894607
:1059400022461191BCEB470FB84607EB47032CBF2B
:1059500001200020BEEB470F00F0010007EB87019C
:1059600088BF00209E4507EB830404908CBF002075
:1059700001209C450F94C7EBC70B38BF0020BEEB3E
:10598000870F069007EB4100059094BF012000208F
:10599000BCEB870F00F0010438BF00248E454FF0A8
:1059A000000007948CBF002401248C45039038BF6D
:1059B0000024BEEB430F98BF0120BCEB430F0894BB
:1059C0005C4600F0010038BF0020DE4509905846D3
:1059D0008CBF00200120DC4538BF0020BEEBC70F84
:1059E000834694BF4FF0010B4FF0000BBCEBC70F89
:1059F0000A900BF0010B38BF4FF0000B5846CDF862
:105A00002CB007EBC70BDE458CBF00200120DC4526
:105A100038BF0020BEEB410F0C9098BF4FF0010B38
:105A2000059888BF4FF0000BBCEB410F0BF0010B4A
:105A3000014638BF4FF0000B86458CBF0021012185
:105A40008445204638BF0021BEEB830F0D9194BFE3
:105A500001210021BCEB830F01F0010138BF0021BF
:105A60000E910F9971450B4634BF00230123614508
:105A700088BF0023BEEB440F0F9394BF0123002384
:105A8000BCEB440F4FF0000403F0010338BF0023C8
:105A90001093C7EB07139E458CBF002101219C4545
:105AA00038BF0021059113E03C950024E48A0024CE
:105AB000001C005800440258000C025800CA9A3BCF
:105AC0003C8B0024388B0024102CB84400F07682E4
:105AD00040F27931234601348845F5D9BAEB050106
