:020000040800F2
:100000000000082459A701088F4000089D400008FF
:10001000A5400008AD400008B54000080000000001
:10002000000000000000000000000000BD400008CB
:10003000CB40000800000000D9400008E74000085D
:10004000A9A70108A9A70108A9A70108A9A701084C
:10005000A9A70108A9A70108A9A70108A9A701083C
:10006000A9A70108A9A70108A9A70108A9A701082C
:10007000A9A70108A9A70108A9A70108A9A701081C
:10008000A9A70108A9A70108A9A70108A9A701080C
:10009000A9A70108A9A70108A9A701080941000803
:1000A000A9A70108A9A70108A9A70108A9A70108EC
:1000B000A9A70108A9A70108A9A70108A9A70108DC
:1000C000A9A70108A9A70108A9A70108A9A70108CC
:1000D000A9A70108A9A70108A9A70108A9A70108BC
:1000E000A9A70108A9A7010800000000A9A7010805
:1000F000A9A70108A9A70108A9A70108A9A701089C
:10010000A9A70108A9A70108A9A70108A9A701088B
:10011000A9A70108A9A70108A9A70108A9A701087B
:10012000A9A70108A9A70108A9A701081741000864
:10013000A9A70108A9A70108A9A70108A9A701085B
:1001400000000000000000000000000000000000AF
:10015000A9A70108A9A70108A9A70108A9A701083B
:10016000A9A70108A9A70108A9A70108A9A701082B
:10017000A9A70108A9A70108234100080000000061
:10018000A9A70108A9A70108A9A70108A9A701080B
:10019000A9A70108A9A70108A9A70108A9A70108FB
:1001A000A9A70108A9A7010845410008A9A70108B6
:1001B000A9A70108A9A70108A9A70108A9A70108DB
:1001C000A9A70108A9A70108A9A70108A9A70108CB
:1001D000A9A70108F5400008A9A70108A9A70108D7
:1001E000A9A70108A9A70108A9A70108A9A70108AB
:1001F000A9A70108A9A70108A9A70108A9A701089B
:10020000A9A70108A9A70108A9A70108A9A701088A
:10021000A9A70108A9A70108A9A70108A9A701087A
:10022000A9A70108A9A701083141000800000000A2
:10023000A9A70108A9A7010800000000A9A70108B3
:10024000A9A70108A9A70108A9A70108A9A701084A
:10025000A9A70108A9A70108A9A70108A9A701083A
:10026000A9A70108A9A70108A9A70108A9A701082A
:10027000A9A70108A9A70108A9A701080000000073
:10028000A9A70108A9A70108A9A701080000000063
:0802900000000000A9A701080D
:1002A00010B5054C237833B9044B13B10448AFF3B0
:1002B00000800123237010BD00000020000000001A
:1002C0005055020808B5034B1BB103490348AFF36F
:1002D000008008BD00000000040000205055020806
:1002E00001F0FF01102A2BDB10F0070F08D010F8E7
:1002F000013B013A8B422DD010F0070F42B3F6D1EB
:10030000F0B441EA012141EA014122F007047FF003
:1003100000070023F0E80256083C85EA010586EA5A
:10032000010685FA47F5A3FA87F586FA47F6A5FA96
:1003300087F68EB9EED1F0BC01F0FF0102F00702A2
:1003400032B110F8013B013A83EA010313B1F8D14D
:100350000020704701387047002D06BF354603382E
:10036000073815F0010F07D1013015F4807F02BF67
:10037000013015F4C03F0130F0BC0138704700BFB8
:10038000034613F8012B002AFBD1181A01387047D5
:1003900007EE900AF5EEC07AF1EE10FA01D400F003
:1003A0000BB8F1EE677A08B517EE900A00F004F882
:1003B000404261EB410108BD9FED0B6B07EE100A57
:1003C0009FED0B5BB7EEC77A27EE066BBCEEC66BF4
:1003D000B8EE464BA4EE457BFCEEC77B16EE101A3A
:1003E00017EE900A704700BF000000000000F03DCB
:1003F000000000000000F04180B582B000AF7860DE
:1004000039603A6801218F481AF07AFA0346002BC6
:1004100001F065818B4B1A688B4B13448B4A9360B8
:10042000884B1A68884B1344884AD360854B1A68F6
:10043000874B1344874A9360824B1A68844B13445A
:10044000844AD3607F4B1A68834B1344834A93607A
:100450007C4B1A68804B1344804AD360794B1A68EE
:100460007D4B13447E4A9360764B1A687A4B134453
:100470007B4AD360734B1A687A4B13447A4A936071
:10048000704B1A68774B1344774AD3606D4B1A68E8
:10049000764B1344764A93606A4B1A68734B134445
:1004A000734AD360674B1A68724B1344724A936065
:1004B000644B1A686F4B13446F4AD360614B1A68E0
:1004C0006C4B13446D4A93605E4B1A68694B13443E
:1004D0006A4AD3605B4B1A68694B1344694A93605C
:1004E000584B1A68664B1344664AD360554B1A68DA
:1004F000654B1344654A9360524B1A68624B134430
:10050000624AD3604F4B1A68614B1344614A93604F
:100510004C4B1A685E4B13445E4AD360494B1A68D1
:1005200041F6306313445C4A9360464B1A6841F6C7
:1005300030631344584AD360424B1A6841F6306323
:100540001344564A93603F4B1A6841F63063134494
:10055000524AD3603B4B1B6803F5C063504A93601B
:10056000384B1B6803F5C0634D4AD360354B1A689E
:100570004C4B13444C4A9360324B1A68494B13441A
:10058000494AD3602F4B1B68484A93602D4B1B6828
:10059000464AD3602B4B1B68454A9360294B1B6826
:1005A000434AD360274B1B6803F54043414A93609D
:1005B000244B1B6803F540433E4AD360214B1A6825
:1005C0004CF2101313443C4A93601E4B1A684CF2D1
:1005D00010131344384AD3601A4B1B68374A936090
:1005E000184B1B68354AD360164B1A684EF210132D
:1005F0001344334A9360134B1A684EF2101313449A
:100600002F4AD3600F4B1A682E4B13442E4A936027
:100610000C4B1A682B4B13442B4AD360094B1A68B6
:100620002A4B13442A4A9360064B1A68274B1344FB
:10063000274AD360034B1B68264A9360014B1B6813
:100640004AE000BF1C00002080E50100A005003842
:1006500084A50200700E003874A10100800E0038DD
:10066000C005003834910100E005003874A1020093
:10067000900E0038348D0100A00E003800060038BE
:10068000A0A90200B00E003830AA020020060038EF
:10069000302A0300C00E0038D00E00384006003863
:1006A000600600383C250300E00E0038F00E0038EC
:1006B00080060038000F0038A0060038100F003800
:1006C000200F003810A10100C0060038508801003A
:1006D000E0060038300F0038944AD360944B1A6813
:1006E000944B1344944A9360914B1A68914B134472
:1006F000914AD3608E4B1A688E4B13448F4A936095
:100700008B4B1A688B4B13448C4AD360884B1B6805
:100710008B4A9360864B1B68894AD360844B1B6865
:1007200003F58873874A9360814B1B6803F58873D0
:10073000844AD3607E4B1A6842F210131344824AF3
:1007400093607B4B1A6842F2101313447E4AD360C5
:10075000774B1B687D4A9360754B1B687B4AD3605F
:10076000734B1A6844F210131344794A9360704B28
:100770001A6844F210131344754AD3606C4B1A681C
:10078000744B1344744A9360694B1A68714B134459
:10079000714AD360664B1B68704A9360644B1B6858
:1007A0006E4AD360624B1A684CF6304313446C4A6D
:1007B00093605F4B1A684CF630431344684AD36029
:1007C0005B4B1A684DF224331344664A9360584BCE
:1007D0001A684DF224331344624AD360544B1A68AA
:1007E000614B1344614A9360514B1A685E4B13444A
:1007F0005E4AD3604E4B1B685D4A93604C4B1B684E
:100800005B4AD3604A4B1B6803F5B073594A936047
:10081000474B1B6803F5B073564AD360444B1B68C3
:1008200003F58B53544A9360414B1B6803F58B537C
:10083000514AD3603E4B1B6803F5AB534F4A93605C
:100840003B4B1B6803F5AB534C4AD360384B1A68DB
:1008500047F2605313444A4A9360354B1A6847F293
:1008600060531344464AD360314B1A684DF26053CB
:100870001344444A93602E4B1A684DF2605313445C
:10088000404AD3602A4B1B6803F58B533E4A936062
:10089000274B1B6803F58B533B4AD360244B1A68E4
:1008A00041F644731344394A9360214B1A6841F668
:1008B00044731344354AD3601D4B1A68344B1344B8
:1008C000344A93601A4B1A68314B1344314AD3604F
:1008D000174B1B6803F58B532F4A9360144B1B680F
:1008E00003F58B532C4AD360114B1B6803F59C53C3
:1008F0002A4A93600E4B1B6803F59C53274AD3602A
:100900000B4B1B6803F50E53254A9360084B1B687D
:1009100003F50E53224AD360054B1B68214A9360AE
:10092000034B1B681F4AD3603EE000BF300F003806
:100930001C00002010610200400F00380007003842
:10094000500F00382007003840070038600F00388B
:10095000700F003810010100600700388007003870
:10096000800F0038900F003824030100A0070038E2
:10097000A00F0038C0070038B00F0038D00F003883
:10098000E007003800080038F00F00381010003879
:10099000E04E0100200800383010003840080038D0
:1009A0006008003850100038994B1B6803F54E530F
:1009B000984A9360964B1B6803F54E53954AD36053
:1009C000934B1A6849F280331344934A9360904BD7
:1009D0001A6849F2803313448F4AD3608C4B1A68EB
:1009E0004FF2803313448D4A9360894B1A684FF25B
:1009F00080331344894AD360854B1B68884A9360CF
:100A0000834B1B68864AD360814B1B6803F54E53AA
:100A1000844A93607E4B1B6803F54E53814AD36032
:100A20007B4B1A6849F2803313447F4A9360784BBA
:100A30001A6849F2803313447B4AD360744B1B68B5
:100A40007A4A9360724B1B68784AD360704B1B687C
:100A500003F50873764A93606D4B1B6803F50873C2
:100A6000734AD3606A4B1B6803F59153714A9360D4
:100A7000674B1B6803F591536E4AD360644B1B6848
:100A80006D4A9360624B1B686B4AD360604B1A6877
:100A900042F220231344694A93605D4B1A6842F284
:100AA00020231344654AD360594B1A6848F2202327
:100AB0001344634A9360564B1A6848F22023134448
:100AC0005F4AD360524B1B685E4A9360504B1B6871
:100AD0005C4AD3604E4B1A6846F6604313445A4A48
:100AE00093604B4B1A6846F660431344564AD360F2
:100AF000474B1A6847F644231344544A9360444BC7
:100B00001A6847F644231344504AD360404B1A688E
:100B100049F2442313444E4A93603D4B1A6849F20C
:100B2000442313444A4AD360394B1B68494A9360B3
:100B3000374B1B68474AD360354B1B6803F51C7362
:100B4000454A9360324B1B6803F51C73424AD360DD
:100B50002F4B1B6803F50763404A93602C4B1B68BF
:100B600003F507633D4AD360294B1B6803F56763B0
:100B70003B4A9360264B1B6803F56763384AD36092
:100B8000234B1A6843F270231344364A9360204B78
:100B90001A6843F270231344324AD3601C4B1A681C
:100BA00045F270631344304A9360194B1A6845F25A
:100BB000706313442C4AD360154B1B6803F507631D
:100BC0002A4A9360124B1B6803F50763274AD360D8
:100BD0000F4B1A6841F644531344254A93600C4B5B
:100BE0001A6841F644531344214AD360084B1A68EB
:100BF00048F6B06313441F4A9360054B1A6848F6E1
:100C0000B06313441B4AD360014B1B6834E000BF40
:100C10001C00002070100038700800389008003860
:100C200090100038B0100038A0080038D0100038FC
:100C3000C0080038D0080038F01000381011003813
:100C4000F008003800090038301100385011003821
:100C50002009003810000038300900384000003802
:100C60005000003850090038600900388000003812
:100C7000900000388009003803F50763974A9360B5
:100C8000974B1B6803F50763944AD360944B1B682A
:100C900003F53A63934A9360914B1B6803F53A63FB
:100CA000904AD3608E4B1B6803F58D538E4A936038
:100CB0008B4B1B6803F58D538B4AD360884B1B68A5
:100CC0008A4A9360864B1B68884AD360844B1B68B2
:100CD00003F5BD53864A9360814B1B6803F5BD53F2
:100CE000834AD3607E4B1A6843F6A0331344814A8B
:100CF00093607B4B1A6843F6A03313447D4AD3605C
:100D0000774B1A6845F6A07313447B4A9360744B83
:100D10001A6845F6A0731344774AD360704B1B687A
:100D200003F5BD53754A93606D4B1B6803F5BD53C6
:100D3000724AD3606A4B1A6842F674431344704A8D
:100D40009360674B1A6842F6744313446C4AD3604D
:100D5000634B1A6849F2E07313446A4A9360604B2C
:100D60001A6849F2E0731344664AD3605C4B1B680F
:100D7000654A93605A4B1B68634AD360584B1B68A3
:100D800003F54C73614A9360554B1B6803F54C7334
:100D90005E4AD360524B1B6803F513635C4A936051
:100DA0004F4B1B6803F51363594AD3604C4B1B68C8
:100DB000584A93604A4B1B68564AD360484B1B689D
:100DC00003F57363544A9360454B1B6803F57363E3
:100DD000514AD360424B1A6843F2303313444F4AAE
:100DE00093603F4B1A6843F2303313444B4AD3604D
:100DF0003B4B1A6845F230731344494A9360384BB1
:100E00001A6845F230731344454AD360344B1B686B
:100E100003F57363434A9360314B1B6803F57363B7
:100E2000404AD3602E4B1A6842F2044313443E4AB0
:100E300093602B4B1A6842F2044313443A4AD3603E
:100E4000274B1A6848F670731344384A9360244B52
:100E50001A6848F670731344344AD360204B1B68F9
:100E6000334A93601E4B1B68314AD3601C4B1B688E
:100E700003F54C732F4A9360194B1B6803F54C73B1
:100E80002C4AD360164B1B6803F573632A4A9360A0
:100E9000134B1B6803F57363274AD360104B1B6821
:100EA000264A93600E4B1B68244AD3600C4B1A6889
:100EB00041F230531344224A9360094B1A6841F2BD
:100EC000305313441E4AD360054B1A6843F630135F
:100ED00013441C4A9360024B1A6835E0C000003886
:100EE0001C00002090090038B0090038E0000038EC
:100EF00000010038C0090038E0090038200100383E
:100F000040010038F009003860010038100A00384C
:100F1000200A003880010038A0010038400A00385B
:100F2000500A0038C0010038E0010038700A00386B
:100F300000020038800A0038A00A00382002003879
:100F400040020038B00A003843F630131344984A80
:100F5000D360984B1B68984A9360964B1B68964ADF
:100F6000D360944B1B6803F56153944A9360914B93
:100F70001B6803F56153914AD3608E4B1A6844F69F
:100F8000145313448E4A93608A4B1A6844F61453E0
:100F900013448B4AD360874B1A6847F214131344E7
:100FA000884A9360834B1A6847F214131344854AA6
:100FB000D360804B1B68844A93607E4B1B68824AD7
:100FC000D3607C4B1B6803F56073804A9360794B58
:100FD0001B6803F560737D4AD360764B1B6803F58D
:100FE00038637B4A9360734B1B6803F53863784A18
:100FF000D360704B1B6803F59C53764A93606D4B2E
:101000001B6803F59C53734AD3606A4B1B6803F556
:101010008743714A9360674B1B6803F587436E4AA9
:10102000D360644B1B6803F5E7436C4A9360614BE4
:101030001B6803F5E743694AD3605E4B1B6803F501
:101040003863674A93605B4B1B6803F53863644AF7
:10105000D360584B1A6842F244731344614A936058
:10106000544B1A6842F2447313445E4AD360514BA6
:101070001A684BF6806313445B4A93604D4B1A68C1
:101080004BF680631344584AD3604A4B1B6803F500
:101090003863564A9360474B1B6803F53863534ADD
:1010A000D360444B1B6803F57C63514A9360414B0A
:1010B0001B6803F57C634E4AD3603E4B1B6803F507
:1010C000BE534C4A93603B4B1B6803F5BE53494AE1
:1010D000D360384B1B68484A9360364B1B68464ABE
:1010E000D360344B1B6803F5FE53444A9360314B85
:1010F0001B6803F5FE53414AD3602E4B1A6844F631
:10110000C07313443E4A93602A4B1A6844F6C07376
:1011100013443B4AD360274B1A6847F6C073134405
:10112000384A9360234B1A6847F6C0731344354A14
:10113000D360204B1B6803F5FE53334A93601D4B6D
:101140001B6803F5FE53304AD3601A4B1A6843F606
:10115000843313442D4A9360164B1A6843F6843344
:1011600013442A4AD360134B1A684CF6C023134425
:10117000274A93600F4B1A684CF6C0231344244A45
:10118000D3600C4B1B68234A93600A4B1B68214AAF
:10119000D360084B1B6803F588631F4A9360054BB7
:1011A0001B6803F588631C4AD360024B1B6835E05B
:1011B000B00A00381C000020D00A00386002003855
:1011C00080020038E00A0038A0020038000B003826
:1011D000D0020038E0020038100B0038300B003825
:1011E0001003003820030038400B0038500300384B
:1011F000600B0038700B0038700300389003003823
:10120000900B0038A00B0038B0030038D003003832
:10121000C00B0038F0030038D00B003803F54463EE
:10122000994A9360994B1B6803F54463964AD360CF
:10123000964B1B68964A9360944B1B68944AD36004
:10124000924B1B6803F5A253924A93608F4B1B6825
:1012500003F5A2538F4AD3608C4B1A6844F2404383
:1012600013448D4A9360894B1A6844F240431344F7
:10127000894AD360854B1B68884A9360834B1B68FF
:10128000864AD360814B1B6803F57353844A93608D
:101290007E4B1B6803F57353814AD3607B4B1A68FE
:1012A00045F6840313447F4A9360784B1A6845F6E9
:1012B000840313447B4AD360744B1A6846F2844318
:1012C0001344794A9360714B1A6846F2844313447D
:1012D000754AD3606D4B1B68744A93606B4B1B68F7
:1012E000724AD360694B1B6803F5A663704A93602A
:1012F000664B1B6803F5A6636D4AD360634B1B689E
:1013000003F50B636B4A9360604B1B6803F50B633B
:10131000684AD3605D4B1A6841F2B0631344664A71
:1013200093605A4B1A6841F2B0631344624AD36027
:10133000564B1A6842F6B0331344604A9360534BDD
:101340001A6842F6B03313445C4AD3604F4B1A68B4
:1013500044F2B00313445A4A93604C4B1A6844F267
:10136000B0031344564AD360484B1B6803F50B6324
:10137000544A9360454B1B6803F50B63514AD36095
:10138000424B1A6846F6F07313444F4A93603F4B42
:101390001A6846F6F07313444B4AD3603B4B1A6805
:1013A00048F2F0431344494A9360384B1A6848F2B4
:1013B000F0431344454AD360344B1B6803F50B6379
:1013C000434A9360314B1B6803F50B63404AD3607B
:1013D0002E4B1B683F4A93602C4B1B683D4AD360E1
:1013E0002A4B1B6803F50B633B4A9360274B1B6832
:1013F00003F50B63384AD360244B1B6803F5436342
:10140000364A9360214B1B6803F54363334AD3602C
:101410001E4B1A6841F630231344314A93601B4B2C
:101420001A6841F6302313442D4AD360174B1A68CB
:1014300042F6307313442B4A9360144B1A6842F6F9
:1014400030731344274AD360104B1A6844F2304378
:101450001344254A93600D4B1A6844F230431344F9
:10146000214AD360094B1B6803F543631F4A93600D
:10147000064B1B6803F543631C4AD360034B1A6891
:1014800047F27033134433E0F00B00381C000020A7
:101490001004003830040038000C0038200C0038EC
:1014A0005004003870040038300C003890040038C4
:1014B000500C0038B0040038D0040038600C0038FC
:1014C000800C0038F004003810050038900C00380B
:1014D00030050038B00C0038C00C0038600500380A
:1014E00070050038E00C0038F00C0038B00500380A
:1014F000804A9360804B1A6847F2703313447D4AE8
:10150000D3607D4B1A6848F6700313447B4A93609E
:10151000794B1A6848F670031344784AD360764BC7
:101520001B68774A9360744B1B68754AD360724B93
:101530001B6803F54363734A93606F4B1B6803F5A5
:101540004363704AD3606C4B1B686F4A93606A4B6D
:101550001B686D4AD360684B1B6803F560736B4A68
:101560009360654B1B6803F56073684AD360624BF8
:101570001B6803F58C53664A93605F4B1B6803F549
:101580008C53634AD3605C4B1B6803F51A53614A62
:101590009360594B1B6803F51A535E4AD360564B50
:1015A0001B6803F56E535C4A9360534B1B6803F54D
:1015B0006E53594AD360504B1B68584A93604E4B48
:1015C0001B68564AD3604C4B1A6846F6C023134436
:1015D000534A9360484B1A6846F6C0231344504A56
:1015E000D360454B1A6847F6C07313444D4A936065
:1015F000414B1A6847F6C07313444A4AD3603E4BC6
:101600001B68494A93603C4B1B68474AD3603A4B7E
:101610001B6803F51A63454A9360374B1B6803F553
:101620001A63424AD360344B1B6803F58553404A22
:101630009360314B1B6803F585533D4AD3602E4BB5
:101640001A6844F2604313443A4A93602A4B1A687A
:1016500044F260431344374AD360274B1A6849F277
:1016600060431344344A9360234B1A6849F2604341
:101670001344314AD360204B1B68304A93601E4BA1
:101680001B682E4AD3601C4B1B6803F5A0632C4AD1
:101690009360194B1B6803F5A063294AD360164B6E
:1016A0001B6803F57063274A9360134B1B6803F5AF
:1016B0007063244AD360104B1B68234A93600E4B1F
:1016C0001B68214AD3600C4B1B6814331F4A93607C
:1016D000094B1B6814331D4AD360012305E0132214
:1016E0003021786819F08AFA002318460837BD4679
:1016F00080BD00BFF00500381C000020100D003830
:1017000030060038200D0038400D003870060038D3
:10171000B0060038500D0038700D0038F006003863
:1017200030070038800D003870070038A00D0038F1
:10173000B0070038F0070038B00D0038D00D003881
:1017400030080038E00D0038000E0038100E003868
:1017500080B582B000AF786039603A68012198485E
:1017600019F076F80346002B01F0E480954B1B68D6
:1017700043F08043934A1360914B1B68914A9360F6
:101780008F4B1B688F4AD3608F4B1B6843F080439D
:101790008D4A13608A4B1B68C0338B4A9360884B19
:1017A0001B68C033884AD360884B1B6843F0804372
:1017B000864A1360824B1B6803F51C73834A93604F
:1017C0007F4B1B6803F51C73804AD360804B1B68FA
:1017D00043F080437E4A1360794B1B6803F54C73DA
:1017E0007B4A9360764B1B6803F54C73784AD36051
:1017F000784B1B6843F08043764A1360704B1B683C
:1018000003F59663734A93606D4B1B6803F596630B
:10181000704AD360704B1B6843F080436E4A13607C
:10182000674B1B6803F59A636B4A9360644B1B68B4
:1018300003F59A63684AD360684B1B6843F08043A2
:10184000664A13605E4B1B6803F5CA63634A936084
:101850005B4B1B6803F5CA63604AD360604B1B682F
:1018600043F080435E4A1360554B1B6803F5E26307
:101870005B4A9360524B1B6803F5E263584AD3609E
:10188000584B1B6843F08043564A13604C4B1B680F
:1018900003F50C63534A9360494B1B6803F50C63D3
:1018A000504AD360504B1B6843F080434E4A13604C
:1018B000434B1B6803F518634B4A9360404B1B680E
:1018C00003F51863484AD360484B1B6843F08043D4
:1018D000464A13603A4B1B6803F54863434A9360DA
:1018E000374B1B6803F54863404AD360404B1B6885
:1018F00043F080433E4A1360314B1B6803F54C6351
:101900003B4A93602E4B1B6803F54C63384AD36007
:10191000384B1B6843F08043364A1360284B1B68E2
:1019200003F59653334A9360254B1B6803F5965392
:10193000304AD360304B1B6843F080432E4A13601B
:101940001F4B1B6803F5A2532B4A93601C4B1B686B
:1019500003F5A253284AD360284B1B6843F0804309
:10196000264A1360164B1B6803F5BD53234A936048
:10197000134B1B6803F5BD53204AD360204B1B68F3
:1019800043F080431E4A13600D4B1B6803F5C95397
:101990001B4A93600A4B1B6803F5C953184AD3606E
:1019A000184B1B6843F08043164A1360044B1B68B6
:1019B00003F5F953134A9360014B1B6824E000BF01
:1019C00020000020000000382000003830000038DF
:1019D0006000003870000038A0000038B000003807
:1019E000D0000038F0000038100100383001003815
:1019F000500100387001003890010038B001003803
:101A0000D0010038F001003803F5F9539B4AD36048
:101A10009B4B1B6843F08043994A1360994B1B68AA
:101A200003F5FB53964A9360964B1B6803F5FB53F3
:101A3000934AD360944B1B6843F08043924A1360EF
:101A4000904B1A6842F2605313448F4A93608D4B57
:101A50001A6842F2605313448B4AD3608B4B1B6865
:101A600043F08043894A1360864B1A6842F2E06370
:101A70001344864A9360834B1A6842F2E06313442E
:101A8000824AD360824B1B6843F08043804A1360D4
:101A90007C4B1B6803F529537D4A9360794B1B6887
:101AA00003F529537A4AD3607A4B1B6843F080438D
:101AB000784A1360734B1B6803F52F53754A936084
:101AC000704B1B6803F52F53724AD360724B1B682F
:101AD00043F08043704A13606A4B1B6803F5475319
:101AE0006D4A9360674B1B6803F547536A4AD3609E
:101AF0006A4B1B6843F08043684A1360614B1B6864
:101B000003F54853654A93605E4B1B6803F54853E1
:101B1000624AD360624B1B6843F08043604A1360A3
:101B2000584B1B6803F560535D4A9360554B1B6827
:101B300003F560535A4AD3605A4B1B6843F0804305
:101B4000584A13604F4B1B6803F56653554A936020
:101B50004C4B1B6803F56653524AD360524B1B68CB
:101B600043F08043504A1360464B1A6843F6E04303
:101B700013444D4A9360434B1A6843F6E0431344C1
:101B8000494AD360494B1B6843F08043474A13607E
:101B90003C4B1A6843F660631344444A9360394BE4
:101BA0001A6843F660631344404AD360404B1B6895
:101BB00043F080433E4A1360324B1A6844F260732C
:101BC00013443B4A93602F4B1A6844F260731344EA
:101BD000374AD360374B1B6843F08043354A136064
:101BE000284B1A6844F2C0731344324A9360254B61
:101BF0001A6844F2C07313442E4AD3602E4B1B68FC
:101C000043F080432C4A13601E4B1A6845F2405340
:101C10001344294A93601B4B1A6845F240531344FE
:101C2000254AD360254B1B6843F08043234A136049
:101C3000144B1B6803F5AF43204A9360114B1B689C
:101C400003F5AF431D4AD3601D4B1B6843F080432F
:101C50001B4A13600B4B1A6845F690431344184A0D
:101C60009360084B1A6845F690431344144AD360B6
:101C7000144B1B6843F0804326E000BFF00100389E
:101C800010020038200000203002003850020038D6
:101C90007002003890020038B0020038C0020038EC
:101CA000F0020038000300383003003840030038E9
:101CB0006003003880030038A0030038C0030038F8
:101CC000E0030038000400389E4A13609E4B1A68F7
:101CD00045F6D06313449B4A93609B4B1A6845F6C4
:101CE000D0631344974AD360984B1B6843F08043FA
:101CF000964A1360944B1A6846F650431344934A2D
:101D00009360914B1A6846F6504313448F4AD36050
:101D10008F4B1B6843F080438D4A13608A4B1A68CF
:101D200046F6B04313448A4A9360874B1A6846F6D6
:101D3000B0431344864AD360864B1B6843F080430C
:101D4000844A1360804B1A6847F630231344814A53
:101D500093607D4B1A6847F6302313447D4AD36065
:101D60007D4B1B6843F080437B4A1360764B1A68B7
:101D700047F670431344784A9360734B1A6847F6EA
:101D800070431344744AD360744B1B6843F0804320
:101D9000724A13606C4B1A6848F2801313446F4AFE
:101DA0009360694B1A6848F2801313446B4AD360FE
:101DB0006B4B1B6843F08043694A1360624B1A689F
:101DC00048F2C0331344664A93605F4B1A6848F286
:101DD000C0331344624AD360624B1B6843F08043B4
:101DE000604A1360584B1A6849F2401313445D4A25
:101DF0009360554B1A6849F240131344594AD36013
:101E0000594B1B6843F08043574A13604E4B1A6886
:101E100049F2A0131344544A93604B4B1A6849F299
:101E2000A0131344504AD360504B1B6843F08043C7
:101E30004E4A1360444B1A6849F6207313444B4AC8
:101E40009360414B1A6849F620731344474AD360A4
:101E5000474B1B6843F08043454A13603A4B1A686E
:101E60004AF260131344424A9360374B1A684AF2AD
:101E7000601313443E4AD3603E4B1B6843F08043DB
:101E80003C4A1360304B1A684AF270631344394A73
:101E900093602D4B1A684AF270631344354AD3603D
:101EA000354B1B6843F08043334A1360264B1A6856
:101EB0004AF6B0031344304A9360234B1A684AF63B
:101EC000B00313442C4AD3602C4B1B6843F080436F
:101ED0002A4A13601C4B1A684BF230631344274A9A
:101EE0009360194B1A684BF230631344234AD36052
:101EF000234B1B6843F08043214A1360124B1A683E
:101F00004BF2906313441E4A93600F4B1A684BF2D6
:101F1000906313441A4AD3601A4B1B6843F0804302
:101F2000184A1360084B1A684CF210431344154AC0
:101F30009360054B1A684CF210431344114AD36066
:101F400022E000BF000400382000002020040038F8
:101F5000400400386004003880040038A0040038D1
:101F6000C0040038E00400380005003820050038BF
:101F700040050038500500388005003890050038CD
:101F8000D005003810060038954B1B6843F080439D
:101F9000934A1360934B1A684CF250631344904A6F
:101FA0009360904B1A684CF2506313448C4AD36090
:101FB0008D4B1B6843F080438B4A1360894B1A6832
:101FC0004CF660331344884A9360864B1A684CF68B
:101FD00060331344844AD360844B1B6843F08043CE
:101FE000824A13607F4B1A684CF6A05313447F4A11
:101FF00093607C4B1A684CF6A05313447B4AD36021
:102000007B4B1B6843F08043794A1360754B1A6819
:102010004DF6A0731344764A9360724B1A684DF6DE
:10202000A0731344724AD360724B1B6843F0804321
:10203000704A13606B4B1A684EF2200313446D4ACA
:102040009360684B1A684EF220031344694AD360C8
:10205000694B1B6843F08043674A1360614B1A6801
:102060004FF620031344644A93605E4B1A684FF6A0
:1020700020031344604AD360604B1B6843F08043E5
:102080005E4A1360574B1A684FF6203313445B4A7D
:102090009360544B1A684FF620331344574AD36069
:1020A000574B1B6843F08043554A13604D4B1A68E9
:1020B000544B1344524A93604A4B1A68514B134491
:1020C0004F4AD360504B1B6843F080434E4A136025
:1020D000444B1A684D4B13444B4A9360414B1A686A
:1020E0004A4B1344484AD360494B1B6843F0804332
:1020F000474A13603B4B1A68464B1344444A93606B
:10210000384B1A68434B1344414AD360424B1B6817
:1021100043F08043404A1360324B1A683F4B1344EC
:102120003D4A93602F4B1A683C4B13443A4AD360A4
:102130003B4B1B6843F08043394A1360294B1A68B4
:10214000384B1344364A9360264B1A68354B134478
:10215000334AD360344B1B6843F08043324A1360E8
:10216000204B1A68314B13442F4A93601D4B1A6859
:102170002E4B13442C4AD3602D4B1B6843F08043F5
:102180002B4A1360174B1A682A4B1344284A936052
:10219000144B1A68274B1344254AD360264B1B68FF
:1021A00043F08043244A13600E4B1A68234B1344B8
:1021B000214A93600B4B1A68204B13441E4AD3608C
:1021C0001F4B1B6843F080431D4A1360054B1A6880
:1021D0001C4B13441A4A9360024B1A6834E000BF48
:1021E000500600382000002090060038D006003845
:1021F000100700385007003890070038D007003823
:1022000010080038E001010050080038E004010027
:1022100080080038E01C0100B0080038601D010093
:10222000E00800386035010010090038603801000E
:1022300040090038203F01007009003820420100A9
:10224000A0090038205A01008F4B13448F4AD360F5
:102250008F4B1B6843F080438D4A13608D4B1A6887
:102260008D4B13448A4A93608A4B1A688A4B1344F5
:10227000874AD360894B1B6843F08043874A1360C9
:10228000844B1A68864B1344844A9360814B1A68C6
:10229000834B1344814AD360824B1B6843F08043D5
:1022A000804A13607B4B1A687F4B13447D4A9360CE
:1022B000784B1A687C4B13447A4AD3607B4B1B687B
:1022C00043F08043794A1360724B1A68784B134489
:1022D000764A93606F4B1A68754B1344734AD36008
:1022E000744B1B6843F08043724A1360694B1A6851
:1022F000714B13446F4A9360664B1A686E4B1344DC
:102300006C4AD3606D4B1B6843F080436B4A13608B
:10231000604B1A686A4B1344684A93605D4B1A68B5
:10232000674B1344654AD360664B1B6843F0804398
:10233000644A1360574B1A68634B1344614A9360B5
:10234000544B1A68604B13445E4AD3605F4B1B6862
:1023500043F080435D4A13604E4B1A685C4B134454
:102360005A4A93604B4B1A68594B1344574AD360EF
:10237000584B1B6843F08043564A1360454B1A681C
:10238000554B1344534A9360424B1A68524B1344C3
:10239000504AD360514B1B6843F080434F4A13604F
:1023A0003C4B1A684E4B13444C4A9360394B1A68A5
:1023B0004B4B1344494AD3604A4B1B6843F080435C
:1023C000484A1360334B1A68474B1344454A93609D
:1023D000304B1A68444B1344424AD360434B1B684A
:1023E00043F08043414A13602A4B1A68404B134420
:1023F0003E4A9360274B1A683D4B13443B4AD360D7
:102400003C4B1B6843F080433A4A1360214B1A68E7
:10241000394B1344374A93601E4B1A68364B1344AA
:10242000344AD360354B1B6843F08043334A136012
:10243000184B1A68324B1344304A9360154B1A6894
:102440002F4B13442D4AD3602E4B1B6843F080431F
:102450002C4A13600F4B1A682B4B1344294A936084
:102460000C4B1A68284B1344264AD360274B1B6831
:1024700043F08043254A1360064B1A68244B1344EB
:10248000224A936046E000BF205A0100A0090038AC
:10249000D009003820000020A05A0100000A0038AE
:1024A000A0720100300A0038A0750100600A0038EF
:1024B000607C0100900A0038607F0100C00A00388B
:1024C00060A90100F00A003840AA0100200B003882
:1024D000C0F30100500B003800F90100800B0038F8
:1024E000D0040200B00B0038100A0200E00B0038E4
:1024F00090530200100C003870540200400C003859
:10250000F09D0200700C003830A30200A00C0038CF
:1025100000AF02008E4B1A688E4B13448E4AD36074
:102520008E4B1B6843F080438C4A1360884B1A68BB
:102530008B4B1344894A9360854B1A68884B13442C
:10254000864AD360874B1B6843F08043854A1360FB
:102550007F4B1A68844B1344824A93607C4B1A6801
:10256000814B13447F4AD360804B1B6843F0804308
:102570007E4A1360764B1A687D4B13447B4A936006
:10258000734B1A687A4B1344784AD360794B1B68B3
:1025900043F08043774A13606D4B1A68764B1344BF
:1025A000744A93606A4B1A68734B1344714AD36040
:1025B000724B1B6843F08043704A1360644B1A6887
:1025C0006F4B13446D4A9360614B1A686C4B134414
:1025D0006A4AD3606B4B1B6843F08043694A1360BF
:1025E0005B4B1A68684B1344664A9360584B1A68F1
:1025F000654B1344634AD360644B1B6843F08043CC
:10260000624A1360524B1A68614B13445F4A9360ED
:102610004F4B1A685E4B13445C4AD3605D4B1B689A
:1026200043F080435B4A1360494B1A685A4B13448A
:10263000584A9360464B1A68574B1344554AD36027
:10264000564B1B6843F08043544A1360404B1A6852
:10265000534B1344514A93603D4B1A68504B1344FB
:102660004E4AD3604F4B1B6843F080434D4A136082
:10267000374B1A684C4B13444A4A9360344B1A68E0
:10268000494B1344474AD360484B1B6843F080438F
:10269000464A13602E4B1A68454B1344434A9360D5
:1026A0002B4B1A68424B1344404AD360414B1B6882
:1026B00043F080433F4A1360254B1A683E4B134456
:1026C0003C4A9360224B1A683B4B1344394AD3600F
:1026D0003A4B1B6843F08043384A13601C4B1A681E
:1026E000374B1344354A9360194B1A68344B1344E3
:1026F000324AD360334B1B6843F08043314A136046
:10270000134B1A68304B13442E4A9360104B1A68CF
:102710002D4B13442B4AD3602C4B1B6843F0804352
:102720002A4A13600A4B1A68294B1344274A9360BC
:10273000074B1A68264B1344244AD360254B1B6869
:1027400043F08043234A1360014B1A6844E000BF02
:102750002000002000AF0200A00C0038D00C003890
:1027600040B40200000D0038C0FD0200300D0038FA
:10277000A0FE0200600D003820480300900D0038D4
:10278000604D0300C00D003830590300F00D0038D3
:10279000705E0300200E003870F10300300E003828
:1027A00030F30300400E003830230600500E00388E
:1027B00030370600600E003830500600C00F003879
:1027C00044500600E00F0038F451060000100038B5
:1027D00034520600201000385B4B13445B4A936070
:1027E0005B4B1A68584B1344584AD360594B1B68CB
:1027F00043F08043574A1360554B1A68564B1344B5
:10280000544A9360524B1A68534B1344514AD36055
:10281000524B1B6843F08043504A13604C4B1A687C
:102820004F4B13444D4A9360494B1A684C4B134429
:102830004A4AD3604B4B1B6843F08043494A1360BC
:10284000434B1A68484B1344464A9360404B1A68FE
:10285000454B1344434AD360444B1B6843F08043C9
:10286000424A13603A4B1A68414B13443F4A936003
:10287000374B1A683E4B13443C4AD3603D4B1B68B0
:1028800043F080433B4A1360314B1A683A4B134480
:10289000384A93602E4B1A68374B1344354AD3603D
:1028A000364B1B6843F08043344A1360284B1A6848
:1028B000334B1344314A9360254B1A68304B134411
:1028C0002E4AD3602F4B1B6843F080432D4A136080
:1028D0001F4B1A682C4B13442A4A93601C4B1A68EE
:1028E000294B1344274AD360284B1B6843F080438D
:1028F000264A1360164B1A68254B1344234A9360EB
:10290000134B1A68224B1344204AD360214B1B6897
:1029100043F080431F4A13600D4B1A681E4B13444B
:102920001C4A93600A4B1A681B4B1344194AD36024
:10293000012305E012223021786818F05FF90023A6
:1029400018460837BD4680BDC45206002010003826
:1029500020000020401000380453060060100038AA
:102960008453060080100038A4530600A0100038DD
:1029700024550600C0100038E4550600E010003869
:1029800094570600001100385458060020110038F2
:10299000D459060040110038F459060080B582B0C1
:1029A00000AF7860786818F01DF8034618460837BD
:1029B000BD4680BD80B584B002AF78603960002329
:1029C0000193052300930123044A3968786818F0BD
:1029D0002FFC034618460837BD4680BD487C0038AA
:1029E00080B596B000AFF860B9607A600021F868F1
:1029F000FFF7E0FF0346FB6497F84C30002B01D053
:102A0000FB6C5DE007F11403184600F0DDF80346A7
:102A100083F00103DBB2002B08D0FB681B6818466B
:102A2000FFF7BCFF0346FB64FB6C49E0BB68002B6F
:102A300016D000237B650EE0796D7B6D9B00BA6834
:102A400013441A6807F114030C33184617F0ECFE10
:102A50007B6D01337B657B8C1A467B6D9342EBDB90
:102A60007B68002B16D000233B650EE0396D3B6D73
:102A70009B007A6813441A6807F11403043318465C
:102A800017F0D2FE3B6D01333B657B8B1A463B6DE5
:102A90009342EBDBFB681B6807F1140211461846F2
:102AA00000F046F8034683F00103DBB2002B06D0AA
:102AB000FB681B681846FFF771FF0346FB64FB6C5D
:102AC00018465837BD4680BD80B582B000AF7860EB
:102AD00039607B68002B04D1064B7B607B68064A1B
:102AE0001A603968786818F08FF803461846083776
:102AF000BD4680BD487C00380001C0A180B582B0D1
:102B000000AF786039607B68002B04D1064B7B6096
:102B10007B68064A1A603968786818F001FA03463B
:102B200018460837BD4680BD487C00380001C0A16A
:102B300080B584B000AF786039603968786818F083
:102B400051FDF860FB68002B01D1002328E0012330
:102B5000FB723968F868FEF7FBFD03461A46FB7AFC
:102B60001340002B14BF01230023FB723968F8685F
:102B7000FDF742FC03461A46FB7A1340002B14BFB4
:102B800001230023FB72786818F0C8FE03461A463A
:102B9000FB7A1340002B14BF01230023FB72FB7A46
:102BA00018461037BD4680BD80B584B000AFF860D0
:102BB000B9607A607A68B968F86818F0D9FF034696
:102BC00018461037BD4680BD80B586B000AF78602E
:102BD0007B68002B01D1002316E00D4A07F110039A
:102BE00092E8030083E803000A4A07F1080392E829
:102BF000030083E8030007F1100207F108031946F8
:102C0000786817F0D5FE034618461837BD4680BDD4
:102C1000A0550208A855020880B483B000AF084B45
:102C20001B681B6823F07E437B607B685B1403F0AA
:102C30000F0318460C37BD465DF8047B704700BF94
:102C4000C404002080B584B000AF00F04BF887EDDD
:102C5000030A0F4B1B681B6823F07E43BB60BB68F5
:102C6000DB1503F001037B60D7ED037AF5EE407AC4
:102C7000F1EE10FA01D1002305E07B68002B01D1B1
:102C8000012300E0022318461037BD4680BD00BF77
:102C9000C404002080B483B000AF114B1B681B68D4
:102CA00023F07E437B607B68DBB203F07F03403B15
:102CB000012202FA03F307EE903AB8EE677AF7EED4
:102CC000006AC6EE877AC7ED007A3B6807EE903A55
:102CD000B0EE670A0C37BD465DF8047B704700BF55
:102CE000C404002080B400AF3A4B1B689B68002BE3
:102CF00066D0384B1B689B681B6803F00103002BF0
:102D00005ED0344B1B689B685B68002B58D0314BFE
:102D10001B689B68002B50D02E4B1B689B681B6860
:102D200003F00103002B48D02A4B1B689B685B68AB
:102D3000002B42D0274B1B689B68002B0CD0254BE7
:102D40001B689B681B6803F00103002B04D0214B18
:102D50001B689B685B6800E000235B68002B2CD03D
:102D60001C4B1B689B68002B0CD01A4B1B689B6884
:102D70001B6803F00103002B04D0164B1B689B68F3
:102D80005B6800E000235B88002B16D0114B1B68AA
:102D90009B68002B0CD00F4B1B689B681B6803F0D3
:102DA0000103002B04D00B4B1B689B685B6800E0A1
:102DB00000235B681B681B6804E04FF0000301E020
:102DC0004FF0000307EE903AB0EE670ABD465DF89B
:102DD000047B7047C404002080B400AF7B4B1B68A9
:102DE0009B68002B00F0EC80784B1B689B681B688D
:102DF00003F00103002B00F0E380744B1B689B6819
:102E00005B68002B00F0DC80704B1B689B68002B1C
:102E10007DD06E4B1B689B681B6803F00103002B81
:102E200075D06A4B1B689B685B68002B6FD0674B43
:102E30001B689B68002B0CD0644B1B689B681B684D
:102E400003F00103002B04D0604B1B689B685B6898
:102E500000E000231B8803F00203002B57D05B4BDC
:102E60001B689B68002B50D0584B1B689B681B68E5
:102E700003F00103002B48D0544B1B689B685B6830
:102E8000002B42D0514B1B689B68002B0CD04F4B42
:102E90001B689B681B6803F00103002B04D04B4B9D
:102EA0001B689B685B6800E000235B68002B2CD0EC
:102EB000464B1B689B68002B0CD0444B1B689B68DF
:102EC0001B6803F00103002B04D0404B1B689B6878
:102ED0005B6800E000235B88002B16D03B4B1B682F
:102EE0009B68002B0CD0394B1B689B681B6803F058
:102EF0000103002B04D0354B1B689B685B6800E026
:102F000000235B685B681B785BE0002359E02F4B74
:102F10001B689B68002B51D02C4B1B689B681B685F
:102F200003F00103002B49D0284B1B689B685B68AA
:102F3000002B43D0254B1B689B68002B0CD0234BE8
:102F40001B689B681B6803F00103002B04D01F4B18
:102F50001B689B685B6800E000235B68002B2DD03A
:102F60001A4B1B689B68002B0CD0184B1B689B6886
:102F70001B6803F00103002B04D0144B1B689B68F3
:102F80005B6800E000235B88002B17D00F4B1B68A9
:102F90009B68002B0CD00D4B1B689B681B6803F0D3
:102FA0000103002B04D0094B1B689B685B6800E0A1
:102FB00000235B685B6893F9003002E0002300E0C7
:102FC00000231846BD465DF8047B7047C40400200A
:102FD00080B586B000AFF860B9607A60154B00220A
:102FE0001A60FB687B6107F114030022194611483F
:102FF000FFF7F6FC0F4B1B6800211846FFF764FD36
:1030000003460D4A13600B4B1B6800211846FFF75F
:1030100075FD0346094A1360074B1B685A68BB6875
:103020001A60064B1B685A687B681A6000BF183725
:10303000BD4680BDBC040020C0040020C4040020A4
:1030400080B584B000AF786039600D4B1B687A683A
:103050005A600C4B1B683A685A600B4B1B68084A55
:103060001168084A12681846FFF79EFDF860FB6871
:10307000012B01D000BFFDE700BF1037BD4680BD6A
:10308000C0040020C4040020BC04002080B483B02D
:1030900000AF786000BF7B6893F82030DBB2002B74
:1030A000F9D000BF00BF0C37BD465DF8047B704708
:1030B00080B582B000AF78607B68002283F8202062
:1030C00003F008FE0346002B01D000F0C9FF00BF4B
:1030D0000837BD4680BD80B584B000AF78607B689E
:1030E0009B6EFB6003F022FE0346002B01D000F034
:1030F000B7FFC82004F09AFC0021012003F072FE03
:103100000346002B01D000F0ABFF7B685B6A1846DA
:1031100000F022F8642004F089FC7B689B6E4FF479
:1031200016320021184620F045F97B689B6E02227A
:103130004FF41631184600F0E9FCF86803F0C8FEB9
:103140000346002B01D000F08BFFC82004F06EFC7A
:1031500000BF1037BD4680BD80B582B000AF78603B
:10316000786803F0D1FE0346002B01D000F078FF11
:1031700000BF0837BD4680BD80B483B000AF786023
:103180003960044B01225A6300BF0C37BD465DF81D
:10319000047B7047C8040020B0B58AB000AF7860E7
:1031A0000023FB604FF4A0733B6100237B61F0239D
:1031B000BB610223FB617B681B6F3B62164B1D46A4
:1031C00007F10C040FCC0FC594E8030085E8030059
:1031D0001249012003F094FF78627B6A002B05D02E
:1031E0000F4B104A4A2110481FF0A0F90F4816F063
:1031F00033FF002016F086FF4FF07F4016F0B4FF3B
:103200004FF0FF3016F09CFF094816F0C1FF00BFD9
:103210002837BD46B0BD00BF7017002079310008C7
:10322000B0550208F81D0A08C8550208A4230A0868
:103230004486003880B582B000AF78604FF07F40A0
:1032400016F0E6FF3B4A4321112017F0DBF83A4A1B
:103250004B21DC2017F0D6F816F0AEFF0346DB88D2
:1032600019460123354A002017F01EF816F0A4FF76
:103270000346DB885B0019460123314A002017F022
:1032800013F816F099FF0346DB889B0019460123CB
:103290002C4A002017F008F816F08EFF0346DB8852
:1032A0001A4613461B019B1A19460123264A002081
:1032B00016F0FAFF16F080FF0346DB881B01194663
:1032C0000123224A002016F0EFFF16F075FF034697
:1032D000DB881A4613461B011344194601231C4A76
:1032E000002016F0E1FF16F067FF0346DB881A4660
:1032F0001346DB0013445B0019460123154A0020E6
:1033000016F0D2FF0121786800F0D8F80021786823
:1033100000F0D4F80021786800F0D0F84FF47A601B
:1033200004F084FB4FF07F4016F072FF00BF0837B7
:10333000BD4680BD78500908C0D20908445602082D
:103340005C5602086C56020890560208BC560208E9
:10335000E85602080457020880B584B000AF7860D0
:103360007B689B6EFB607B689B6E01224FF416317D
:10337000184600F0CBFB4FF07F4016F049FFF9688C
:10338000786800F05BF800BF1037BD4680BD0000D4
:1033900080B596B002AF78607B685A6D7B68DB6859
:1033A0009B0013441A687B689B6DD3ED007A9FEDF8
:1033B000207A67EE877AB7EEE77A07F108038DED9A
:1033C000007B1C4918461FF0E3FE16F0F5FE03468D
:1033D000DB885B00194607F108020123002016F084
:1033E00063FF7B68DA6B7B689B6BD21A07F108037B
:1033F000114918461FF0CCFE16F0DEFE0346DB88AE
:103400001A461346DB0013445B00194607F1080215
:103410000123002016F048FF0121786800F04EF8E3
:10342000012002F071FC00BF5037BD4680BD00BFD7
:103430000000C842205702082C57020880B489B007
:1034400000AF786039607B681B6FFB600023FB6115
:103450000023BB6100237B6126E000233B6117E072
:103460003B689A1C3A601B887B81FA6913469B0073
:1034700013449B011A46BB6913445B00FA6813446A
:103480007A891A80BB690133BB613B6901333B61B7
:103490003B69B3F5A07FE3DB0023BB61FB6901332C
:1034A000FB617B6901337B617B69EF2BD5DD00BF5D
:1034B00000BF2437BD465DF8047B704780B584B0FB
:1034C00000AF78600B46FB707B6800225A63FB7884
:1034D000002B10D07B681B6F184603F063FEF8606A
:1034E00005E07B681B6F184603F07CFEF860FB6804
:1034F000002BF6D008E07B681B6F184603F072FEC5
:10350000F860FB68002BF6D000BF7B685B6B002B7C
:10351000FBD000BF00BF1037BD4680BD80B58AB06C
:1035200000AF786000F07EFA02467B681A647B6820
:103530009B6E7B624FF4A073BB61F023FB6102239F
:103540003B627B685B6E7B618023BB608023FB609A
:1035500002233B6107F1080207F1180311461846E0
:1035600000F056F97B681B6B012B07D17B685B6E03
:1035700002224FF40041184600F0C8FA7B685B6EE7
:103580007B628023BB618023FB6102233B627B68FB
:10359000DB6D7B618023BB608023FB6004233B6188
:1035A00007F1080207F118031946786800F043F99B
:1035B0007B681B6B012B06D17B681B6E01220749C0
:1035C000184600F0A3FA7B68DB6D1946786800F0B6
:1035D000D6F900BF2837BD4680BD00BF402C030090
:1035E00080B582B000AF786000F01CFA02467B68BC
:1035F0009A637B68DA6D7B689B6D19461046FFF70E
:103600001FFD00F00FFA02467B68DA6300BF08373F
:10361000BD4680BD80B584B000AF7860786800F0AA
:1036200055F80023FB6009E07A68FB6802339B00D1
:103630001344FA685A60FB680133FB60FB68042B93
:10364000F2DD7B68986D7B680C330522194600F02B
:10365000CDFA00F0E7F902467B685A647B685A6D40
:103660007B68DB689B0013441A687B685A607B6840
:103670009B6D1A687B689A6000BF1037BD4680BD9D
:1036800080B584B000AF78607B681B6E07F10802DC
:1036900007F10C011846FFF79BFCFB68002B02D0DA
:1036A000FA687B68DA65BB68002B02D0BA687B6871
:1036B0009A657B68DB6D002B04D07B689B6D002BCB
:1036C00000D000E0FEE71037BD4680BD80B58EB06B
:1036D00000AF7860FFF7A0FA0346022B40F0948019
:1036E000FFF7B0FA0346022B5FD0022B00F28B806B
:1036F000002B02D0012B2BD085E0FFF7CBFA87ED12
:103700000A0A7B689B6D3B627B689B6DFB610423AF
:103710007B6319E07B6B3A6A134493F9003007EE40
:10372000903AF8EEE77AC7ED037A7B6B9B00FA6973
:10373000134497ED0A7AD7ED037A67EE277AC3ED43
:10374000007A7B6B013B7B637B6B002BE2DA5BE0F7
:10375000FFF7C8FA87ED0A0AFFF73EFB78627B683D
:103760009B6D7B617B689B6DFB6104233B6318E071
:103770003B6B7A6913441B783B613A697B6AD31AC5
:1037800007EE903AB8EEE77A3B6B9B00FA69134478
:10379000D7ED0A7A67EE277AC3ED007A3B6B013BDF
:1037A0003B633B6B002BE3DA2EE0FFF79BFA87EDE0
:1037B0000A0AFFF711FB78627B689B6D3B627B68AE
:1037C0009B6DFB610423FB6219E0FB6A3A6A1344B8
:1037D00093F90030BB61BA697B6AD31A07EE903A5D
:1037E000B8EEE77AFB6A9B00FA691344D7ED0A7AD0
:1037F00067EE277AC3ED007AFB6A013BFB62FB6A46
:10380000002BE2DA00E000BF00BF3837BD4680BDC4
:1038100080B582B000AF786039600022396878687E
:1038200011F03EF80346002B01D000BFFDE700BFBA
:103830000837BD4680BDB0B590B008AFF860B9603C
:103840007A60BB68FB617B68BB61FB68DB6A7B619C
:10385000FB681B6B012B02D0022B27D042E0FB69D7
:103860009B68022B21D1BB699B68042B1DD1FB698E
:10387000D868BB69DC68FB691B689BB2FA6952684F
:1038800092B2B96909680D467969069101210591DD
:1038900001210491022103910295019200930023DA
:1038A0000022214600F0C6F81EE0FEE77B69002BEF
:1038B0000ED0BB691B68BA69526802FB03F33B6117
:1038C000FB69D868BB69DB683A69194600F010F8F3
:1038D0000022B969F86910F02BFE0346002B02D0D4
:1038E00000BFFDE7FEE700BF00BF2037BD46B0BD0B
:1038F00080B489B000AFF860B9607A60FB68BB61E2
:10390000BB687B617B68013BFB612EE0FA69134673
:103910005B001344BA6913441B78FB74FA691346BD
:103920005B001344BA69D118FA6913465B0013446B
:103930007A6913448A781A70FA6913465B00134453
:103940007A691344FA7C9A70FA6913465B0013444F
:10395000BA69D118FA6913465B0013447A691344B3
:103960004A785A70FB69013BFB61FB69002BCDDA99
:1039700000BF00BF2437BD465DF8047B704780B4AC
:1039800089B000AF786039607B68DB6C012B25D093
:103990007B68DB6C022B20D14FF44043BB613B685A
:1039A0007B617B68DB6D3B610023FB6110E0FB69A1
:1039B0007A6913441B78FB73FB7B803BDBB2BB73E0
:1039C000FB693A691344BA7B1A70FB690133FB61E6
:1039D000FB69BA699A42EAD800E0FEE700BF2437E3
:1039E000BD465DF8047B704780B483B000AF78605B
:1039F0007B68042B0FD87B68022B0AD27B68002BD4
:103A000003D07B68012B02D005E0042304E00323EC
:103A100002E0022300E0002318460C37BD465DF8A3
:103A2000047B704780B500AF03F0F4FF03461846EF
:103A300080BD000080B58AB002AFF860B960114661
:103A40001A460B46FB801346BB80B86BFFF7CCFFD2
:103A5000F861BB883A6B03FB02F2FB881344FA69F6
:103A600003FB02F2BB681344BB61FB687B61264821
:103A700006F07CFEFB6B002B02D04FF4803300E09D
:103A80000023214A5360204ABB6B93603B8D3A6B05
:103A9000D31A1D4AD3601C4B00221A621A4B012212
:103AA000DA64194BFF221A65174A7B6B9364164B35
:103AB00000225A643B6C002B01D0012300E000235C
:103AC000114A9365104806F0EDFD0346002B16D110
:103AD00001210D4807F088F90346002B0FD13A8DDC
:103AE000BB8D00931346BA697969074806F0C2FE98
:103AF0000346002B03D11E21034806F07BFF00BFC5
:103B00002037BD4680BD00BF8817002080B48DB02F
:103B100000AFF860B9601346FB71FB6803F01F0348
:103B2000002B05D1BB6803F01F03002B00D100E080
:103B3000FEE7FB79012B25D1FB68FB62BB68BB620A
:103B4000BB6A002B47DDFB6A03F01F02BB6A13440C
:103B50007B62FB6A3B62BFF34F8F00BF224A3B6A26
:103B6000C2F85C323B6A20333B627B6A203B7B625B
:103B70007B6A002BF2DCBFF34F8F00BFBFF36F8F68
:103B800000BF28E0FB79022B28D1FB68FB61BB68F2
:103B9000BB61BB69002B20DDFB6903F01F02BB6921
:103BA00013447B61FB693B61BFF34F8F00BF0E4A3B
:103BB0003B69C2F868323B6920333B617B69203B3B
:103BC0007B617B69002BF2DCBFF34F8F00BFBFF33B
:103BD0006F8F00BF01E000BF00E000BF00BF3437BF
:103BE000BD465DF8047B704700ED00E080B489B00D
:103BF00000AFF860B9607A600023FB6151E00023F8
:103C0000BB6144E0BB699B00FA68134493ED007A02
:103C1000BB6901339B00FA681344D3ED007AB4EE1C
:103C2000E77AF1EE10FA2FD5BB699B00FA681344CE
:103C30001B687B61BB6901339B00FA681A44BB694E
:103C40009B00F9680B4412681A60BB6901339B0042
:103C5000FA6813447A691A60BB699B00BA68134416
:103C60001B683B61BB6901339B00BA681A44BB699E
:103C70009B00B9680B4412681A60BB6901339B0052
:103C8000BA6813443A691A60BB690133BB617A6848
:103C9000FB69D31A013BBA699A42B3DBFB69013372
:103CA000FB61FA697B689A42A9DB00BF00BF243739
:103CB000BD465DF8047B704780B582B000AF00F070
:103CC000C9F900F059F903F01FFE00F09FF8194BF5
:103CD000D3F8E030174A43F40023C2F8E030154B24
:103CE000D3F8E03003F400237B607B68124800F0D7
:103CF00025F8114800F072F80F48FFF7C1FC0E4894
:103D0000FFF798FA0C48FFF7C1F90B48FFF724FBBF
:103D10000948FFF703FC0848FFF7CAF90648FFF710
:103D20005FFC0548FFF776FC0348FFF731FB00BF57
:103D3000E8E700BF00440258C804002080B483B004
:103D400000AF78607B6801225A627B68002283F8AA
:103D500020207B6800225A637B68184A9A647B683B
:103D60000122DA647B6803221A657B68144A5A656B
:103D70007B680122DA627B6801221A63114B1A68A0
:103D80007B68DA65104B1A687B689A657B680F4A16
:103D90009A667B689B6E03F5C8427B68DA667B682F
:103DA0000B4A5A667B680B4A1A667B680A4A1A678E
:103DB00000BF0C37BD465DF8047B70473C05002012
:103DC000EC7C003820880038408800380000003043
:103DD0000058023000000024402C032480B582B03B
:103DE00000AF7860002001F001FF022001F0FEFE2C
:103DF000012001F0FBFE7868FFF7CEF97868FFF745
:103E00006AF900BF0837BD4680BD000080B59EB08E
:103E100000AF07F12C034C22002118461FF0CAFA0C
:103E200007F10C032022002118461FF0C3FA0220DC
:103E30000BF030F90023BB604C4BDB6A4B4A23F09C
:103E40000103D362494BDB6A03F00103BB60484BBB
:103E50009B69474A43F440439361454B9B6903F494
:103E60004043BB60BB6800BF414B9B6903F40053F8
:103E7000B3F5005FF8D13F4BD3F8F4303D4A43F03F
:103E80000203C2F8F4303B4BD3F8F43003F00203E2
:103E90007B607B6800233B60354B9B69344A43F46D
:103EA00040439361324B9B6903F440433B602F4B8B
:103EB000DB6A2E4A43F00103D3622C4BDB6A03F02A
:103EC00001033B603B6800BF294B9B6903F400532F
:103ED000B3F5005FF8D1274B9B6A23F00303254A13
:103EE00043F0020393620123FB624FF4A0233B6380
:103EF00002233B6502237B650123BB657823FB65B9
:103F000002233B6610237B660223BB660C23FB6601
:103F100000233B6700237B6707F12C0318460BF057
:103F200003F90346002B01D000F09AF83F23FB6011
:103F300003233B6100237B610823BB614023FB61BA
:103F400040233B624FF480637B624023BB6207F1F6
:103F50000C03042118460BF043FD0346002B01D04F
:103F600000F07EF800BF7837BD4680BD00040058E1
:103F7000004802580044025880B485B000AF344B6A
:103F80005B6903F40033002B1BD1BFF34F8F00BFDD
:103F9000BFF36F8F00BF2E4B0022C3F85022BFF338
:103FA0004F8F00BFBFF36F8F00BF294B5B69284A5B
:103FB00043F400335361BFF34F8F00BFBFF36F8FE4
:103FC00000E000BF224B5B6903F48033002B38D143
:103FD0001F4B0022C3F88420BFF34F8F00BF1C4B40
:103FE000D3F88030FB60FB685B0BC3F30E03BB6050
:103FF000FB68DB08C3F309037B60BB685A0143F627
:10400000E07313407A68920711491343C1F8603294
:104010007B685A1E7A60002BEFD1BB685A1EBA60CB
:10402000002BE5D1BFF34F8F00BF094B5B69084AF6
:1040300043F480335361BFF34F8F00BFBFF36F8FE3
:1040400000E000BF00BF1437BD465DF8047B704739
:1040500000ED00E080B500AF03F028FE00BF80BD9A
:1040600080B500AF002001F031FE012001F02EFEEE
:10407000022001F02BFE022001F00AFE00BFFDE746
:1040800080B400AF00BFBD465DF8047B704780B4CC
:1040900000AF00BFBD465DF8047B704780B400AF41
:1040A00000BFFDE780B400AF00BFFDE780B400AF04
:1040B00000BFFDE780B400AF00BFFDE780B400AFF4
:1040C00000BFBD465DF8047B704780B400AF00BF01
:1040D000BD465DF8047B704780B400AF00BFBD46AD
:1040E0005DF8047B704780B500AF03F07FFC00BF34
:1040F00080BD000080B500AF024809F055FE00BF4A
:1041000080BD00BF6012002080B500AF802007F0A6
:10411000ACFA00BF80BD80B500AF02F02FFF00BF3A
:1041200080BD80B500AF02F01FFF00BF80BD000062
:1041300080B500AF024809F047FA00BF80BD00BF5C
:104140009810002080B500AF024806F03CFD00BF8B
:1041500080BD00BF8817002080B400AF012318463F
:10416000BD465DF8047B704780B582B000AF7860D3
:1041700039601FF081F9034616221A604FF0FF33B1
:1041800018460837BD4680BD80B582B000AF786064
:104190004FF0FF317868FFF7E7FF00BFFDE7000051
:1041A00080B400AF374BD3F88830364A43F47003FD
:1041B000C2F88830344B1B6803F00F03062B07D876
:1041C000314B1B6823F00F032F4A43F007031360A2
:1041D0002E4B1B682D4A43F0010313602B4B00222A
:1041E0001A612A4B1A682949294B13400B60264B48
:1041F0001B6803F00803002B07D0234B1B6823F038
:104200000F03214A43F007031360204B00229A61F9
:104210001E4B0022DA611D4B00221A621B4B1D4A05
:104220009A621A4B1C4ADA62184B1C4A1A63174BE3
:1042300000225A63154B194A9A63144B0022DA6321
:10424000124B164A1A64114B00225A640F4B1B681A
:104250000E4A23F4802313600C4B00221A66104B85
:104260001A68104B1340B3F1005F02D20E4B0122CB
:104270001A600E4B43F2D2021A6000BFBD465DF8D1
:10428000047B704700ED00E000200052004402581B
:104290007FEDF6EA000202020000FF018002010148
:1042A0000010005C0000FFFF088100510040005238
:1042B00080B584B000AF786039607B68002B03D193
:1042C0004FF0FF33FB602CE03B681A687B681A6094
:1042D0003B685A687B685A603B681A897B681A8118
:1042E0003B68DA687B68DA603B681A697B681A6148
:1042F0003B685A697B685A617B680C4ADA617B6863
:104300000B4A9A617B687A681A627B681B68002B8B
:1043100004D07B681B689847F86002E04FF0FF33D9
:10432000FB60FB6818461037BD4680BD2B5B00085C
:104330005D5B000880B588B000AFF860B9607A6056
:104340000023BB61FB6893F82430002B65D1BB6868
:10435000042B0ED87B68002B0FD07B68022B0CD06F
:104360007B68012B09D07B68072B06D07B68082B64
:1043700003D04FF0FF33BB614FE00023FB611FE030
:10438000BB69B3F1FF3F18D0264AFB699B00134479
:104390005B88DBB2FB75FB6803F11800214AFB69FF
:1043A00032F8231007F11702012301F007FC03463E
:1043B000002B02D04FF0FF33BB61FB690133FB617F
:1043C000FB69FD2BDCD9BB69002B26D1B968F868E5
:1043D00000F0E0F90346002B03D04FF0FF33BB6140
:1043E0001BE07968F86800F033F80346002B03D02F
:1043F0004FF0FF33BB6110E0002301220121F86878
:1044000000F062FB0346002B03D04FF0FF33BB618B
:1044100003E0FB68012283F82420BB69184620379B
:10442000BD4680BD181E0A0880B483B000AF786016
:104430007B6893F82430012B03D17B68002283F83A
:104440002420002318460C37BD465DF8047B7047D6
:1044500080B586B000AF7860396000237B613B682F
:10446000002B0FD03B68022B0CD03B68012B09D0EE
:104470003B68072B06D03B68082B03D04FF0FF3377
:104480007B616AE13B68013B072B00F2C38001A21C
:1044900052F823F00D450008B54400081546000801
:1044A0001546000815460008154600086545000831
:1044B000BD45000800233B6124E07B69B3F1FF3F69
:1044C0001DD0A84A3B699B0013445B88DBB2FB7399
:1044D0007B6803F11800A34A3B6932F8231007F107
:1044E0000F02012301F06AFB0346002B03D04FF0BB
:1044F000FF337B6103E00121786801F0FCFA3B693E
:1045000001333B613B69012BD7D9AFE000233B610D
:1045100024E07B69B3F1FF3F1DD0934A3B699B00C8
:1045200013445B88DBB2FB737B6803F118008E4A8F
:104530003B6932F8231007F10F02012301F03EFB23
:104540000346002B03D04FF0FF337B6103E00121D2
:10455000786801F0D0FA3B6901333B613B69012B7C
:10456000D7D983E000233B6124E07B69B3F1FF3FAF
:104570001DD07E4A3B699B0013445B88DBB2FB7312
:104580007B6803F11800794A3B6932F8231007F180
:104590000F02012301F012FB0346002B03D04FF062
:1045A000FF337B6103E00121786801F0A4FA3B69E5
:1045B00001333B613B69012BD7D957E000233B61B5
:1045C00024E07B69B3F1FF3F1DD0694A3B699B0042
:1045D00013445B88DBB2FB737B6803F11800644A09
:1045E0003B6932F8231007F10F02012301F0E6FACC
:1045F0000346002B03D04FF0FF337B6103E0012122
:10460000786801F078FA3B6901333B613B69012B23
:10461000D7D92BE000233B6124E07B69B3F1FF3F56
:104620001DD0544A3B699B0013445B88DBB2FB738B
:104630007B6803F118004F4A3B6932F8231007F1F9
:104640000F02012301F0BAFA0346002B03D04FF00A
:10465000FF337B6103E00121786801F04CFA3B698C
:1046600001333B613B69012BD7D900BF3B68082B65
:1046700073D17B6803F1180007F10F02012343F6A1
:10468000210101F084FA0346002B03D04FF0FF33E1
:104690007B6162E0FB7B43F02003DBB2FB737B6852
:1046A00003F1180007F10F02012343F6210101F085
:1046B00085FA0346002B03D04FF0FF337B614CE0BB
:1046C0007B6803F1180007F10F02012343F2020196
:1046D00001F05DFA0346002B03D04FF0FF337B61FE
:1046E0003BE0FB7B23F01C03DBB2FB737B6803F135
:1046F000180007F10F02012343F2020101F05EFAF4
:104700000346002B03D04FF0FF337B6125E07B682D
:1047100003F1180007F10F02012343F2060101F033
:1047200036FA0346002B03D04FF0FF337B6114E0D1
:10473000FB7B43F02803DBB2FB737B6803F11800BB
:1047400007F10F02012343F2060101F037FA034695
:10475000002B02D04FF0FF337B617B69184618377E
:10476000BD4680BD10220A0818220A0820220A0825
:1047700028220A0830220A0880B483B000AF78608B
:1047800039604FF0FF3318460C37BD465DF8047BA7
:104790007047000080B586B000AF786039600023B4
:1047A0007B613B68042B03D94FF0FF337B61D8E07A
:1047B0003B68042B00F2D18001A252F823F000BF25
:1047C000D54700082348000871480008BF48000882
:1047D0000D49000800233B611FE07B69B3F1FF3FF7
:1047E00018D0624A3B699B0013445B88DBB2FB73C1
:1047F0007B6803F118005D4A3B6932F8231007F12A
:104800000F02012301F0DAF90346002B02D04FF02A
:10481000FF337B613B6901333B613B69032BDCD98F
:104820009FE000233B611FE07B69B3F1FF3F18D09D
:104830004F4A3B699B0013445B88DBB2FB737B6888
:1048400003F118004A4A3B6932F8231007F10F02BE
:10485000012301F0B3F90346002B02D04FF0FF33E0
:104860007B613B6901333B613B69032BDCD978E019
:1048700000233B611FE07B69B3F1FF3F18D03D4A45
:104880003B699B0013445B88DBB2FB737B6803F1DD
:104890001800384A3B6932F8231007F10F02012350
:1048A00001F08CF90346002B02D04FF0FF337B61FF
:1048B0003B6901333B613B69032BDCD951E00023A9
:1048C0003B611FE07B69B3F1FF3F18D02A4A3B6987
:1048D0009B0013445B88DBB2FB737B6803F1180019
:1048E000254A3B6932F8231007F10F02012301F03A
:1048F00065F90346002B02D04FF0FF337B613B6923
:1049000001333B613B69032BDCD92AE000233B6187
:104910001FE07B69B3F1FF3F18D0184A3B699B0049
:1049200013445B88DBB2FB737B6803F11800134A06
:104930003B6932F8231007F10F02012301F03EF921
:104940000346002B02D04FF0FF337B613B690133FC
:104950003B613B69032BDCD903E04FF0FF337B6104
:1049600000BF7B6918461837BD4680BD38220A084B
:1049700048220A0858220A0868220A0878220A08E7
:1049800080B586B000AF786039607B6803F11800AD
:1049900007F10F02012343F6080101F0F8F803467E
:1049A000002B03D04FF0FF337B6188E0FB7B1B02C1
:1049B0007B827B6803F1180007F10F02012343F6A5
:1049C000090101F0E4F80346002B03D04FF0FF3358
:1049D0007B6174E0FB7B1A467B8A13437B827B6896
:1049E00003F1180007F10F02012343F60A0101F059
:1049F000CEF80346002B03D04FF0FF337B615EE01F
:104A0000FB7B1B023B827B6803F1180007F10F025E
:104A1000012343F60B0101F0BAF80346002B03D043
:104A20004FF0FF337B614AE0FB7B1A463B8A13431E
:104A30003B827B8AB3F5487F09D13B8AB3F5F07F8F
:104A400005D13B6804221A6000237B6137E07B8A32
:104A5000B3F5207F09D13B8AB3F5F07F05D13B68E0
:104A600003221A6000237B6129E07B8AB3F5F07F83
:104A700009D13B8AB3F5887F05D13B6802221A60D1
:104A800000237B611BE07B8AB3F5A07F08D13B8AC2
:104A9000F02B05D13B6801221A6000237B610EE0F8
:104AA0007B8AA02B08D13B8A782B05D13B6800225A
:104AB0001A6000237B6102E04FF0FF337B617B696A
:104AC00018461837BD4680BD80B586B000AFF86087
:104AD000B9607A603B6000237B61FB68002B11D0DA
:104AE000BB68002B02D0BB68012B0BD17B68002B6D
:104AF00002D07B68012B05D13B68012B06D03B68B7
:104B0000002B03D04FF0FF337B611EE0BB68DBB2AC
:104B10005B01DAB27B68DBB25B00DBB21343DAB273
:104B20003B68DBB21343DBB2FB74FB6803F1180094
:104B300007F11302012344F2407101F03FF80346EC
:104B4000002B02D04FF0FF337B617B69184618378A
:104B5000BD4680BD80B584B000AF786039607B68A9
:104B60001B6898478023FB727B6803F1180007F1EC
:104B70000B02012343F2080101F020F80346002B49
:104B800003D04FF0FF33FB6032E04FF4FA717868E6
:104B900000F0B1FF7B6803F1180007F10B0201235D
:104BA00043F20A0100F0F3FF0346002B03D04FF05D
:104BB000FF33FB601CE0FB7A1A023B681A607B68DB
:104BC00003F1180007F10B02012343F20B0100F07F
:104BD000DEFF0346002B03D04FF0FF33FB6007E0FE
:104BE0003B681B68FA7A1A433B681A600023FB6033
:104BF000FB6818461037BD4680BD80B485B000AF55
:104C0000786039607B68002B03D14FF0FF33FB6085
:104C10001FE03B680122DA603B6801225A613B6871
:104C200001229A613B6801225A603B680122DA61E5
:104C30003B6801225A623B6801221A603B680122EC
:104C40001A613B6801229A603B6801221A620023C4
:104C5000FB60FB6818461437BD465DF8047B70475F
:104C600080B586B000AF786039600023FB737B6845
:104C700003F1180007F10F02012343F2064100F08F
:104C80009DFF78617B69002B0CD14623FB737B6809
:104C900003F1180007F10F02012345F2901100F013
:104CA0008DFF78617B69002B0CD1F823FB737B6847
:104CB00003F1180007F10F02012345F2911100F0F2
:104CC0007DFF78617B69002B0CD10423FB737B682B
:104CD00003F1180007F10F02012345F2921100F0D1
:104CE0006DFF78617B69002B40F0DB803B68013B06
:104CF000072B00F2AF8001A252F823F01D4D0008EF
:104D00006B4D0008554E0008074E0008554E000830
:104D1000554E0008554E0008B94D000800233B6170
:104D20001FE07B69B3F1FF3F18D0604A3B699B00ED
:104D300013445B88DBB2FB737B6803F118005B4AAA
:104D40003B6932F8231007F10F02012300F036FF10
:104D50000346002B02D04FF0FF337B613B690133E8
:104D60003B613B69062BDCD99BE000233B611FE0E4
:104D70007B69B3F1FF3F18D04D4A3B699B00134458
:104D80005B88DBB2FB737B6803F11800484A3B6920
:104D900032F8231007F10F02012300F00FFF034642
:104DA000002B02D04FF0FF337B613B6901333B6145
:104DB0003B69062BDCD974E000233B611FE07B6973
:104DC000B3F1FF3F18D03B4A3B699B0013445B881B
:104DD000DBB2FB737B6803F11800364A3B6932F89B
:104DE000231007F10F02012300F0E8FE0346002B19
:104DF00002D04FF0FF337B613B6901333B613B697C
:104E0000062BDCD94DE000233B611FE07B69B3F149
:104E1000FF3F18D0284A3B699B0013445B88DBB2F4
:104E2000FB737B6803F11800234A3B6932F82310B7
:104E300007F10F02012300F0C1FE0346002B02D050
:104E40004FF0FF337B613B6901333B613B69062BCC
:104E5000DCD926E000233B611FE07B69B3F1FF3F13
:104E600018D0164A3B699B0013445B88DBB2FB7386
:104E70007B6803F11800114A3B6932F8231007F1EF
:104E80000F02012300F09AFE0346002B02D04FF0E0
:104E9000FF337B613B6901333B613B69062BDCD906
:104EA00000BF7B6918461837BD4680BD88220A08B6
:104EB000A4220A08C0220A08DC220A08F8220A08EA
:104EC00080B584B000AF786039603B68013B1F2B30
:104ED00000F2C08101A252F823F000BF5D4F00082C
:104EE000E74F00085552000871500008555200085D
:104EF0005552000855520008FB5000085552000852
:104F000055520008555200085552000855520008E5
:104F100055520008555200088551000855520008A6
:104F200055520008555200085552000855520008C5
:104F300055520008555200085552000855520008B5
:104F400055520008555200085552000855520008A5
:104F500055520008555200080D520008FF23FB72FD
:104F60007B6803F1180007F10B02012345F20101F0
:104F700000F024FEF860FB68002B0CD11823FB72B4
:104F80007B6803F1180007F10B0201234FF4AB41DA
:104F900000F014FEF860FB68002B0CD1A023FB721C
:104FA0007B6803F1180007F10B02012345F28351DE
:104FB00000F004FEF860FB68002B0CD14023FB726C
:104FC0007B6803F1180007F10B02012345F28451BD
:104FD00000F0F4FDF860FB68002B00F05F814FF0FB
:104FE000FF33FB605AE1FF23FB727B6803F118007B
:104FF00007F10B02012345F2010100F0DFFDF8602B
:10500000FB68002B0CD11823FB727B6803F118009E
:1050100007F10B0201234FF4AB4100F0CFFDF86024
:10502000FB68002B0CD18023FB727B6803F1180016
:1050300007F10B02012345F2835100F0BFFDF86038
:10504000FB68002B0CD1C023FB727B6803F11800B6
:1050500007F10B02012345F2845100F0AFFDF86027
:10506000FB68002B00F01C814FF0FF33FB6017E161
:10507000FF23FB727B6803F1180007F10B02012389
:1050800045F2010100F09AFDF860FB68002B0CD19D
:105090001823FB727B6803F1180007F10B02012350
:1050A0004FF4AB4100F08AFDF860FB68002B0CD197
:1050B0006023FB727B6803F1180007F10B020123E8
:1050C00045F2835100F07AFDF860FB68002B0CD1AB
:1050D0006023FB727B6803F1180007F10B020123C8
:1050E00045F2845100F06AFDF860FB68002B00F087
:1050F000D9804FF0FF33FB60D4E0FF23FB727B6865
:1051000003F1180007F10B02012345F2010100F041
:1051100055FDF860FB68002B0CD11823FB727B68EF
:1051200003F1180007F10B0201234FF4AB4100F02B
:1051300045FDF860FB68002B0CD18023FB727B6877
:1051400003F1180007F10B02012345F2835100F02F
:1051500035FDF860FB68002B0CD18023FB727B6867
:1051600003F1180007F10B02012345F2845100F00E
:1051700025FDF860FB68002B00F096804FF0FF33B0
:10518000FB6091E0FF23FB727B6803F1180007F1DD
:105190000B02012345F2010100F010FDF860FB68ED
:1051A000002B0CD11823FB727B6803F1180007F168
:1051B0000B0201234FF4AB4100F000FDF860FB68E7
:1051C000002B0CD14023FB727B6803F1180007F120
:1051D0000B02012345F2835100F0F0FCF860FB68FC
:1051E000002B0CD1A023FB727B6803F1180007F1A0
:1051F0000B02012345F2845100F0E0FCF860FB68EB
:10520000002B53D04FF0FF33FB604FE0FF23FB72C6
:105210007B6803F1180007F10B02012345F201013D
:1052200000F0CCFCF860FB68002B0CD14023FB7233
:105230007B6803F1180007F10B0201234FF4AB4127
:1052400000F0BCFCF860FB68002B31D04FF0FF335E
:10525000FB602DE07F23FB727B6803F1180007F1F0
:105260000B02012345F2010100F0A8FCF860FB6885
:10527000002B0CD10023FB727B6803F1180007F1AF
:105280000B0201234FF4AB4100F098FCF860FB687F
:10529000002B0FD04FF0FF33FB600BE000BF0AE0A4
:1052A00000BF08E000BF06E000BF04E000BF02E06E
:1052B00000BF00E000BFFB6818461037BD4680BD48
:1052C00080B588B000AF78603960344A07F11003C8
:1052D00007CA03C31A70FF23FB737B6803F118002E
:1052E00007F10F02012345F2010100F067FCF861AC
:1052F000FB69002B11D13B68043320333B4413F886
:10530000103CFB737B6803F1180007F10F020123C7
:1053100045F2875100F052FCF861FB69002B0CD17B
:105320000423FB737B6803F1180007F10F020123CC
:105330004FF4AB4100F042FCF861FB69002B27D130
:105340003B68002B12DA0123FB737B6803F1180022
:1053500007F10F02012345F2885100F02FFC0346AC
:10536000002B15D04FF0FF33FB6111E00923FB73D5
:105370007B6803F1180007F10F02012345F2885101
:1053800000F01CFC0346002B02D04FF0FF33FB6102
:10539000FB6918462037BD4680BD00BF7057020824
:1053A00080B588B000AF78603960304A07F11003EB
:1053B00007CA03C31A70FF23FB737B6803F118004D
:1053C00007F10F02012345F2010100F0F7FBF8613C
:1053D000FB69002B11D13B68043320333B4413F8A5
:1053E000103CFB737B6803F1180007F10F020123E7
:1053F00045F2835100F0E2FBF861FB69002B0AD112
:105400007B6803F1180007F10F02012345F2845174
:1054100000F0D4FBF861FB69002B0CD10223FB7375
:105420007B6803F1180007F10F0201234FF4AB4131
:1054300000F0C4FBF861FB69002B0CD14123FB7326
:105440007B6803F1180007F10F02012345F2885130
:1054500000F0B4FBF861FB69002B02D04FF0FF3382
:10546000FB61FB6918462037BD4680BD7C570208AA
:1054700080B588B000AF78603960304A07F110031A
:1054800007CA03C31A70FF23FB737B6803F118007C
:1054900007F10F02012345F2010100F08FFBF861D3
:1054A000FB69002B0CD10423FB737B6803F118000C
:1054B00007F10F0201234FF4AB4100F07FFBF861CD
:1054C000FB69002B11D13B68043320333B4413F8B4
:1054D000103CFB737B6803F1180007F10F020123F6
:1054E00045F2865100F06AFBF861FB69002B0AD196
:1054F0007B6803F1180007F10F02012345F2855183
:1055000000F05CFBF861FB69002B0CD14123FB73BD
:105510007B6803F1180007F10F02012345F288515F
:1055200000F04CFBF861FB69002B02D04FF0FF3319
:10553000FB61FB6918462037BD4680BD88570208CD
:1055400080B58EB000AF786039603C4A07F128031F
:1055500007CA83E807003A4A07F11C0307CA83E831
:105560000700384A07F1100307CA83E80700FF2342
:10557000FB737B6803F1180007F10F02012345F26A
:10558000010100F01BFB78637B6B002B0CD1012326
:10559000FB737B6803F1180007F10F0201234FF43E
:1055A000AB4100F00BFB78637B6B002B11D13B68A8
:1055B000063338333B4413F8103CFB737B6803F12C
:1055C000180007F10F02012345F2815100F0F6FAAD
:1055D00078637B6B002B11D13B68063338333B4437
:1055E00013F81C3CFB737B6803F1180007F10F02F2
:1055F000012345F2825100F0E1FA78637B6B002BC6
:1056000011D13B68063338333B4413F8283CFB7315
:105610007B6803F1180007F10F02012345F288515E
:1056200000F0CCFA78637B6B002B02D04FF0FF3395
:105630007B637B6B18463837BD4680BD94570208A4
:10564000A0570208AC57020880B584B000AF78605C
:1056500039600023FB727B6803F1180007F10B022D
:10566000012343F6200100F092FA0346002B03D0F9
:105670004FF0FF33FB60CBE0FB7A23F00603DBB295
:10568000FB727B6803F1180007F10A02012343F65D
:10569000210100F07CFA0346002B03D04FF0FF33CA
:1056A000FB60B5E00023FB60BB7A23F00603DBB2AE
:1056B000BB723B68032B56D03B68032B7FD83B68FB
:1056C000012B29D03B68022B79D17B6803F11800AC
:1056D00007F10B02012343F6200100F06FFA0346A5
:1056E000002B03D04FF0FF33FB608AE0BB7A43F01E
:1056F0000603DBB2BB727B6803F1180007F10A02F4
:10570000012343F6210100F059FA0346002B78D01B
:105710004FF0FF33FB6074E0FB7A43F00603DBB22B
:10572000FB727B6803F1180007F10B02012343F6BB
:10573000200100F043FA0346002B03D04FF0FF3363
:10574000FB6060E07B6803F1180007F10A020123A7
:1057500043F6210100F032FA0346002B53D04FF0FC
:10576000FF33FB604FE0FB7A43F00603DBB2FB72D2
:105770007B6803F1180007F10B02012343F62001B7
:1057800000F01CFA0346002B03D04FF0FF33FB6000
:105790003BE0BB7A43F00603DBB2BB727B6803F1EC
:1057A000180007F10A02012343F6210100F006FA6E
:1057B0000346002B29D04FF0FF33FB6025E07B68C8
:1057C00003F1180007F10B02012343F6200100F05A
:1057D000F5F90346002B03D04FF0FF33FB6016E0D2
:1057E0007B6803F1180007F10A02012343F6210147
:1057F00000F0E4F90346002B09D04FF0FF33FB60C3
:1058000005E000BF04E000BF02E000BF00E000BF11
:10581000FB6818461037BD4680BD80B586B000AF26
:105820007860396000237B6107F10C0319467868C2
:10583000FFF7A6F80346002B03D04FF0FF337B6140
:105840004EE03B683B613B69442B12D11023FB7255
:105850007B6803F1180007F10B0201234FF4AC4100
:1058600000F0ACF90346002B3AD04FF0FF337B61D8
:1058700036E0FB68022B02D8002B03D10AE0032B91
:1058800004D007E03B695B083B6103E03B699B0890
:105890003B6100BF0023FB727B6803F1180007F136
:1058A0000B0201234FF4AC4100F088F90346002BB2
:1058B00003D04FF0FF337B6112E03B69DBB2FB7238
:1058C0007B6803F1180007F10B02012345F2016127
:1058D00000F074F90346002B02D04FF0FF337B61D8
:1058E0007B6918461837BD4680BD80B584B000AFCF
:1058F000786039600023FB723B68012B40F0CE805A
:105900007B6803F1180007F10B02012343F2380111
:1059100000F054F9F860FB68002B0AD17B6803F1B2
:10592000180007F10B02012343F2390100F046F998
:10593000F860FB68002B0CD17C23FB727B6803F1C1
:10594000180007F10B0201234FF4685100F036F9FB
:10595000F860FB68002B0CD10123FB727B6803F11C
:10596000180007F10B02012343F6082100F026F985
:10597000F860FB68002B0CD12723FB727B6803F1D6
:10598000180007F10B02012343F6092100F016F974
:10599000F860FB68002B0CD10023FB727B6803F1DD
:1059A000180007F10B02012343F60A2100F006F963
:1059B000F860FB68002B0CD1F623FB727B6803F1C7
:1059C000180007F10B02012343F60B2100F0F6F853
:1059D000F860FB68002B0CD10423FB727B6803F199
:1059E000180007F10B02012343F60D2100F0E6F841
:1059F000F860FB68002B0AD17B6803F1180007F1FF
:105A00000B02012343F60E2100F0D8F8F860FB6882
:105A1000002B0CD10B23FB727B6803F1180007F1FC
:105A20000B02012343F6022100F0C8F8F860FB687E
:105A3000002B0CD18823FB727B6803F1180007F15F
:105A40000B02012343F6032100F0B8F8F860FB686D
:105A5000002B0CD10B23FB727B6803F1180007F1BC
:105A60000B02012343F6142100F0A8F8F860FB684C
:105A7000002B0CD18823FB727B6803F1180007F11F
:105A80000B02012343F6152100F098F8F860FB683B
:105A9000002B2BD04FF0FF33FB6027E07B6803F136
:105AA000180007F10B0201234FF4685100F06FF862
:105AB0000346002B03D04FF0FF33FB6016E00023BA
:105AC000FB60FB7A23F00403DBB2FB727B6803F11B
:105AD000180007F10B0201234FF4685100F06EF833
