:020000040800F2
:1000000000000824691A0008A1290008A529000891
:10001000A9290008AD290008B12900080000000046
:10002000000000000000000000000000B5290008EA
:10003000B929000800000000BD290008C1290008F6
:10004000B91A0008B91A0008B91A0008B91A000844
:10005000B91A0008B91A0008B91A0008B91A000834
:10006000B91A0008B91A0008B91A0008B91A000824
:10007000B91A0008B91A0008B91A0008B91A000814
:10008000B91A0008B91A0008B91A0008B91A000804
:10009000B91A0008B91A0008B91A0008B91A0008F4
:1000A000B91A0008B91A0008B91A0008B91A0008E4
:1000B000B91A0008B91A0008B91A0008B91A0008D4
:1000C000B91A0008B91A0008B91A0008B91A0008C4
:1000D000B91A0008B91A0008B91A0008B91A0008B4
:1000E000B91A0008B91A000800000000B91A00087F
:1000F000B91A0008B91A0008B91A0008B91A000894
:10010000B91A0008B91A0008B91A0008B91A000883
:10011000B91A0008B91A0008B91A0008B91A000873
:10012000B91A0008B91A0008B91A0008C529000848
:10013000B91A0008B91A0008B91A0008B91A000853
:10014000B91A0008B91A00080000000000000000F9
:10015000B91A0008B91A0008B91A0008B91A000833
:10016000B91A0008B91A0008B91A0008B91A000823
:10017000B91A0008B91A0008CD29000800000000CB
:10018000B91A0008B91A0008B91A0008B91A000803
:10019000B91A0008B91A0008B91A0008B91A0008F3
:1001A000F9290008B91A0008ED290008B91A000851
:1001B000B91A0008B91A0008B91A0008B91A0008D3
:1001C000B91A0008B91A0008B91A0008B91A0008C3
:1001D000B91A0008B91A0008B91A0008B91A0008B3
:1001E000B91A0008B91A0008B91A0008B91A0008A3
:1001F000B91A0008B91A0008B91A0008B91A000893
:10020000B91A0008B91A0008B91A0008B91A000882
:10021000B91A0008B91A0008B91A0008B91A000872
:10022000B91A0008B91A0008D5290008E129000800
:10023000B91A0008B91A0008B91A0008B91A000852
:10024000B91A0008B91A0008B91A0008B91A000842
:10025000B91A0008B91A0008B91A0008B91A000832
:10026000B91A0008B91A0008B91A0008B91A000822
:10027000B91A0008B91A0008B91A0008B91A000812
:10028000B91A0008B91A0008B91A000800000000DD
:08029000B91A0008B91A0008B0
:1002A00010B5054C237833B9044B13B10448AFF3B0
:1002B00000800123237010BD608000240000000036
:1002C000E89C010808B5034B1BB103490348AFF391
:1002D000008008BD0000000064800024E89C010844
:1002E00001F0FF01102A2BDB10F0070F08D010F8E7
:1002F000013B013A8B422DD010F0070F42B3F6D1EB
:10030000F0B441EA012141EA014122F007047FF003
:1003100000070023F0E80256083C85EA010586EA5A
:10032000010685FA47F5A3FA87F586FA47F6A5FA96
:1003300087F68EB9EED1F0BC01F0FF0102F00702A2
:1003400032B110F8013B013A83EA010313B1F8D14D
:100350000020704701387047002D06BF354603382E
:10036000073815F0010F07D1013015F4807F02BF67
:10037000013015F4C03F0130F0BC0138704700BFB8
:10038000034613F8012B002AFBD1181A01387047D5
:1003900007EE900AF5EEC07AF1EE10FA01D400F003
:1003A0000BB8F1EE677A08B517EE900A00F004F882
:1003B000404261EB410108BD9FED0B6B07EE100A57
:1003C0009FED0B5BB7EEC77A27EE066BBCEEC66BF4
:1003D000B8EE464BA4EE457BFCEEC77B16EE101A3A
:1003E00017EE900A704700BF000000000000F03DCB
:1003F000000000000000F04170B5C04E0A460546FE
:10040000012130460EF000FE0446002800F0AD84C5
:10041000BB49BC4A0868336840F0804003F5E26598
:100420000860106840F08040C1E90233106003F1B9
:10043000C000B549C2E902000868B44A40F08040F3
:10044000086003F51C70C1E902001068B04940F073
:100450008040106003F54C70C2E902000868AD4AA4
:1004600040F08040086003F59660C1E90200106822
:10047000A94940F08040106003F59A60C2E902008B
:100480000868A64A40F080409560086003F5CA609D
:10049000C1E902001068A24940F080401060D560B8
:1004A00003F5C95508689F4A40F08040086003F58D
:1004B0000C60C1E9020010689B4940F08040106068
:1004C00003F51860C2E902000868984A40F08040CD
:1004D000086003F54860C1E902001068944940F0E3
:1004E0008040106003F54C60C2E902000868914A40
:1004F00040F08040086003F59650C1E902001068A2
:100500008D4940F08040106003F5A250C2E902001E
:1005100008688A4A40F08040086003F5BD50C1E990
:1005200002001068864940F08040C2E90255106020
:1005300003F548550868834A40F08040086003F599
:10054000F950C1E9020010687F4940F08040106016
:1005500003F5FB50C2E9020008687C4A40F0804085
:10056000086042F260501844C1E9020010687849FE
:1005700040F08040106042F2E0601844C2E902009E
:100580000868744A40F08040086003F52950C1E9CA
:1005900002001068704940F08040106003F52F5051
:1005A000C2E9020008686D4A40F08040086003F527
:1005B0004750C1E902001068694940F08040C2E933
:1005C0000255106003F5AF450868664A40F0804068
:1005D000086003F56050C1E902001068624940F00C
:1005E0008040106003F56650C2E9020008685F4A67
:1005F00040F08040086043F6E0401844C1E9020042
:1006000010685B4940F08040106043F66060184419
:10061000C2E902000868574A40F08040086044F28E
:1006200060701844C1E902001068534940F08040EE
:10063000106044F2C0701844C2E9020008684F4AD2
:1006400040F08040086045F240501844C1E9020083
:1006500010684B4940F08040C2E9025510600868BC
:10066000484A40F08040086045F690401844C1E98F
:1006700002001068444940F08040106045F6D060A8
:100680001844C2E902000868404A40F0804008600F
:1006900046F650401844C1E9020010683C4940F059
:1006A0008040106046F6B0401844C2E90200086875
:1006B000384A40F08040086047F630201844C1E9CD
:1006C00002001068344940F08040106047F67040E6
:1006D0001844C2E902000868304A40F080400860CF
:1006E00048F280101844C1E90200106848F2C03195
:1006F00040F080401944106052E000BF148500248F
:10070000887C0024687C0024587C0024287C0024F9
:10071000187C0024E87B0024D87B0024B87B0024CC
:10072000987B0024787B0024587B0024387B0024AD
:10073000187B0024F87A0024D87A0024B87A0024A0
:10074000987A0024787A0024587A0024387A002491
:10075000187A0024F8790024D8790024C879002474
:100760009879002488790024587900244879002455
:100770002879002408790024E8780024C878002427
:10078000A878002488780024687800244878002419
:100790002878002408780024E8770024C87700240B
:1007A00049F24010C2E902111844B749B74A0D682E
:1007B000C1E90200106845F0804540F080400D60BE
:1007C000B349106049F2A0101844C2E90200086859
:1007D000B04A40F08040086049F620701844C1E9F2
:1007E00002001068AC4940F0804010604AF260108E
:1007F0001844C2E902000868A84A40F08040086036
:100800004AF270601844C1E902001068A44940F03F
:10081000804010604AF6B0001844C2E9020008683F
:10082000A04A40F0804008604BF230601844C1E9B3
:10083000020010684BF2906140F080401944106053
:100840004CF21040C2E9021118449749974A0D68CA
:10085000C1E90200106845F0804540F080400D601D
:10086000934910604CF250601844C2E902000868D5
:10087000904A40F0804008604CF660301844C1E96E
:10088000020010688C4940F0804010604CF6A05087
:100890001844C2E902000868884A40F080400860B5
:1008A0004DF6A0701844C1E902001068844940F078
:1008B000804010604EF220001844C2E9020008682F
:1008C000804A40F0804008604FF620001844C1E99B
:1008D000020010684FF6203140F08040194410604B
:1008E0007948C2E9021118447849794A0D68C1E98A
:1008F0000200106845F0804540F080400D60754969
:10090000106075481844C2E902000868734A40F054
:100910008040086072481844C1E9020010687149BB
:1009200040F08040106070481844C2E90200086836
:100930006E4A40F0804008606D481844C1E90200EA
:1009400010686C4940F0804010606B481844C2E960
:1009500002000868694A40F080400860684818440E
:10096000C1E902001068674940F0804019441060F6
:100970006548C2E9021118446449654A0D68C1E935
:100980000200106845F0804540F080400D606149EC
:10099000106061481844C2E9020008685F4A40F0EC
:1009A000804008605E481844C1E9020010685D4953
:1009B00040F0804010605C481844C2E902000868BA
:1009C0005A4A40F08040086059481844C1E9020082
:1009D0001068584940F08040106057481844C2E9F8
:1009E00002000868554A40F08040086054481844A6
:1009F000C1E902001068534940F08040194410607A
:100A00005148C2E9021118445049514A0D68C1E9E0
:100A10000200106845F0804540F080400D604D496F
:100A200010604D481844C2E9020008684B4A40F083
:100A3000804008604A481844C1E9020010684949EA
:100A400040F08040106048481844C2E9020008683D
:100A5000464A40F08040086045481844C1E9020019
:100A60001068444940F08040106043481844C2E98F
:100A700002000868414A40F080400860404818443D
:100A8000C1E9020010687DE0A8770024887700247F
:100A900068770024487700243877002408770024FA
:100AA000F8760024B876002478760024387600247E
:100AB000F8750024B8750024787500243875002472
:100AC000F8740024B8740024E00101007874002454
:100AD0003874002408740024E0040100D873002452
:100AE000E01C0100A8730024601D0100787300243D
:100AF0006035010048730024603801001873002439
:100B0000203F010020420100205A0100E872002429
:100B1000B872002488720024A05A01005872002480
:100B2000A072010028720024A0750100F871002451
:100B3000607C0100C8710024607F0100987100246E
:100B400060A9010040AA0100C0F3010068710024FF
:100B5000387100240871002400F90100D8700024C5
:100B6000D0040200A8700024100A0200787000244B
:100B70009053020048700024705402001870002442
:100B8000F09D02007C4940F08040194410607B4891
:100B9000C2E9021118447A497A4A0D68C1E9020093
:100BA000106845F0804540F080400D607649106047
:100BB00076481844C2E902000868754A40F080404F
:100BC000086074481844C1E902001068724940F096
:100BD0008040106071481844C2E902000868704AF9
:100BE00040F0804008606F481844C1E90200106876
:100BF0006D4940F0804010606C481844C2E9020022
:100C000008686B4A40F0804008606A481844C1E9AF
:100C100002001068684940F080401944106067483D
:100C2000C2E9021118446649664A0D68C1E902002A
:100C3000106845F0804540F080400D6062491060CA
:100C400062481844C2E902000868614A40F08040E6
:100C5000086060481844C1E9020010685E4940F02D
:100C6000804010605D481844C2E9020008685C4A90
:100C700040F0804008605B481844C1E902001068F9
:100C8000594940F08040106058481844C2E90200B9
:100C90000868574A40F08040086056481844C1E947
:100CA00002001068544940F08040194410605348D5
:100CB000C2E9021118445249524A0D68C1E90200C2
:100CC000106845F0804540F080400D604E4910604E
:100CD0004E481844C2E9020008684D4A40F080407E
:100CE00008604C481844C1E9020010684A4940F0C5
:100CF0008040106049481844C2E902000868484A28
:100D000040F08040086047481844C1E9020010687C
:100D1000454940F08040106044481844C2E9020050
:100D20000868434A40F08040086042481844C1E9DE
:100D3000020041491068194440F08040C2E90211A4
:100D40003E4910600D683E483E4A45F080451844D3
:100D50000D60C1E9020010683B4940F08040194431
:100D600010602046C2E9021170BD122230212846CF
:100D70000EF020FB204670BD30A3020000AF020041
:100D8000E86F0024B86F0024886F002440B402008C
:100D9000586F0024C0FD0200286F0024A0FE02004E
:100DA000F86E002420480300C86E0024604D030044
:100DB000986E002430590300705E030070F1030048
:100DC000686E0024586E0024486E002430F303003F
:100DD000386E002430230600286E002430370600C9
:100DE000C86C002430500600A86C00244450060053
:100DF000886C0024F451060034520600C4520600E8
:100E0000686C0024486C0024286C002404530600FD
:100E1000086C002484530600E86B0024A4530600E9
:100E2000C86B002424550600A86B0024E455060076
:100E3000886B00249457060054580600686B002401
:100E4000D4590600486B0024F45906002DE9F04FF0
:100E5000CC4DB7B00A460446012128460EF02CF9C5
:100E60000290002800F0F7842B6842F22024C64A42
:100E700041F6445BC5481C191A44C54948F220266E
:100E800044F2101919444CF630489E19994498447C
:100E90004DF2243EDFF8A8C347F260579E4441F666
:100EA00044759C441F441D4449F2442AC0E902226F
:100EB000B8489A44B84AC0E902111A44B748B84938
:100EC000C0E90222C1E90222B64AB7481A44B7492A
:100ED000C0E902221944B648B64AC0E902111A44D0
:100EE000B549B648C1E90222B549C0E90222194410
:100EF000B448B54AC0E902111A44B448B449C0E93B
:100F000002221944B34841F63062C0E902111A4482
:100F1000B148B249C0E90222C1E9022203F5C0602A
:100F2000AF49B04AC1E902001A44AF48AF49C0E92D
:100F30000222AF4A03F54040C1E90233C2E902335D
:100F4000AC494CF21012C1E902001A44AA49AB485C
:100F5000C1E902224EF21012A9491A44C1E9022243
:100F6000A849A94A19441A44C0E90233A748C0E96C
:100F70000211A749A748C1E90222A74AA7491A4472
:100F8000C1E90222A649C1E9022203F58871A54AF6
:100F9000C2E9021142F21012A3491A44C1E9022225
:100FA000A24AA3491A44C1E902224DF2605249F211
:100FB0008031C0E902331A449E48194413929E4A74
:100FC000C0E902339D489A18C0E902334FF28030DD
:100FD000149246F6604218189A18159047F6442065
:100FE000339443F27024181834925A4648F6B06B82
:100FF0001C191696359045F27066584643F6A03B8C
:101000009E1917945C4645F6A07B9A1818965E4682
:1010100042F6744B181803925A4649F2E07B1C19A9
:101020001990584643F2303B9E191A945C4645F29B
:10103000307B18181B965E4642F2044B1C901C191C
:101040009E19584648F6707B1D9418181E965E46E9
:1010500041F2305B05909A189E19584643F6301BB2
:10106000049218181F965E4644F6145B06909E196B
:10107000584647F2141B181822965E4642F2447BEB
:1010800007909E1958464BF6806B239618185E46BB
:1010900044F6C07B08905C4647F6C07B9E195846D4
:1010A00043F6843B1C1925965E464CF6C02B2694CD
:1010B00018189E195C4644F2404B31901C190B964F
:1010C0005E4645F6840B27949E195C4646F2844B97
:1010D0001C1928965E4641F2B06B0C945C4642F6B1
:1010E000B03B9E19584644F2B00B29961C195E4637
:1010F00046F6F07B18180D945A4648F2F04B9E19AC
:101100002A905C4641F6302B9A182B96584642F6A8
:10111000307B0E921C195E4644F2304B18182C940A
:101120005A4647F2703B9E190F90584648F6700B8E
:101130009A182D965E4646F6C02B18182E925A46DF
:1011400044F2604B9E191090584649F2604B2F961E
:101150009A185E461818119203F54E549E19129073
:1011600003F58B5003F50762329603F5736603F5BA
:101170000B6B219603F53866099603F543663096A6
:1011800060E000BF1885002480E50100E8760024B7
:1011900084A50200186E002474A10100086E0024CA
:1011A000C876002434910100A876002474A10200BE
:1011B000F86D0024348D010088760024E86D002449
:1011C000A0A90200D86D002430AA0200687600248D
:1011D000302A0300C86D0024B86D0024487600242E
:1011E000287600243C250300A86D0024986D002477
:1011F00008760024886D0024E8750024786D0024AA
:10120000686D002410A1010050880100C8750024F9
:10121000A8750024586D002410610200486D002458
:1012200088750024687500244875002410010100A9
:1012300028750024386D0024E04E0100286D00243C
:101240002403010003F59C56019603F5BD56009654
:1012500003F54C76209603F56076249603F5FE564A
:101260000A96C54EC6E90299DFF83094C34EC9E923
:101270000288DFF82C8403F53A69C8E902EEDFF84A
:1012800024E403F51C78CEE902CCDFF81CC403F596
:10129000B07ECCE90233DFF814C4CCE902EEDFF80B
:1012A00010C403F5AB5EC6E90233CCE90200DFF8F7
:1012B00004C4139ECCE902EEDFF8FCC303F5676EAD
:1012C000CCE90277AE4F03F58D5CC7E90266AD4EFF
:1012D000149FC6E90200AC4EC6E90255AB4EAC4DB8
:1012E000C6E90233AB4EC6E90244AB4EC5E902770C
:1012F000C6E90211159FA94DA94EC5E90200C6E92C
:101300000277019DA748A84EC0E90255C6E90233FD
:1013100003F50E55A548A64EC0E90255C6E902449C
:10132000A44C03F5087503F59150339FA24ECDF8F8
:101330004CC003F5136CC4E90211A049A04CCDF8D0
:1013400050C0DFF878C3C1E902339E49C1E90255B4
:101350009D499E4DC1E902009D499E48C1E9023365
:101360009D49C1E90277169F9C49C4E902779C4CCC
:10137000349FC4E902339B4CC4E90277359F9A4CF1
:10138000C6E90277994EC6E902AA994EDFF830A362
:10139000C6E90233CAE90288179FDFF828A3DFF8FD
:1013A0002883944ECAE90277189FDFF820A3CAE980
:1013B0000277DFF81CA31B9FCAE90222DFF814A3FF
:1013C000CAE90277039FDFF810A3CAE902771A9FE0
:1013D000DFF808A3CAE90277199FDFF804A3CAE976
:1013E0000277009FDFF8FCA2CAE90277DFF8F8A2D3
:1013F000C8E90222CAE902227F4ADFF8F082C2E984
:1014000002337E4AC8E902EEC2E90299139F7C4A80
:10141000DFF8DC82DFF8DCE2C2E90277009F794A7C
:10142000C2E90277049A209FC8E902221C9ACEE9F9
:101430000222754AC2E90233149AC5E902221D9AB2
:10144000C1E902221E9AC4E90233CCE90222219C9E
:101450006E4A2146C6E90277C0E90244C2E9024465
:10146000059C6B4AC2E902441F9C6A4AC2E90244D5
:10147000694AC2E90233694AC2E90277684A069FAB
:10148000C2E90211674A03F56151C2E90233664AB3
:10149000C2E90277229F654AC2E90277644A079F40
:1014A000C2E90233634AC2E90211634A03F5874184
:1014B000C2E90277239F614AC2E90277604AC2E922
:1014C0000233249E5F4A0998019D089FC2E9026683
:1014D0005D4AC2E902005D4AC2E902555C4A0A9DC2
:1014E000C2E9021103F5E7415A4AC2E902115A4A18
:1014F00003F57C61C2E90200584AC2E90277259FE0
:10150000574AC2E90277574AC2E90200564AC2E97D
:10151000021103F5BE51554AC2E90211544A03F5BE
:101520008861C2E90233534AC2E90255269F524AF2
:101530003198C2E90277514AC2E90200504AC2E931
:1015400002550B9D4F4AC2E90255279D4E4AC2E9FA
:1015500002554E4A289DC2E902334D4AC2E90211A2
:1015600003F544614B4AC2E902114B4A03F5A2510B
:10157000C2E90233C0E000BF186D002408750024E2
:1015800088740024986C0024786C0024386C002443
:1015900068740024186C002418740024586C00240B
:1015A000F873002448740024F86B00242874002485
:1015B000D86B0024E8730024386B0024B86B002437
:1015C00098730024C8730024B87300246872002440
:1015D000986B0024E87A0024786B00244872002479
:1015E00088730024586B0024087B0024687300244F
:1015F000787C002478720024A87B0024F8720024F0
:10160000D8720024687B0024287B0024C87A002438
:10161000A87A002418720024887A00240872002412
:10162000E8710024687A0024487A0024D8710024E4
:10163000B8710024287A0024087A0024A8710024B4
:10164000E879002488710024B8790024A87900245E
:101650007871002458710024787900246879002476
:10166000487100243879002428710024187100245E
:1016700018790024F8780024F8700024E870002419
:10168000D8780024B8780024C87000249878002402
:10169000B87000249870002478780024086D002425
:1016A000F86C0024E8740024E86C0024C87400245A
:1016B000D86C0024B86C0024A8740024387200246C
:1016C0005873002438730024487C002428730024B5
:1016D000087C0024A8720024F87B0024C87200242F
:1016E00008730024887B0024C87B0024387C0024F5
:1016F000487B0024987200245B4AC2E902115B4ACD
:1017000003F57351C2E90255594A0C9DC2E90233EF
:10171000584AC2E90211584A03F5A661C2E90255C6
:10172000299D564AC2E90255554A0D9DC2E9023328
:10173000544AC2E90211544AC2E902BB534AC2E9FF
:1017400002552A9D524AC2E902552B9D514AC2E9CF
:101750000255514A0E9DC2E902BB504AC2E90255E8
:101760002C9D4F4AC2E902554E4AC2E902BB4E4A7D
:10177000C2E902334D4AC2E902BB30994C4A0F9C80
:10178000C2E902114B4AC2E902442D9C4A4AC2E90D
:1017900002442E9C494AC2E90244494A109CC2E9CB
:1017A0000211484AC2E902442F9C474AC2E9024456
:1017B000464AC2E90233464AC2E90211454A03F5E4
:1017C0008C51C2E90233444AC2E90266434AC2E983
:1017D000021103F51A51424AC2E9021103F56E5192
:1017E000404AC2E90211404A1199329EC2E90233CD
:1017F0003E4AC2E902113E4A03F51A61C2E90200FB
:101800003C4A1298C2E902333B4AC2E9021103F58D
:1018100085513A4AC2E90211394A03F5A061C2E989
:101820000200384A3848C2E90266384AC0E9023341
:10183000C2E90211364803F57061364AC0E9023345
:10184000C2E90211029803F11401334AC2E90211FC
:1018500037B0BDE8F08F1322302120460DF0AAFDED
:10186000029837B0BDE8F08F5878002488700024C3
:1018700068700024387800241878002458700024F8
:10188000F877002438700024D8770024B877002433
:1018900028700024087000249877002478770024AA
:1018A000F86F002458770024D86F0024C86F0024F4
:1018B0002877002418770024A86F0024986F00244C
:1018C000D876002498760024786F00245876002477
:1018D000686F0024486F002418760024D87500240F
:1018E000386F0024186F0024987500245875002460
:1018F000086F002418750024E86E0024D8740024B2
:1019000098740024D86E0024B86E00245874002403
:10191000886E0024A86E0024786E00242DE9F04320
:10192000002391B005240F460193194600941646F2
:1019300001232F4A80460EF057F810F0FF090446A5
:1019400003D0204611B0BDE8F08302A800F070F883
:10195000002846D07FB1BDF8163063B1043F4D4634
:10196000294657F8042F05A801350DF039FBBDF8BD
:101970001630AB42F4DC7EB1BDF80E3063B1043EEC
:101980000025294656F8042F03A801350DF028FB41
:10199000BDF80E30AB42F4DCD8F8007002A938462E
:1019A0000EF0FCF90646A0B102A9FEF725FD05469A
:1019B00002A93046FFF74AFA05403846EDB20EF06C
:1019C00089FB35B128B169F30704204611B0BDE8A1
:1019D000F083D8F800000DF0E1FB04465FFA80F9CF
:1019E000F1E7D8F800000DF0D9FB0446A9E700BFE5
:1019F0000000002408B10DF0E3BC034B034A184675
:101A00001A600DF0DDBC00BF000000240001C0A181
:101A100008B10DF061BE034B034A18461A600DF081
:101A20005BBE00BF000000240001C0A10EF07CBC22
:101A30000346A0B110B50A4C84B094E803006A468E
:101A400008340DF1080C82E8030094E803008CE8E8
:101A50000300614618460DF087FB04B010BD7047C7
:101A6000009D0108FEE70000DFF834D0002103E00C
:101A70000C4B5B58435004310B480C4B42189A42B4
:101A8000F6D30B4A02E0002342F8043B094B9A428A
:101A9000F9D300F0F3FF15F0E7FF00F027FE7047E1
:101AA00000000824208D090800000024088000247C
:101AB00060800024C0960024FEE70000024B1B68F3
:101AC0001868C0F3434070471C8500240E4B1A6809
:101AD0009368B3B1186810F0010013D0586888B14A
:101AE000436873B1408868B11B681068D3ED007A11
:101AF000C0F3C050F5EE407AF1EE10FA01D001309B
:101B000070470020704700BF1C850024084A01234D
:101B1000F7EE007A1268126802F07F02403A9340B2
:101B200000EE103AB8EE400A87EE800A704700BF18
:101B30001C850024094B1B689B6863B11A68D20797
:101B400009D55B683BB15A682AB15B881BB1136841
:101B500093ED000A70479FED020A70471C85002430
:101B600000000000104B1B689A688AB1136813F0DC
:101B700001000CD0506850B102884368920709D523
:101B800023B1408818B15B681878704718467047D1
:101B900010467047002BF9D040880028F7D05B68CA
:101BA00093F90000704700BF1C850024F0B5104C6D
:101BB000002583B00F462560164603682A4601A912
:101BC00020460193FFF7AAFE29462068FFF712FF7F
:101BD000034620682946074C2360FFF719FF236856
:101BE000054A5B6810603B604368336003B0F0BD3A
:101BF00024850024208500241C85002410B5074A74
:101C00000B46074C12682168064C486020685360F8
:101C1000FFF70CFF012800D0FEE710BD1C85002453
:101C200020850024248500240268D36823F0010362
:101C3000D36000F049BD00BF836B9A6C526D022ADD
:101C400006D0012283F83520DA6C42F04002DA64D3
:101C500000F03ABD03460B490B4870B59C6B82B04F
:101C60000126E36B626CA56B9B00009603FB0522CB
:101C700009F0F2FC08B902B070BD02B0BDE87040D6
:101C800000F022BD000000302885002401680E4BC2
:101C9000CA68186C22F00102CA609A6B01329A631A
:101CA0009A6B824200D070471A68D16841F00101F6
:101CB000D160126812F0020203D0012283F83520AD
:101CC00070479A63704700BFB892002490F82030A4
:101CD000002BFBD0704700BF00220346104683F85C
:101CE000202004F0C7BE00BF5E4A0023D2F8D41003
:101CF0002DE9F04141F001015B4C866E82B0236119
:101D00000546E3622046C4E90D33C2F8D410D2F888
:101D1000D430564A03F0010322604FF08042019311
:101D200080230199E3602362A3624FF08053C4E9EA
:101D3000012340F2022240F60803C4E905234FF0D4
:101D40000073202263624FF40033E261236309F0E1
:101D500009FC00287ED100220F217A2005F092FF95
:101D60007A2005F0CBFF002004F0BAFEC82005F071
:101D700057FF00220121104604F046FC002866D1DE
:101D80003B4A936D43F440339365936D23F0C073E6
:101D900043F40003936545F24063364A12689A4261
:101DA00045D0696A002004F075FE074600283DD141
:101DB000314D642005F034FF95F83430012B50D0BC
:101DC000296802234FF00108A86C85F8353085F8A2
:101DD00034800B68294A43F480430B600B6823F07E
:101DE00002030B600B6841F8283B254BAF63C363CC
:101DF000A0236264EB63234A234B0765C3646265D7
:101E0000F022EB6B2A64214A6E6406F09DFC0346C7
:101E100018BB2968C8200A6842F001020A6085F8E8
:101E2000343002B0BDE8F04105F0FABEFEE7184AD2
:101E3000C02343F2360110680DF103028DF8033020
:101E40000123183003F0F2FA0028AAD0FEE700F0D0
:101E50003BFC95E700F038FC7DE74023EB6485F818
:101E60003580FEE7004402582885002440000052D7
:101E70000004024084920024B89200248D1C0008C3
:101E8000551C0008291C0008391C000800000030FF
:101E90000893002408B572B6044B0122002083F891
:101EA000202004F0D7FD62B608BD00BF988600244C
:101EB00072B662B6704700BF00F006BC1E4A012130
:101EC000136830B523F00103002587B00446136082
:101ED000284605F007FC00204FF44871236F6A463E
:101EE000CDE9000100204FF4F071CDE9020129464F
:101EF0002846CDE9045305F001FC10480CF09EFE85
:101F000028460CF0CBFE4FF07F400CF0DFFE4FF088
:101F1000FF300CF0D3FE0A480CF0E0FE094B0A48F3
:101F200034259B680221626F05FB0303DA6509F023
:101F3000FDFA07B030BD00BF004000523C6C0908FC
:101F4000387E0024509300246C93002410B504467E
:101F500088B04FF07F400CF0D1FE414B4D22322132
:101F6000002004F0D1FE3F4B55224FF41B7100209E
:101F700004F0CAFE0CF0BAFE014601233A4AC988B1
:101F8000002001EB81010CF095FF0CF0AFFE014643
:101F90000123364AC988002001EB410199400CF029
:101FA00089FF0CF0A3FE01460123314AC9880020B5
:101FB00001EB810199400CF07DFF0CF097FEC18888
:101FC00001232C4A01EB410001EB800100200CF0C1
:101FD00071FF0CF08BFE01460123274AC9880020BF
:101FE000C1EBC10199400CF065FF0CF07FFE01468A
:101FF0000123224AC9880020C1EB01110CF05AFFCD
:102000000CF074FE014601231D4AC9880020090115
:102010000CF050FF00236363636B002BFCD0606FF8
:102020000222184900F0EAFA00234FF448714FF4F5
:10203000F0701A460091CDE90533CDE90333CDE9BF
:102040000101D4E91C1000F077FA4FF47A6005F032
:10205000E7FD4FF07F4008B0BDE810400CF04EBEE9
:10206000DCE00808A495080898940808B0940808CB
:10207000C4940808E89408081495080840950808CE
:102080005C950808007017002DE9F84F846E05462E
:1020900001224FF41631204600F0B0FA4FF07F4095
:1020A0000CF02CFE6B6F1E4D4FF4487E03F5A070B4
:1020B0004FF0000C1D44AEEB0C01064604F52077F2
:1020C000890034F8022B02F01F08C2F3451BC2F34B
:1020D0004129C2F382034FEAD22ABC4243EAC80331
:1020E00006EB010849EA8B094FEA523243EA092319
:1020F00042EACA0243EA024343F07F43C6E900339F
:10210000735006F10806C8F80430DAD100F5C8505B
:102110000CF5C86C0EF5C86E8542CCD1BDE8F88FC1
:102120004071170010B50446DFED357A9AB0354995
:10213000A36DE26808A893ED007A636D27EE277A15
:1021400053F82220B7EEC77A8DED007B15F0A6FB81
:102150000CF0CCFD0123C18808AA002099400CF0A6
:10216000A9FE294908A8D4E90E32D21A15F096FB27
:102170000CF0BCFDC188012308AA090100200CF065
:1021800099FEDFED226A224908A8D4E910239B1AA0
:1021900007EE903AF8EE677A86EEA77AB7EEC77A3E
:1021A00053EC172B15F07AFB0CF0A0FD0146012330
:1021B00008AAC988002001EBC10199400CF07AFE01
:1021C00000236363636B002BFCD0606F0222114914
:1021D00000F014FA00234FF448714FF4F0701A46DF
:1021E0000091CDE90533CDE90333CDE90101D4E90F
:1021F0001C1000F0A1F9032003F0AEFD1AB010BDD1
:102200000000C842789508088495080800007A44C0
:102210009895080800701700024B012202215A63AA
:1022200009F084B9988600242DE9F041044690B065
:1022300000F080F94FF4A072A36E4FF002088026E0
:1022400080270B930CA9636E206408A80F93F023DA
:10225000CDF82880CDF83880CDE908230022CDE9DB
:102260000C670CF00DFB48BB236B012B28D004221C
:10227000606EE16D0E92E26ACDF828800B900F91AE
:10228000CDE90867CDE90C67022B18D17AB14BF67E
:10229000FD728B180244157882429178A3F10303F2
:1022A0005D71A2F10302D97015791D71F3D100227D
:1022B0000CA908A80BF0F0FC30B3FEE7FEE7FEE740
:1022C00042464FF400410546606E00F097F9042342
:1022D000606E0E93E16DCDF828800B900F91D4E9DC
:1022E0000B23CDE90867012BCDE90C67CCD1069211
:1022F0002A46CDF80C80CDE904338023CDE90133A3
:1023000000932B4600F018F9226B012A12D0E36CDF
:10231000012B0CD0022B00D0FEE7E36D03F540410A
:102320001A6882F0803243F8042B9942F8D110B039
:10233000BDE8F081236E0249186800F05FF9E6E716
:10234000402C030010B5044600F0F4F80346D4E92D
:102350001610A363FFF752FC00F0ECF8E06310BD29
:1023600010B504462DED028B94F82030002BFBD0E5
:10237000FFF7A4FB02281DD0A06D0022012302213B
:10238000C4E9032304230322E361C4E905120522FF
:1023900004F10C0100F068F900F0CCF8E168606429
:1023A000D4E91523BDEC028B52F821201B68626032
:1023B000A36010BDFFF78AFB012879D0022837D02F
:1023C0000028D9D1FFF7A2FBA06D90F9043005EEEB
:1023D000903A90F9033006EE103A90F90230F8EE98
:1023E000E55A06EE903A90F90130B8EEC66A07EE6B
:1023F000103A90F90030F8EEE66A07EE903AB8EE3F
:10240000C77A65EE805AF8EEE77A26EE006A66EE45
:10241000806AC0ED045A27EE007A67EE807A80ED7C
:10242000036AC0ED026A80ED017AC0ED007AA4E78C
:10243000FFF780FBB0EE408AFFF794FB0146A06DEA
:1024400090F9042090F90330521A5B1A06EE102A14
:1024500090F9022007EE903A90F90130521AB8EE46
:10246000C66A5B1AF8EEE77A06EE902A07EE103A93
:1024700026EE086A67EE887A90F90030F8EEE66A90
:10248000B8EEC77A5B1AC0ED037A66EE886A80ED13
:10249000046A07EE903A27EE087AF8EEE77AC0ED84
:1024A000026A80ED017A67EE887AC0ED007A64E70F
:1024B000FFF740FBB0EE408AFFF754FB0146A06DEA
:1024C0000279C378521A5B1A06EE102A827807EE58
:1024D000903A4378521AB8EEC66A5B1AF8EEE77A79
:1024E00006EE902A07EE103A26EE086A67EE887A22
:1024F0000378F8EEE66AB8EEC77AC3E710B582B0A3
:102500000446006E01AA6946FFF750FBDDE9003280
:102510004BB1E3651AB1A26502B010BD13B1A36D52
:10252000002BF9D1FEE7E36D002AF7D0002BF2D1A2
:10253000F8E700BF05F06EBB2DE9F04F87B0DDF87E
:102540005090BDF840B0B9F1040FCDE90301184631
:10255000BDF84430DDE91278DDE9155605932CD835
:1025600007FB0022234850F8290000FB02F30293E6
:10257000214C4FF0010AA7EB0B07204607F02EF97C
:10258000003D4FF00003204618BF0125311E236295
:1025900018BF01212D046364FF23C4F80890C4F818
:1025A0004880E7606560A165C4F84CA0236507F02A
:1025B000D3F828B107B0BDE8F08F00230293D7E726
:1025C0005146204607F01CFB0028F3D1029B204611
:1025D000049A03991A44059B00935B4607F084F91B
:1025E0000028E7D11E21204607B0BDE8F04F07F0D4
:1025F000D7B900BF246309081494002440EA0103FA
:10260000DB0606D1012A05D0002901DD022A1AD0F5
:102610007047FEE70029FBDD10B40446BFF34F8F7F
:102620004B1E00F120010F4A23F01F030B44C2F898
:102630005C4220349C42FAD1BFF34F8FBFF36F8FBF
:102640005DF8044B7047BFF34F8F064A0144C2F850
:10265000680220300B1A002BF9DCBFF34F8FBFF359
:102660006F8F704700ED00E070B5141E27DDA0F1FC
:10267000040E05460E460EEB840E012C1DDD33467E
:1026800005F1040C2A46F2EC017ABCEC017AF4EE76
:10269000C77AF1EE10FA07D5D3E9001002ED017AFE
:1026A0004CED017AC3E90001724503F10403EAD15C
:1026B000013CAEF1040E012CE1DC013C00D170BD07
:1026C000AEF1040ED9E700BF08B5002003F032FBDD
:1026D000012003F02FFB022003F02CFB032003F06A
:1026E00029FB022003F014FBFEE700BF2DE9804820
:1026F0009FB005F027FB4FF05040984A0121984BBE
:102700000C900BA8ADF82C10CDE90D2305F038FB8B
:10271000042005F025FB934A536913F4003311D1CB
:10272000BFF34F8FBFF36F8FC2F85032BFF34F8F9D
:10273000BFF36F8F536943F400335361BFF34F8F7F
:10274000BFF36F8F8748436913F4803324D1C0F8F7
:102750008430BFF34F8FD0F8805043F6E076C5F356
:102760004E34C5F3C905640104EA06012B4641EA6B
:102770008372013BC0F860225A1CF8D1203C14F14E
:10278000200FF1D1BFF34F8F436943F4803343618E
:10279000BFF34F8FBFF36F8F05F000FA042009F0ED
:1027A0008BF8714B0021714A0191D96A21F0010126
:1027B000D962DB6A03F001030193936943F4404358
:1027C0009361936903F440430193019B93699B04D4
:1027D000FCD54FF480324FF0010802270023082473
:1027E0000BA80E9312931D931A971C931B94CDE97B
:1027F0000B8205221692A022CDE917270422CDE9EB
:102800001477199209F07CFC002840F0A5803F2342
:102810004FF040094FF0030B059003934FF4806392
:10282000394603A80694CDF810B0CDF82890099346
:10283000CDE9079909F0EAFF0546002840F08C80B1
:102840004B4E4C4C3368DFF850A143F080033360AB
:10285000D6F8F43043F00203C6F8F430D6F8F4307A
:1028600003F002030293029B05F0F2F9C4F82480FE
:102870002946C4F868A04FF416325046C4E9138BB9
:10288000C4E90B88D6F8E03043F40023C6F8E03002
:10289000D6F8E03003F400230B930B9B364B84F8FF
:1028A0002050236703F5000365636367334B1B68A0
:1028B000E365334B1B68A365324BA364324B6365FE
:1028C0000AF5C843E366314B6366314B236615F066
:1028D00062F84FF416313A465046FFF78FFE28460D
:1028E00003F0E8F9404603F0E5F9384603F0E2F971
:1028F000584603F0DFF92046FFF7E0FA2046FFF7DD
:10290000F3F92046FFF7FAFD224940F20313284667
:1029100081F802900B8004F01BFF00B1FEE705F088
:10292000FBF800B1FEE72046FFF710FB2046FFF75B
:10293000CDF92046FFF7A8FB2046FFF775FC20469F
:10294000FFF7CAF92046FFF7FDFC2046FFF708FD18
:102950002046FFF7E7FBE9E7FFF7B6FE18000103A3
:102960000000010100ED00E000040058004802589A
:102970000044025898860024000000D040800024C3
:102980002080002498850024F47C0024C0EE0224DA
:10299000F07C002494850024C0960024704700BF7A
:1029A000704700BFFEE700BFFEE700BFFEE700BFC5
:1029B000FEE700BF704700BF704700BF704700BF11
:1029C00005F01CB9002004F0C9B800BF002004F0D5
:1029D000BFB800BF014808F0B1BE00BF2885002481
:1029E000014807F03BBA00BF7C940024014807F07F
:1029F00073B800BF14940024014808F061BC00BF04
:102A00006C9300240120704708B515F027F81622B2
:102A100003464FF0FF301A6008BD00BF08B515F03F
:102A20001DF816230360FEE770B5161E07DD0C4681
:102A30008D19AFF3008004F8010BA542F9D130469F
:102A400070BD00BF70B5161E07DD0C468D1914F859
:102A5000010BAFF30080AC42F9D1304670BD00BF2E
:102A60004FF0FF30704700BF4FF4005300204B6021
:102A7000704700BF01207047002070479349002233
:102A8000934B9448F0B4D1F8884082B0924D44F40E
:102A90007004C1F888400C6944F004040C614FF0E4
:102AA000B044196841F0010119601A6119680840C1
:102AB00018609A61DA611A629A62DA621A635A637A
:102AC0009A63DA631A645A64196821F480211960E0
:102AD0001A66D4F8E420814B42F48042C4F8E42022
:102AE0002A681340B3F1005F03D27D4B0122C3F883
:102AF00008210023764D7B494FF0CC360093D5F862
:102B0000E000794A40F4FC70784C794FC5F8E00059
:102B1000D5F8E000DFF83CC200F010000090CC20B7
:102B20000862744848627448086074488860744851
:102B30004B60C860734974481162744956621160F1
:102B40007349916073495360D16002F580522762E6
:102B5000C4F824C0DFF800C26F49C4F800C0DFF831
:102B6000FCC1C4F808C0DFF8F8C16360C4F80CC049
:102B70006A4C07624462A4F58234A4F5B17404601F
:102B800004F5822404F255548460654C4360C460AB
:102B900040F265146348086263484E620860634807
:102BA000886063484B60C8604FF44C6161481662AE
:102BB000516210606049614891605360D0604FF489
:102BC000C052D5F8D4305E4943F480535D48C5F80F
:102BD000D43009230A645C4A4C648864CA640B6577
:102BE0008B6D13F0200361D04FF6FF7201E0013AC4
:102BF00054D08B6D13F02003F9D10193019BB3F5F1
:102C00007A7F5DD20023019A01320192019AB2F5D6
:102C10007A7FF8D34A4A0A211165002B52D04FF629
:102C2000FF73474901E0013B1ED08A6D9006FAD43C
:102C3000EB230B65424B454A1A65414B40F6064271
:102C400043495C6D214822434FF000645A655A6C39
:102C500022F400725A640B6843F000430B60009B3F
:102C6000846002B0F0BC7047EB224FF6FF7334482B
:102C70000A6501E0013B05D0826D9106FAD4334B21
:102C80000365DAE7314A4FF6FF732D49026501E02B
:102C9000013BD2D08A6D9206CFD5F9E70192019A15
:102CA000B2F57A7FAFD30A230B65B8E70193019B96
:102CB000B3F57A7FA6D30A22EB230A650B65B9E741
:102CC0000A230B651E4BEB221A65B3E700ED00E00B
:102CD000004402587FEDF6EA0010005C0000FFFFA0
:102CE00000800051000C02580010025800140258D5
:102CF000CCCCCC00CC0C00CCFAFFEAAF0F003FF0FC
:102D000005001550CC0000C000180258FABFAAAA4E
:102D10000FC0FFFF05405555001C02580C0000C0B5
:102D2000550501400000C0CCFFABAAAA00FCFFFF84
:102D300000545555AAAAEBFFFFFF3C00555514005F
:102D40000041005200501000510301010C400400EA
:102D50000040005200C0CCCCAAFABFAAFF0FC0FFAF
:102D60005505405530B44FF400524FF000654FF414
:102D7000804403464FF48071C0E900524FF40022B2
:102D8000C0E9024100201A6130BC70470000000019
:102D900010B54FF4407494B0052100220C944FF00C
:102DA00040740223069110210F9440F201140B93FA
:102DB000039341F2883313920092029106A9019481
:102DC0009FED097BCDE90D22CDE911226A468DEDFB
:102DD000047B09F047F8002814BF6FF004000020BE
:102DE00014B010BDAFF300800000000000004000F0
:102DF00030B5002395B003290C460D9341F288327B
:102E00000B9306A913930546CDE90E33CDE9113393
:102E10000CBF4FF440734FF480730C93062306935A
:102E200008F0A4FE20BB40F202230222032C284615
:102E300003924FF0000214BF4FF080754FF04075C1
:102E4000102406A90F950294CDE900334FF48003B6
:102E5000CDE90423052241F2883306926A4609F03F
:102E600001F8002814BF6FF00400002015B030BD39
:102E70006FF00100FAE700BF03294FF0000330B5FF
:102E800008BF4FF44072A3B018BF4FF480720546DC
:102E90000D930C92B7220E930F930B9311930692FE
:102EA000CDE91233FFF7A4FF60BB044641F288323C
:102EB00006A9284608F05AFE20BB4FF440710522AF
:102EC0000223284614924FF040721993039341F263
:102ED000883321940094CDE91A1410219FED0C7BC6
:102EE000029140F20111CDE91C4201916A4614A9F8
:102EF000CDE91F448DED047B08F0B4FF10B92046E6
:102F000023B030BD6FF00104F9E700BFAFF30080DC
:102F1000000000000000400010B535218EB00023F5
:102F20004FF48074009141F28832694605930D9305
:102F3000CDE90643CDE90833CDE90B3308F016FEA1
:102F4000002814BF6FF0010000200EB010BD00BFBC
:102F500010B5F5218EB000234FF48074009141F23A
:102F60008832694605930D93CDE90643CDE90833D0
:102F7000CDE90B3308F0FAFD002814BF6FF0010013
:102F800000200EB010BD00BF10B590B003290CD8C2
:102F9000DFE801F03C3202289FED217BEE224FF06A
:102FA000407302920B938DED087B4FF44051082241
:102FB00000234FF0004405914FF0804107926A468C
:102FC0000E9102A90A930D940F939FED177B8DED3F
:102FD000007B08F0BFFF002814BF6FF00500002041
:102FE00010B010BD9FED127BED224FF040730292A6
:102FF0000B938DED087BD8E79FED0F7B3D224FF0C3
:10300000007302920B938DED087BCEE79FED0A7B58
:103010000E224FF0807302920B938DED087BC4E774
:1030200000010000000C0000000000000000000093
:1030300000030000000C000000010000000400007C
:1030400000B591B003290CD8DFE801F0392F022533
:103050009FED217BEC224FF0407302920B938DED9C
:10306000087B9FED1F7B08214FF4405200230791FE
:10307000694405926A460A930F93CDE90D338DEDAD
:10308000007B08F067FF002814BF6FF005000020E8
:1030900011B05DF804FB9FED147BEB224FF0407301
:1030A00002920B938DED087BDBE79FED117BBC2239
:1030B0004FF0007302920B938DED087BD1E79FEDEB
:1030C0000E7B0C224FF0807302920B938DED087BE8
:1030D000C7E700BFAFF3008000010000000C000054
:1030E000000000000000000000030000000C0000D1
:1030F00000010000000800000001000000040000C2
:1031000010B503298EB04FF066044FF0000341F272
:1031100088326946009414BF4FF480744FF44074B1
:1031200007930D93CDE90833CDE90534CDE90B3391
:1031300008F01CFD002814BF6FF0010000200EB045
:1031400010BD00BF10B503298EB04FF099044FF0A9
:10315000000341F288326946009414BF4FF4807432
:103160004FF4407407930D93CDE90833CDE905344E
:10317000CDE90B3308F0FAFC002814BF6FF0010012
:1031800000200EB010BD00BF4FF0FF30704700BFF1
:10319000024B00209B680B60704700BF1087002423
:1031A000024B00201B680B60704700BF1087002493
:1031B000054B00201B6883420CBF4FF4F0734FF4A3
:1031C00048730B60704700BF10870024054B002038
:1031D0001B6883420CBF4FF448734FF4F0730B60CD
:1031E000704700BF108700244FF0FF30704700BFCA
:1031F0004FF0FF30704700BF4FF0FF30704700BF07
:103200004FF0FF30704700BF4FF0FF30704700BFF6
:103210004FF0FF30704700BF10B484680088A446A8
:103220005DF8044B604700BF10B444680088A446B2
:103230005DF8044B604700BF2DE9F84300F110052D
:103240000523064690460F469E4AF021284600F088
:1032500055FA044603239C4AB021284600F04EFA52
:1032600004440323994AB621284600F047FA04444F
:103270000323974AB121284600F040FA044403236F
:10328000944AB721284600F039FA04440323924AAD
:10329000B221284600F032FA044403238F4AB821B1
:1032A000284600F02BFA044401238D4ABF2128460A
:1032B00000F024FA044403238A4AB321284600F08C
:1032C0001DFA04440323884AB921284600F016FA5F
:1032D00004440323854AB521284600F00FFA04442C
:1032E0000323834ABA21284600F008FA0444032342
:1032F000804ABC21284600F001FA044403237E4A98
:10330000BD21284600F0FAF9044402237B4ABE217D
:10331000284600F0F3F904440523794AF0212846B1
:1033200000F0ECF904440223764AB121284600F06B
:10333000E5F904440123744AB621284600F0DEF979
:1033400004440123714AB521284600F0D7F904440A
:1033500002236F4AB721284600F0D0F90444042321
:103360006C4AB821284600F0C9F9044403236A4A8C
:10337000BC21284600F0C2F904440323674ACC214B
:10338000284600F0BBF901230444654ABA212846C7
:1033900000F0B4F9F368044498478146F36898470D
:1033A000A0EB0900C728F9D9B8F1000F63D1434653
:1033B0005C4A3621284600F0A1F9044404235A4A05
:1033C0002A21284600F09AF904440423574A2B2165
:1033D000284600F093F904440023554A1121284659
:1033E00000F08CF9F368044498478046F3689847E6
:1033F000A0EB08001328F9D9002F52D0022F4FF06C
:10340000000356D14B4A3A21284600F077F904448C
:10341000494A0023512128465760484A00F06EF976
:1034200004440023464A5321284600F067F9044427
:103430000023444A5521284600F060F90444002343
:10344000414A5E21284600F059F900233F4A0444CE
:103450002921284600F052F9014600233C4A0C4439
:1034600028462C2100F04AF9C44214BF4FF0FF3027
:103470000020BDE8F8830023364A3621284600F0B4
:103480003DF904440423344A2A21284600F036F941
:1034900004440423314A2B21284600F02FF9044428
:1034A0009AE73B462E4A3A21284600F027F9044481
:1034B000AEE72B4A3A212846002700F01FF90444C2
:1034C000A6E700BFFC630908F8630908F46309086C
:1034D000F0630908EC630908E8630908E463090874
:1034E000E0630908DC630908D8630908D4630908A4
:1034F000D0630908CC630908C8630908C4630908D4
:10350000BC630908B8630908B4630908B063090813
:10351000AC630908A8630908A4630908A063090843
:103520009C630908296409082064090818640908CB
:103530009963090895630908108700248D630908B9
:103540008963090885630908816309087D6309089F
:1035500079630908156409080C64090804640908FA
:103560009163090830B5C1EB012C0C4D83B00C46BA
:10357000A5FB0C5C00230DF1070210304FEA5C1C28
:1035800051218DF807C000F0B9F818B9044B9C60C0
:1035900003B030BD4FF0FF30FAE700BF1F85EB519D
:1035A0001087002400B583B00023292110300DF1CD
:1035B00007028DF8073000F0A1F8003818BF01208D
:1035C000404203B05DF804FB00B583B0002328211E
:1035D00010300DF107028DF8073000F08FF8003839
:1035E00018BF0120404203B05DF804FB70B56022B3
:1035F00082B0002301298DF806208DF8073039D8D4
:1036000000F110061ED00DF10702362130461D468E
:1036100000F074F80423194A04462A21304600F0C9
:103620006DF802460423304614442B21144A00F05E
:1036300065F820440038134B18BF01201D6040423C
:1036400002B070BD0DF106020D4630460B2100F0B0
:1036500055F804230C4A04462A21304600F04EF85F
:1036600002460423304614442B21084A00F046F851
:103670002044DFE74FF0FF30E2E700BF2064090895
:1036800018640908108700240C64090804640908F8
:103690000A461030DB2108B5012300F027F8003876
:1036A00018BF0120404208BD4FF0FF30704700BFF7
:1036B0004FF0FF30704700BF80B1034610B4D1E92E
:1036C0000124C8685A600749074A9B61C3E9024060
:1036D000C3E9042100205DF8044B70474FF0FF3030
:1036E000704700BF193200082932000810B4D0E931
:1036F0000140A4465DF8044B604700BF10B4046865
:103700008068A4465DF8044B604700BF4FF0FF306F
:10371000704700BF024B00209B680B60704700BFE2
:103720001C870024024B00201B680B60704700BF01
:103730001C870024054B00201B6883420CBF4FF4FC
:10374000F0734FF448730B60704700BF1C87002470
:10375000054B00201B6883420CBF4FF448734FF4A5
:10376000F0730B60704700BF1C8700244FF0FF30E0
:10377000704700BF4FF0FF30704700BF4FF0FF3081
:10378000704700BF4FF0FF30704700BF4FF0FF3071
:10379000704700BF4FF0FF30704700BF10B484681F
:1037A0000088A4465DF8044B604700BF10B444682D
:1037B0000088A4465DF8044B604700BF2DE9F04344
:1037C000002300F1100583B006460F4690461946C7
:1037D000DA4A284600F062FC03230446D84AFF2157
:1037E000284600F05BFC00230444D64A19462846CC
:1037F00000F054FC02230444D34AFF21284600F081
:103800004DFC00230444CF4A1946284600F046FCEC
:1038100000230444CD4AC421284600F03FFCF3684D
:10382000044498478146F3689847A0EB09000928AB
:10383000F9D90023C64A2846194600F02FFC002378
:103840000444C44AC421284600F028FCF368044418
:1038500098478146F3689847A0EB09000928F9D9F1
:103860000023BD4A2846194600F018FC00230444F2
:10387000BA4AC521284600F011FC00230444B84A86
:103880001946284600F00AFC00230444B54AC52125
:10389000284600F003FC00230444B34A1946284696
:1038A00000F0FCFB00230444B04AC021284600F08D
:1038B000F5FB00230444A14A1946284600F0EEFB1C
:1038C00000230444AA4AD921284600F0E7FB00233C
:1038D0000444A84A1946284600F0E0FB00230444AB
:1038E000A54AC121284600F0D9FB00230444A34A7D
:1038F0001946284600F0D2FB00230444A04AC12107
:10390000284600F0CBFB002304449E4A1946284673
:1039100000F0C4FB002304449B4AC521284600F064
:10392000BDFB00230444994A1946284600F0B6FB23
:10393000002304448B4AC521284600F0AFFB002336
:1039400004447E4A1946284600F0A8FB022304449A
:103950008F4AD821284600F0A1FB002304448D4A59
:103960001946284600F09AFB002304448A4AC521E0
:10397000284600F093FB00230444884A1946284651
:1039800000F08CFB00230444854AC021284600F047
:1039900085FB00230444834A1946284600F07EFB39
:1039A00000230444804AC521284600F077FB002309
:1039B0000444704A1946284600F070FB0023044472
:1039C0007A4AC421284600F069FB002304446B4A6C
:1039D0001946284600F062FB00230444744AC121C2
:1039E000284600F05BFB00230444724A194628462F
:1039F00000F054FB022304446F4AB321284600F030
:103A00004DFB002304444F4A1946284600F046FB6C
:103A100006230444694ACE21284600F03FFB0023D8
:103A20000444674A1946284600F038FB0E23044434
:103A3000644ACE21284600F031FB00230444624A48
:103A40001946284600F02AFB0E2304445F4ACE2183
:103A5000284600F023FB002304445D4A194628460B
:103A600000F01CFB0A2304445A4ACF21284600F0E8
:103A700015FB00230444584A1946284600F00EFB63
:103A800000230444554ACF21284600F007FB0023B9
:103A900004442C4A1946284600F000FB0A2304443B
:103AA0004F4ACB21284600F0F9FA002304444D4A3E
:103AB0001946284600F0F2FA0F2304444A4ACB2163
:103AC000284600F0EBFA002304443D4A19462846F4
:103AD00000F0E4FA0F230444444ACB21284600F0C6
:103AE000DDFA00230444384A1946284600F0D6FA85
:103AF0000A2304443E4ACB21284600F0CFFA002393
:103B00000444334A1946284600F0C8FA0F230444F7
:103B1000384ACB21284600F0C1FA002304442E4A3B
:103B20001946284600F0BAFA0F230444324ACB2142
:103B3000284600F0B3FA002360E000BF5D65090885
:103B4000586509085E650908546509085F65090834
:103B50006065090861650908626509086365090807
:103B600064650908656509086665090867650908E7
:103B700068650908696509086A6509086B650908C7
:103B80006C6509086D6509086E6509086F650908A7
:103B900050650908706509087165090872650908AA
:103BA000736509087465090875650908766509086B
:103BB00077650908786509084C65090844650908AE
:103BC00079650908346509087A65090824650908D2
:103BD0007B650908186509087C6509088965090875
:103BE0000C6509087D650908FC640908EC6409088E
:103BF000E0640908D0640908C06409080444A74ABD
:103C00001946284600F04AFA0A230444A44ACB2164
:103C1000284600F043FA00230444A24A19462846E5
:103C200000F03CFA0A2304449F4ACB21284600F0C6
:103C300035FA002304449D4A1946284600F02EFA1E
:103C40000A2304449A4ACC21284600F027FA00238C
:103C50000444984A1946284600F020FA0F230444E9
:103C6000954ACC21284600F019FA00230444934ACF
:103C70001946284600F012FA0F230444904ACC213A
:103C8000284600F00BFA002304448E4A19462846C1
:103C900000F004FA0A2304448B4ACC21284600F0A1
:103CA000FDF900230444894A1946284600F0F6F934
:103CB0000F230444864ACC21284600F0EFF9002364
:103CC0000444844A1946284600F0E8F90F230444C6
:103CD000814ACC21284600F0E1F9002304447F4AC0
:103CE0001946284600F0DAF9002304447C4AC5212D
:103CF000284600F0D3F9002304447A4A194628469E
:103D000000F0CCF900230444774AF521284600F05E
:103D1000C5F900230444754A1946284600F0BEF947
:103D200000230444724AC621284600F0B7F9002354
:103D30000444704A1946284600F0B0F903230444AD
:103D40006D4AFF21284600F0A9F900230444694A7E
:103D50001946284600F0A2F900230444654A194692
:103D6000284600F09BF910230444644AE1212846C8
:103D700000F094F9002304445E4A1946284600F0F6
:103D80008DF9044410235E4AE221284600F086F9AA
:103D9000002304445B4A1121284600F07FF9F368B0
:103DA000044498478146F3689847A0EB09007728B8
:103DB000F9D9002F6FD0022F4CD10023524A3A215B
:103DC000284600F06BF9DFF86891B8F1010F044460
:103DD000C9F8047043D00023C9F8003000234B4ACF
:103DE000512128461E4600F059F90444484A3346FA
:103DF00053212846C9F8086000F050F904443346BE
:103E0000444A5521284600F049F904443346424AC1
:103E10005E21284600F042F9044433463F4A2921F6
:103E2000284600F03BF9334631460444314A2846DF
:103E300000F034F901463346394A0C4428462C2117
:103E400000F02CF9C44214BF4FF0FF30304603B0ED
:103E5000BDE8F083B8F1010FDFF8D490BBD1602347
:103E60000DF10702362128468DF80730002300F0B7
:103E700015F9261804232B4A2A21284600F00EF9AA
:103E800006440423284A2B21284600F007F9C9F8E4
:103E900000803418A2E73B46244A90E77E65090873
:103EA000B46409087F650908A86409085E65090803
:103EB0009C6409087D6509088C640908796509080E
:103EC0007C6409087A650908706409087B6509083B
:103ED000606409087C650908506409086965090877
:103EE0008A6509088B6509088C6509088D650908CC
:103EF0008E6509085D6509084C6409083C64090879
:103F00002C6409088065090881650908836509082A
:103F100084650908856509088665090887650908B3
:103F2000886509089465090890650908826509088B
:103F30001C87002430B5C1EB012C0C4D83B00C461E
:103F4000A5FB0C5C00230DF1070210304FEA5C1C4E
:103F500051218DF807C000F0A1F818B9044B9C60FE
:103F600003B030BD4FF0FF30FAE700BF1F85EB51C3
:103F70001C87002400B583B00023292110300DF1E7
:103F800007028DF8073000F089F8003818BF0120CB
:103F9000404203B05DF804FB00B583B00023282144
:103FA00010300DF107028DF8073000F077F8003877
:103FB00018BF0120404203B05DF804FB70B56022D9
:103FC00082B0002301298DF806208DF8073026D80D
:103FD00000F110061ED00DF1070236211D463046B5
:103FE00000F05CF804230F4A04462A21304600F012
:103FF00055F802460423304614442B210A4A00F0A7
:104000004DF82044094B00381D6018BF0120404284
:1040100002B070BD0D460DF106023621DFE74FF00C
:10402000FF30F5E794650908906509081C870024AE
:104030000A461030DA2108B5012300F027F80038CD
:1040400018BF0120404208BD4FF0FF30704700BF4D
:104050004FF0FF30704700BF80B1034610B4D1E984
:104060000124C8685A600749074A9B61C3E90240B6
:10407000C3E9042100205DF8044B70474FF0FF3086
:10408000704700BF9D370008AD37000810B4D0E975
:104090000140A4465DF8044B604700BF10B40468BB
:1040A0008068A4465DF8044B604700BF90F8243058
:1040B000012B02D1002380F824300020704700BF7C
:1040C0004FF0FF30704700BF60B101230020CB608C
:1040D0004B60CB610B600B618B60C1E90533C1E9BB
:1040E000083370474FF0FF30704700BF10B40469C9
:1040F0000089A4465DF8044B604700BF10B4C46853
:104100000089A4465DF8044B604700BF042900F213
:10411000B380013930B583B0032900F2B080DFE805
:1041200001F016507B02032100F1180401230DF168
:1041300007028DF80710204643F6080101F076F9D2
:10414000002800F097804FF0FF3003B030BD01250C
:1041500000F118040DF1070243F608012B46204632
:104160008DF8075001F062F90028ECD140222B466F
:1041700043F6090120468DF807200DF1070201F0F2
:1041800055F90028DFD18DF807002B460DF1070205
:1041900043F60A01204601F049F90028D3D14FF037
:1041A000F00C2B460DF1070243F60B0120468DF86B
:1041B00007C001F03BF9003818BF0120404203B0AE
:1041C00030BD012500F118040DF1070243F6080186
:1041D0002B4620468DF8075001F028F90028B2D16F
:1041E000E0222B4643F6090120468DF807200DF109
:1041F000070201F01BF90028A5D12B460DF107029B
:1042000043F60A0120468DF8075001F00FF9002807
:1042100099D14FF0100CC4E7022100F118040123DA
:104220000DF107028DF80710204643F6080101F052
:10423000FDF8002887D180218DF8071001230DF1AA
:10424000070243F60901204601F0F0F800287FF448
:104250007AAF01250DF1070243F60A0120462B46ED
:104260008DF8075001F0E2F800287FF46CAF4FF0B2
:10427000E00C96E72021DFE74FF0FF307047002188
:1042800000F1180401230DF107028DF807102046F4
:1042900043F6080101F0CAF800287FF454AFA021CA
:1042A00001230DF1070220468DF8071043F609019E
:1042B00001F0BCF800287FF446AF8DF80700012319
:1042C0000DF1070243F60A01204601F0AFF800287D
:1042D0007FF439AF782501230DF1070243F60B0176
:1042E00020468DF8075001F0A1F8003818BF0120D2
:1042F00040422AE770B5002282B000F118040D4652
:104300008DF8072001230DF1070243F206412046F4
:1043100001F08CF808B102B070BD4622012345F2CD
:10432000901120468DF807200DF1070201F07EF86C
:104330000028F0D1F822012345F2911120468DF892
:1043400007200DF1070201F071F80028E3D10422E3
:10435000012345F2921120468DF807200DF1070246
:1043600001F064F80028D6D1691E072909D8DFE8D2
:1043700011F01E01CA0008006D01080008000800C5
:104380006800002101230DF1070220468DF8071077
:1043900043F2064101F04AF8002840F09F810425CD
:1043A00001230DF107024FF4505120468DF80750BC
:1043B00001F03CF8002840F091818DF807000123BE
:1043C0000DF1070243F20141204601F02FF80028C9
:1043D00040F0848101230DF1070243F2024120469F
:1043E0008DF8075001F022F8002840F077818DF811
:1043F000070001230DF1070243F20341204601F0BB
:1044000015F8002840F06A8101230DF1070243F2FC
:10441000044120468DF8075001F008F805460028B1
:1044200040F05C8101230DF1070243F20541204673
:104430008DF8075000F0FAFF003818BF0120404205
:1044400069E701250DF1070243F2064120462B469C
:104450008DF8075000F0EAFF002840F03F81062267
:104460002B464FF4505120468DF807200DF10702DE
:1044700000F0DCFF002840F0318148222B4643F257
:10448000014120468DF807200DF1070200F0CEFF14
:10449000002840F0238104262B460DF1070243F249
:1044A000024120468DF8076000F0C0FF002840F070
:1044B00015818DF807002B460DF1070243F20341E9
:1044C000204600F0B3FF002840F008812B460DF194
:1044D000070243F2044120468DF8076000F0A6FF72
:1044E000002840F0FB80D3262B460DF1070243F253
:1044F000054120468DF8076000F098FF003818BF8E
:104500000120404207E701250DF1070243F2064171
:1045100020462B468DF8075000F088FF002840F019
:10452000DD8005222B464FF4505120468DF80720A0
:104530000DF1070200F07AFF002840F0CF804822FA
:104540002B4643F2014120468DF807200DF107026A
:1045500000F06CFF002840F0C18004222B4643F29B
:10456000024120468DF807200DF1070200F05EFFA2
:10457000002840F0B3808DF807002B460DF10702AC
:1045800043F20341204600F051FF002840F0A6808E
:1045900007222B4643F2044120468DF807206A4447
:1045A00000F044FF002840F09980CF269CE70125C9
:1045B0000DF1070243F2064120462B468DF80750C5
:1045C00000F034FF002840F0898006222B464FF48B
:1045D000505120468DF807200DF1070200F026FF0C
:1045E00000287BD11C222B4643F2014120468DF846
:1045F00007200DF1070200F019FF00286ED10426F4
:104600002B460DF1070243F2024120468DF8076068
:1046100000F00CFF002861D18DF807002B460DF14A
:10462000070243F20341204600F000FF002855D165
:104630002B460DF1070243F2044120468DF8076036
:1046400000F0F4FE002849D1F3264DE701250DF1D5
:10465000070243F2064120462B468DF8075000F032
:10466000E5FED8BB04262B460DF107024FF450514E
:1046700020468DF8076000F0D9FE78BB10230DF1BD
:10468000070243F2014120468DF807302B4600F027
:10469000CDFE18BB2B460DF1070243F20241204626
:1046A0008DF8076000F0C2FEC0B98DF807002B46F8
:1046B0000DF1070243F20341204600F0B7FE68B94E
:1046C00008222B4643F2044120468DF807200DF1C5
:1046D000070200F0ABFE08B9B62605E74FF0FF3041
:1046E00019E600BF013930B500F1180483B01F2965
:1046F00021D8DFE811F03D004F00200087002000A6
:1047000020002000B4002000200020002000200015
:1047100020002000D10020002000200020002000E8
:104720002000200020002000200020002000200089
:1047300020002000FD007F2101230DF1070220460B
:104740008DF8071045F2010100F070FE8446E8B9CB
:1047500001230DF107024FF4AB4120468DF807C04D
:1047600000F064FE003818BF0120404203B030BDA5
:10477000FF2101230DF1070220468DF8071045F2B5
:10478000010100F053FE002800F0C7804FF0FF3019
:1047900003B030BDFF2101230DF1070220468DF843
:1047A000071045F2010100F041FE0028EED118216A
:1047B00001230DF1070220468DF807104FF4AB419D
:1047C00000F034FE0028E1D1802101230DF1070221
:1047D00020468DF8071045F2835100F027FE00288F
:1047E000D4D1C02501230DF1070245F284512046A2
:1047F0008DF8075000F01AFE003818BF0120404223
:1048000003B030BDFF2101230DF1070220468DF8D2
:10481000071045F2010100F009FE0028B6D1182169
:1048200001230DF1070220468DF807104FF4AB412C
:1048300000F0FCFD0028A9D1602501230DF107023D
:1048400045F2835120468DF8075000F0EFFD002817
:104850009CD101230DF1070245F28451C7E7FF21E6
:1048600001230DF1070220468DF8071045F20101E2
:1048700000F0DCFD002889D1182101230DF1070289
:1048800020468DF807104FF4AB4100F0CFFD002813
:104890007FF47CAF8025D0E7FF2101230DF10702D3
:1048A00020468DF8071045F2010100F0BFFD0028F9
:1048B0007FF46CAF182101230DF1070220468DF81B
:1048C00007104FF4AB4100F0B1FD00287FF45EAF5C
:1048D000402101230DF1070220468DF8071045F213
:1048E000835100F0A3FD00287FF450AFA025B0E76E
:1048F000FF2101230DF1070220468DF8071045F234
:10490000010100F093FD00287FF440AF4025012312
:104910000DF107024FF4AB4169E7182101230DF1B6
:10492000070220468DF807104FF4AB4100F07EFDE2
:1049300000287FF42BAFA02101230DF107022046B0
:104940008DF8071045F2835100F070FD00287FF4C8
:104950001DAF402501230DF1070245F2845146E7C2
:1049600030B52C4A85B000F118040D4601AB07CADA
:1049700003C3FF211A70204601238DF803100DF1A7
:10498000030245F2010100F051FD08B105B030BD50
:1049900005F11002012345F2875120466A4412F8BE
:1049A000082C8DF803200DF1030200F03FFD0028D4
:1049B000ECD1042201234FF4AB4120468DF80320B3
:1049C0000DF1030200F032FD0028DFD1002D10DBD5
:1049D000092501230DF1030245F2885120468DF887
:1049E000035000F023FD003818BF0120404205B0FD
:1049F00030BD01230DF1030245F2885120468DF8A8
:104A0000033000F013FD003818BF0120404205B00C
:104A100030BD00BF109D010830B5294A85B000F1B6
:104A200018040D4601AB07CA03C3FF211A702046C4
:104A300001238DF803100DF1030245F2010100F08E
:104A4000F5FC18B14FF0FF3005B030BD05F1100393
:104A50000DF1030220460DEB0301012311F8081CA0
:104A60008DF8031045F2835100F0E0FC0028E9D1F5
:104A700001230DF1030245F28451204600F0D6FCDB
:104A80000028DFD1022101230DF1030220468DF819
:104A900003104FF4AB4100F0C9FC0028D2D14125EE
:104AA00001230DF1030245F2885120468DF8035091
:104AB00000F0BCFC003818BF0120404205B030BDFA
:104AC0001C9D010830B5294A85B000F118040D4637
:104AD00001AB07CA03C3FF211A70204601238DF8DA
:104AE00003100DF1030245F2010100F09FFC18B123
:104AF0004FF0FF3005B030BD042201234FF4AB412D
:104B000020468DF803200DF1030200F08FFC0028F1
:104B1000EED105F110030DF1030220460DEB030168
:104B2000012311F8081C8DF8031045F2865100F09E
:104B30007DFC0028DCD101230DF1030245F28551F3
:104B4000204600F073FC0028D2D1412501230DF14D
:104B5000030245F2885120468DF8035000F066FCB0
:104B6000003818BF0120404205B030BD98650908E3
:104B700070B5334B8AB000F118040D4603F10C0CEC
:104B80000DF1040E93E8070004AB8EE807009CE8E3
:104B9000070083E807002B4B93E807000AAB03E903
:104BA0000700FF22012345F2010120468DF8032072
:104BB0000DF1030200F03AFC18B14FF0FF300AB0DB
:104BC00070BD01260DF103024FF4AB412046334680
:104BD0008DF8036000F02AFC0028EED105F12E03C9
:104BE0000DF1030245F2815120460DEB030515F846
:104BF000243C8DF80330334600F018FC0028DCD14B
:104C000015F8183C0DF1030245F2825120468DF84B
:104C10000330334600F00AFC0028CED115F80C5CB6
:104C200033460DF1030245F2885120468DF80350BA
:104C300000F0FCFB003818BF012040420AB070BDF4
:104C4000289D0108A465090802292DE9F0410446C0
:104C500082B05FD9072900F0BB80082954D13022E7
:104C600000F118070DF1070601238DF807204FF416
:104C700086413246384600F0D9FB002800F0D58046
:104C80004FF0FF350123324643F62101384600F04C
:104C9000C5FBC8BB9DF80720012343F62101384618
:104CA00042F020028DF80720324600F0BFFB58BBCF
:104CB0000123324643F20201384600F0AFFB18BB35
:104CC0009DF80720012343F20201384622F01C021E
:104CD0008DF80720324600F0A9FBA8B9012332461F
:104CE00043F20601384600F099FB68B99DF80710B9
:104CF00001233246384641F028018DF8071043F26F
:104D0000060100F093FB08B14FF0FF35284602B0D2
:104D1000BDE8F0810139012900F2A480DFE801F04B
:104D20002D01302200F118050DF1070601238DF841
:104D300007204FF486413246284600F077FB0028D2
:104D4000E2D1636998470746636998478742FBD079
:104D500000212846012332468DF8071045F21F0135
:104D600000F064FB05460028CED1636998470646EB
:104D7000636998478642FBD0C8E7232200F11805F3
:104D80000DF1070601238DF807204FF486413246C6
:104D9000284600F04BFB0028B6D1636998470746C8
:104DA000636998478742FBD001232846324645F283
:104DB0001F018DF8073000F039FB05460028A3D10C
:104DC000636998470646636998478642FBD09DE72A
:104DD000102200F118050DF1070601238DF80720B8
:104DE0004FF486413246284600F020FB00288BD144
:104DF000636998470746636998478742FBD000215B
:104E00002846012332468DF8071045F21F0100F0B5
:104E10000DFB054600287FF477AF63699847064687
:104E2000636998478642FBD070E7636998470546F7
:104E3000636998478542FBD00022012345F21F0198
:104E400038468DF80720324600F0F0FA0546002873
:104E50007FF416AF63699847804663699847804539
:104E6000FBD00FE76F2200F118070DF107060123B1
:104E70008DF807204FF486413246384600F0D6FAC6
:104E800000287FF441AF63699847054663699847F6
:104E90008542FBD001233246384645F21F018DF88A
:104EA000073000F0C3FA054600287FF42DAF636990
:104EB00098470646636998478642FBD026E700BFBD
:104EC00090F824300BB10020704704292DE9F043FD
:104ED000894683B023D832F002030746904604D0B7
:104EE000D31F012B01D9012A19D1204C002107F130
:104EF000180504F57E7601230DF10602284651B906
:104F0000B4F802C021888DF806C000F08FFA011EA7
:104F100018BF012149420434A642ECD121B14FF01F
:104F2000FF3003B0BDE8F08349463846FFF7EEF89E
:104F30000028F4D141463846FFF786FE0028EED11E
:104F4000222001230DF1070244F240718DF8070081
:104F500007F1180000F06AFA0028E0D101230020D0
:104F600087F8243003B0BDE8F08300BFB4650908BA
:104F700070B500F1180482B00E4601230DF107024E
:104F800043F60801204600F049FA00284BD19DF86D
:104F9000075001230DF1070243F6090120462D02B7
:104FA00000F03CFA00283ED19DF807300DF10702D1
:104FB00043F60A0120461D43012300F02FFA90BB5F
:104FC0009DF8073020460DF1070243F60B011C0245
:104FD000012300F023FA30BB9DF80730B5F5487F78
:104FE00043EA0403A3F5F072B2FA82F24FEA5212D6
:104FF00004D11AB10423336002B070BDB5F5207F2F
:1050000002D10AB10323F6E7B5F5F07F04D1B3F579
:10501000887F01D10223EEE7B5F5A07F07D1F02B01
:1050200005D10123E7E74FF0FF3002B070BDA02D9E
:10503000F9D1782BF7D10023DDE700BF30B583B07D
:105040000D46044601A9FFF793FF80BB442D04F1F0
:10505000180425D0019B022B1ED9032B00D1AD08CB
:10506000002201234FF4AC4120468DF803200DF1BE
:10507000030200F0DBF9D0B901230DF1030245F280
:10508000016120468DF8035000F0D0F9003818BFB8
:105090000120404203B030BD002BE1D06D08DFE7B6
:1050A000102501230DF103024FF4AC41E9E74FF065
:1050B000FF30EFE7F0B5064683B00F46044656F8DA
:1050C000183B984780230DF1070243F208018DF841
:1050D00007303046012300F0A9F928BB63699847DF
:1050E000054663699847401BB0F5FA7FF9D3012361
:1050F0000DF1070243F20A01304600F08FF998B92A
:105100009DF8071001230DF10702304609023960AE
:1051100043F20B0100F082F930B93B689DF807209B
:1051200013433B6003B0F0BD4FF0FF30FAE700BF20
:1051300030B5002283B000F118040D468DF806202A
:1051400001230DF1060243F62001204600F066F926
:10515000002860D19DF806300DF1070243F62101C9
:10516000204623F006038DF80630012300F056F99F
:10517000002850D19DF80730022D23F006038DF84A
:1051800007301BD0032D49D0012D34D001230DF160
:10519000060243F62001204600F048F900283AD1E3
:1051A00001230DF1070243F62101204600F03EF9EC
:1051B000003818BF0120404203B030BD01230DF17B
:1051C000060243F62001204600F030F918BB9DF896
:1051D000075001230DF1070243F6210145F00605B2
:1051E00020468DF8075000F021F9003818BF012043
:1051F000404203B030BD9DF806300DF1060243F683
:105200002001204643F006038DF806302B4600F0BF
:105210000DF90028C4D04FF0FF30CDE79DF80610FF
:1052200001230DF10602204641F006018DF806101B
:1052300043F6200100F0FAF80028C8D0EBE700BFE1
:1052400070B5002382B0012900F118048DF80730F1
:105250001CD001234FF4685120460DF1070200F0E5
:10526000DDF8E8B99DF8075001230DF107024FF46E
:10527000685125F0040520468DF8075000F0D6F857
:10528000003818BF0120404202B070BD0D460B46E9
:105290000DF1070243F23801204600F0C7F818B1BB
:1052A0004FF0FF3002B070BD2B460DF1070243F204
:1052B0003901204600F0BAF80028F1D17C222B46B3
:1052C0004FF4685120468DF807200DF1070200F0D9
:1052D000ADF80028E4D12B460DF1070243F6082172
:1052E00020468DF8075000F0A1F80028D8D12722D9
:1052F0002B4643F6092120468DF807200DF10702C1
:1053000000F094F80028CBD18DF807002B460DF162
:10531000070243F60A21204600F088F80028BFD192
:10532000F6222B4643F60B2120468DF807200DF17F
:10533000070200F07BF80028B2D104222B4643F686
:105340000D2120468DF807200DF1070200F06EF8C0
:105350000028A5D12B460DF1070243F60E21204669
:1053600000F064F800289BD10B2501230DF1070202
:1053700043F6022120468DF8075000F057F8002828
:105380008ED1882601230DF1070243F60321204622
:105390008DF8076000F04AF8002881D101230DF153
:1053A000070243F6142120468DF8075000F03EF81E
:1053B00000287FF475AF01230DF1070243F6152194
:1053C00020468DF8076000F031F8003818BF012042
:1053D000404202B070BD00BFC0B10A8930B4D1E90B
:1053E00000340281C0E900344A69D1E90354094913
:1053F000C560C0E90442084AC0E9071082610BB1E8
:1054000030BC18474FF0FF3030BC70474FF0FF30D2
:10541000704700BFED400008FD40000810B4D0E91F
:105420000140A4465DF8044B604700BF10B4046817
:105430008068A4465DF8044B604700BF90F82430B4
:10544000012B02D1002380F824300020704700BFD8
:105450004FF0FF30704700BF68B101230022CB60DE
:1054600010464A60CB610B600A618B60C1E905326E
:10547000C1E9082370474FF0FF3070474FF0FF300D
:10548000704700BF4FF0FF30704700BF10B4046991
:105490000089A4465DF8044B604700BF10B4C4689F
:1054A0000089A4465DF8044B604700BF03292DE93D
:1054B000F04383B000F2B1800129044627D00239BD
:1054C000012967D8564E002500F1180906F5937892
:1054D00035B10236B045FBD1284603B0BDE8F083B4
:1054E000757801230DF10702317848468DF8075091
:1054F00000F0D8FB051E636918BF012598470746D1
:105500006D4263699847C01B0128FAD9E1E7454E0F
:10551000002500F1180906F5917825B302364645B5
:10552000FBD1414E04F1180906F10A0825B10236F3
:105530004645D1D0002DFAD173780DF107023178AC
:1055400048468DF80730012300F0ACFB051E636967
:1055500018BF0125984707466D4263699847C01BED
:105560000128FAD9E3E7757801230DF107023178B4
:1055700048468DF8075000F095FB051E636918BF7B
:105580000125984707466D4263699847C01B01286B
:10559000FAD9C3E7234E002500F1180906F59178E2
:1055A00025B30236B045FBD1204E04F1180906F1AF
:1055B0000A0825B1023646458ED0002DFAD17378FF
:1055C0000DF10702317848468DF80730012300F0CD
:1055D00069FB051E636918BF0125984707466D42A0
:1055E00063699847C01B0128FAD9E3E7757801235E
:1055F0000DF10702317848468DF8075000F052FB54
:10560000051E636918BF0125984707466D42636907
:105610009847C01B0128FAD9C3E74FF0FF355BE775
:10562000B8690908F86A0908E06A0908EC6A090813
:10563000013970B500F1180582B01F2921D8DFE8C3
:1056400011F06A00AD002000DE00200020002000E4
:105650002301200020002000200020002000200046
:105660003B0120002000200020002000200020001E
:10567000200020002000200020002000200020002A
:105680006801CC2101230DF107028DF8071028468F
:105690003A21802600F006FB044601230DF10702A3
:1056A0004F2128468DF8076000F0FCFA01230444DE
:1056B0000DF107025021284600F0F4FA00230444BB
:1056C0000DF107028DF8073051210123284600F023
:1056D000E9FA044401230DF107025221284600F0A3
:1056E000E1FA8DF80760012304440DF1070253210C
:1056F000284600F0D7FA014601230DF107020C44B9
:105700002846542100F0CEFA2044003818BF01206A
:10571000404202B070BDCC2101230DF107022846A2
:105720008DF807103A2100F0BDFA0022044601234B
:105730004F218DF8072028460DF1070200F0B2FA3C
:10574000044401230DF107025021284600F0AAFA73
:10575000044401230DF107025121284600F0A2FA6A
:10576000044401230DF107025221284600F09AFA61
:10577000012304440DF107025321284600F092FA58
:10578000014660230DF107020C4428468DF80730CE
:105790005421012300F086FA2044B6E7CC210123EE
:1057A0000DF1070228468DF807103A2100F07AFA29
:1057B0006022012304468DF807204F210DF10702D6
:1057C000284600F06FFA002304448DF807300123C7
:1057D0000DF107025021284600F064FA04440DF14F
:1057E000070201235121284600F05CFA01230444FA
:1057F0000DF107025221284600F054FA73E7CC213C
:1058000001230DF1070228468DF807103A2100F018
:1058100049FA0026044601230DF107024F212846CC
:105820008DF8076000F03EFA044401230DF10702F1
:105830005021284600F036FA044401230DF10702F6
:105840005121284600F02EFA012304440DF10702ED
:105850005221284600F026FA802304440DF1070265
:1058600053218DF807302846012300F01BFA034628
:105870000DF1070228461C44542101238DF80760CE
:1058800000F010FA204440E7CC2101230DF107027B
:1058900028468DF807103A2100F004FA0022044649
:1058A00001238DF807204F210DF10702284600F053
:1058B000F9F9012304448BE7CC2101230DF1070200
:1058C00028468DF807103A2100F0ECF9002604462E
:1058D00001230DF107024F2128468DF8076000F0E3
:1058E000E1F9012304440DF107025021284600F09C
:1058F000D9F9202304440DF107028DF80730512116
:105900000123284600F0CEF9F02304448DF8073037
:10591000E0E6EC21B6E600BF00B5103185B00D4AD7
:1059200086460DEB010C01AB07CA03C31A70552163
:105930001CF808CC01230DF103020EF118008DF8BC
:1059400003C000F0AFF9003818BF0120404205B095
:105950005DF804FB409D010800B5103185B00D4A8B
:1059600086460DEB010C01AB07CA03C31A70562122
:105970001CF808CC01230DF103020EF118008DF87C
:1059800003C000F08FF9003818BF0120404205B075
:105990005DF804FBAC69090831F0020330B583B04F
:1059A00077D100F118040D4601230DF107021221F1
:1059B000204600F06FF900286BD19DF80730022DCA
:1059C00003F0FC0329D043F003010DF1070201238A
:1059D00020468DF80710122100F064F9002858D1F4
:1059E00001230DF107024021204600F053F9002861
:1059F0004FD19DF8075001230DF10702402145F0DA
:105A0000100520468DF8075000F04CF9051E18BF10
:105A100001256D42284603B030BD43F002010DF16F
:105A20000702012320468DF80710122100F03AF9F1
:105A300078BB01230DF107023A21204600F02AF934
:105A400038BB9DF8071001230DF10702204621F015
:105A50002C018DF807103A2100F024F9C8B9012370
:105A60000DF107024021204600F014F90546A8B9BF
:105A70009DF8073023F0300363F03F038DF80730C3
:105A800001230DF107024021204600F00BF9002808
:105A9000C0D04FF0FF35284603B030BD4FF0FF3582
:105AA000EEE700BF90F824300BB1002070470329C7
:105AB000F0B50E4683B027D832F00203174623D143
:105AC00080220446012312218DF8072018300DF1A1
:105AD000070200F0E7F8B8B96369984705466369BB
